:100000000C9444250C9471250C9471250C94712545
:100010000C9471250C9471250C9471250C94712508
:100020000C9471250C9471250C9471250C947125F8
:100030000C9471250D948C020C9471250C947125EF
:100040000C9471250C949ED40C9471250C947125FC
:100050000C9471250C9471250C940DC90D94E3003A
:100060000C9471250C94B9740C9471250C94712521
:100070000C9471250C9471250C9471250C947125A8
:100080000C9471250C9471250C9471250C94712598
:100090000C9471250C9471250C9471250C9467F7C0
:1000A0000C9471250C9471250C9471250C94712578
:1000B0000C9471250C9471250C9471250C94712568
:1000C0000C9471250C9471250C9471250C94712558
:1000D0000C9471250C9471250C9471250C94712548
:1000E0000C947125084AD73B3BCE016E84BCBFFD02
:1000F000C12F3D6C74319ABD56833DDA3D00C77FF8
:1001000011BED9E4BB4C3E916BAAAABE0000008090
:100110003F05A84CCDB2D44EB93836A9020C50B91F
:10012000918688083CA6AAAA2ABE000000803F004B
:1001300000000000000000000000007FFFE0000061
:10014000000000000000000000007000E00000005F
:10015000000000000000000000630C6000000000D0
:100160000000000000000000470E2000000000001A
:10017000000000000000004F0F2000000000000001
:100180000000000000005F0FA00000000000000061
:1001900000000000005E07A07F800000000000005B
:1001A00000410400406020FFC0000000000000008B
:1001B00020820040F020FFC000000000000000206E
:1001C000820040F020FFC000000000000000410459
:1001D000004060207F8000000000000000820800D6
:1001E0005E07A07F80000000000000010410005F97
:1001F0000FA0FFC0000000000000010410004F0F1E
:1002000020FFC000000000000000820800470E2010
:10021000FFC000000000000000410400630C603FCC
:1002200000000000000000000000007000E01E0060
:1002300000000000000001FFFF807FFFE00C0000D5
:10024000000000000001FFFF80000000000000002F
:1002500000000000000000007FFFE0000000000040
:10026000000000000000007000E00000000000003E
:1002700000000000000061F86000000000000000C5
:10028000000000000041F820000000000000000015
:100290000000000040F0200000000000000000000E
:1002A000000000406020000000000000000000008E
:1002B00000005801A07F8000000000000000410401
:1002C000005C63A0FFC0000000000000002082006E
:1002D0005EF7A0FFC0000000000000002082005E6A
:1002E000F7A0FFC0000000000000004104005C63B4
:1002F000A07F80000000000000008208005801A0DC
:100300007F8000000000000001041000406020FF1A
:10031000C00000000000000104100040F020FFC0F9
:100320000000000000000082080041F820FFC0002B
:1003300000000000000041040061F8603F00000080
:1003400000000000000000007000E01E000000003F
:1003500000000001FFFF807FFFE00C0000000000B4
:10036000000001FFFF8000000059002D2D3A2D2DC7
:1003700000B02000B02000000000000000000000DD
:10038000000000000000000000000000000000006D
:10039000000000000000000000000000000000005D
:1003A0000000000000000000000003C0000000008A
:1003B00000003FFE000000000001FFFF8000000081
:1003C0000007FFFFE0000000000FFFFFF00000004B
:1003D000001FFFFFF8000000003FFFFFFC000000CF
:1003E000007FFFFFFE00000000FFFFFFFF00000096
:1003F00001FFFFFFFF80000001FFFFFFFF80000003
:1004000003FFFFFFFFC0000003FF8001FFC00000EB
:1004100007F800000FE0000007C0000003E0000044
:100420000700000000F000000E0000000030000097
:100430000C00000000100000180000000018000070
:1004400038000000000C000070000000000E0000EA
:1004500070000000000F0000F0000000000F00011D
:10046000F0000000000F8001F0000000000F80038A
:10047000F0000000000FC003F8000000001FC007DC
:10048000F8000000001FE007F8000000001FE00770
:10049000F8000000001FE007FC000000003FE0073C
:1004A000FC000000003FF007FE000000007FF007A6
:1004B000FE000000007FF007FF000000007FF00753
:1004C000FF00000000FFF007FF80000000FFE007D2
:1004D000FF80000001FFE007FFC0000003FFE0070E
:1004E000FFC0000003FFE003FFE0000007FFC003C0
:1004F000FFF000000FFFC001FFF000000FFFC00180
:10050000FFF800001FFF8000FFFC00003FFF00001D
:10051000FFFE00007FFF00007FFF0000FFFE0000E5
:100520003FFF8001FFFC00001FFFC003FFF8000039
:100530000FFFE007FFF0000003FFF81FFFC00000FF
:1005400000FFFFFFFF000000003FFFFFFC00000076
:100550000001C00380000000000000000000000057
:10056000000000000000000000000000000000008B
:10057000000000000000004E6F2068617920746167
:10058000726A657461205344004D656E7520646520
:1005900020534400446574656E657220696D707205
:1005A0006573696F6E005265616E75646172206972
:1005B0006D707265732E0050617573617220696D84
:1005C00070726573696F6E00436F6E74726F6C004A
:1005D000507265706172617200416A757374617204
:1005E000004D6F6E69746F72697A6172004D656E4D
:1005F00075206465205344004D656E752064652048
:10060000534400F92E2E004D656E75207072696E90
:10061000636970616C004D3234004D3233202573B4
:10062000004D383420582059205A20450052657317
:10063000742E20646520656D657267656E2E0043BB
:100640006172676172206D656D6F726961004775D7
:100650006172646172206D656D6F726961005265CF
:10066000747261657200436F6E74726173746500B9
:1006700046696C616D656E74004D6F76696D696574
:100680006E746F0054656D7065726174757261008F
:100690004D656E75207072696E636970616C00449F
:1006A0006573526574205600446573526574205614
:1006B00000446573526574202B6D6D004465735260
:1006C0006574202B6D6D004C6576616E74617220CF
:1006D0006D6D004C6576616E746172206D6D0052B7
:1006E000657472616572202056005265747261658E
:1006F000722020560052657472616572206D6D0023
:1007000052657472616572206D6D004F6666004FB0
:100710006E004F6666004F6E004175746F526574CF
:10072000722E00436F6E74726F6C00436F6E747242
:10073000617374650046696C2E204469612E203116
:100740000046696C2E204469612E2031004F666698
:10075000004F6E004F6666004F6E004520696E20A8
:100760006D6D3300436F6E74726F6C004520706165
:10077000736F732F6D6D0045207061736F732F6DF4
:100780006D005A207061736F732F6D6D005A207069
:1007900061736F732F6D6D0059207061736F732FCC
:1007A0006D6D0059207061736F732F6D6D0058204F
:1007B0007061736F732F6D6D0058207061736F736C
:1007C0002F6D6D00412D7265747261632E00412D95
:1007D0007265747261632E00416D61786500416DD0
:1007E00061786500416D61787A00416D61787A00C9
:1007F000416D61787900416D61787900416D617872
:100800007800416D6178780056766163696F206D7C
:10081000696E0056766163696F206D696E00566D72
:10082000696E00566D696E00566D61786500566D93
:1008300061786500566D61787A00566D61787A004E
:10084000566D61787900566D61787900566D6178E2
:100850007800566D6178780056652D6A65726B0078
:1008600056652D6A65726B00567A2D6A65726B004B
:10087000567A2D6A65726B005678792D6A65726BAF
:10088000005678792D6A65726B004163656C004192
:1008900063656C00436F6E74726F6C00416A7573B0
:1008A0007461722074656D702E2041425300416A5C
:1008B00075737461722074656D702E20504C410008
:1008C0005049442D43005049442D43005049442D84
:1008D00044005049442D44005049442D490050499A
:1008E000442D49005049442D50005049442D50009A
:1008F0000220466163740002204661637400022096
:100900004D61780002204D61780002204D696E0033
:1009100002204D696E004F6666004F6E004F66669E
:10092000004F6E004175746F74656D700056656E92
:1009300074696C61646F720056656E74696C616491
:100940006F7200426173650042617365004E6F7A99
:100950007A6C65004E6F7A7A6C6500436F6E7472C4
:100960006F6C0047756172646172206D656D6F72A6
:10097000696100426173650042617365004E6F7A80
:100980007A6C65004E6F7A7A6C650056656E746994
:100990006C61646F720056656E74696C61646F722D
:1009A0000054656D706572617475726100477561A0
:1009B00072646172206D656D6F726961004261736E
:1009C000650042617365004E6F7A7A6C65004E6F08
:1009D0007A7A6C650056656E74696C61646F72003A
:1009E00056656E74696C61646F720054656D7065F4
:1009F000726174757261004D6F76657220656A650B
:100A000073004D383000456E63656E646572004D4D
:100A100038310041706167617200456E66726961CC
:100A2000720050726563616C656E74617220414240
:100A3000530050726563616C656E74617220504C36
:100A40004100416A7573746172206F6666736574E4
:100A50007300473238004C6C6576617220616C20FF
:100A60006F726967656E004D38340041706167616F
:100A700072206D6F746F726573004D656E752070B6
:100A800072696E636970616C004D6F7665722030BB
:100A90002E316D6D004D6F76657220316D6D004D9C
:100AA0006F7665722031306D6D00507265706172C5
:100AB0006172004578747275736F72004D6F766560
:100AC00072205A004D6F7665722059004D6F766521
:100AD000722058004D6F76657220656A6573004517
:100AE00078747275646572005A005900580050722B
:100AF0006563616C2E204142532042617365005052
:100B0000726563616C656E7461722041425320317D
:100B10000050726570617261720050726563616C41
:100B20002E20504C41204261736500507265636114
:100B30006C656E74617220504C41203100507265BA
:100B40007061726172004D3630300043616D6269D0
:100B500061722066696C616D656E746F00426162DE
:100B60007973746570205A0042616279737465709C
:100B70002059004261627973746570205800466C98
:100B8000756A6F203000466C756A6F203000466CC5
:100B9000756A6F00466C756A6F0056656E74696C95
:100BA00061646F720056656E74696C61646F720087
:100BB000426173650042617365004E6F7A7A6C65BD
:100BC000004E6F7A7A6C650056656C6F636964617C
:100BD000640056656C6F6369646164004D656E7591
:100BE000207072696E636970616C00426162797332
:100BF00074657070696E67205A004261627973741F
:100C0000657070696E67205900426162797374651E
:100C10007070696E672058005461726A6574612053
:100C20007265746972616461005461726A657461AD
:100C300020636F6C6F63616461004D33303020530B
:100C40003639382050323030004D33303020533672
:100C5000353920503230300000060900FE06018987
:100C600002FE20FFFE07FE06FE0000000600070150
:100C700006060602008080808000800303030601D0
:100C800003A0A0A00507070600FF5050F850F85039
:100C9000500509090600FE2070A8A07028A8702041
:100CA0000608080600FF40A8481020485408050719
:100CB000070600FF609090609890680103030602A9
:100CC000038080800207070602FF408080808080CA
:100CD000400207070602FF80404040404080050573
:100CE000050600008850F85088050505060000201C
:100CF00020F820200204040602FEC04040800501C6
:100D000001060002F8020202060200C0C004060644
:100D100006010010102040808004060606010060D5
:100D2000909090906003060606010040C04040404D
:100D3000E00406060601006090102040F00406065C
:100D4000060100F020601010E00506060600001005
:100D5000305090F810040606060100F080E01010F4
:100D6000E00406060601006080E09090600406063C
:100D7000060100F010102040400406060601006045
:100D800090609090600406060601006090907010DC
:100D900060020505060200C0C000C0C002070706C9
:100DA00002FEC0C000C040408005050506000018D6
:100DB00060806018050303060001F800F8050505CA
:100DC000060000C0300830C004070706010060902C
:100DD00010604000400506060600007090A8B08034
:100DE00070050606060000205088F888880506066B
:100DF000060000F088F08888F0040606060100600E
:100E00009080809060040606060100E0909090902B
:100E1000E0040606060100F080E08080F00406068B
:100E2000060100F080E08080800406060601006074
:100E30009080B090600406060601009090F09090BB
:100E400090030606060100E040404040E00506062B
:100E5000060000381010109060040606060100908D
:100E6000A0C0A090900406060601008080808080CB
:100E7000F005060606000088D8A8A888880406069B
:100E800006010090D0B09090900506060600007014
:100E90008888888870040606060100E09090E0804B
:100EA000800407070601FF609090D0B06010040630
:100EB00006060100E09090E090900406060601000E
:100EC000609040209060050606060000F820202073
:100ED0002020040606060100909090909060040681
:100EE00006060100909090F060600506060600007E
:100EF0008888A8A8D8880506060600008850202003
:100F00005088050606060000888850202020040628
:100F100006060100F010204080F0030606060100DE
:100F2000E080808080E0040606060100808040208A
:100F30001010030606060100E020202020E0050333
:100F4000030600032050880501010600FEF8020296
:100F500002060204804004040406010070909070B0
:100F60000406060601008080E09090E00404040678
:100F70000100708080700406060601001010709059
:100F8000907004040406010060B0C07004060606F8
:100F90000100205040E040400406060601FE60903B
:100FA000907010600406060601008080E09090902A
:100FB0000306060601004000C04040E003080806A2
:100FC00001FE200060202020A0400406060601004B
:100FD0008080A0C0A090030606060100C0404040EB
:100FE00040E0050404060000D0A8A8880404040614
:100FF0000100E0909090040404060100609090606D
:101000000406060601FEE09090E0808004060606D5
:1010100001FE709090701010040404060100A0D02E
:10102000808004040406010070C030E00406060657
:1010300001004040E040502004040406010090906C
:10104000907004040406010090906060050404069A
:10105000000088A8A8500404040601009060609075
:101060000406060601FE9090907090600404040649
:101070000100F02040F003070706010020404080F7
:101080004040200107070602FF808080808080802A
:101090000307070601008040402040408004020210
:1010A00006010350A0FFFFFFFFFFFFFFFFFFFFFF51
:1010B000FFFFFFFFFFFFFFFFFFFFFFFFFFFFFFFF40
:1010C000FFFFFFFFFFFF0000000600070106060606
:1010D00002008000808080800406060601FF2070E8
:1010E000A0A070200507070600FF304840F04040F0
:1010F000F8050505060000A8508850A80506060654
:1011000000008850F820F8200107070602FF8080C1
:1011100080008080800407070601FF708060906077
:1011200010E0030101060105A0060707060000788C
:101130008494A494847803050506010160A06000EE
:10114000E00505050600002850A05028040303060A
:101150000100F01010040101060102F00607070665
:1011600000007884B4A4A48478040101060105F089
:101170000403030601026090600507070600FF20D4
:1011800020F8202000F803050506010140A02040BA
:10119000E0030505060101C0204020C0020202064E
:1011A000020440800405050601FF9090B0D0800540
:1011B000060606000078E8E8682828010101060212
:1011C00002800202020602FE4080030505060101BC
:1011D00040C04040E003050506010140A04000E09A
:1011E000050505060000A0502850A00508080600C7
:1011F000FF40C04050703078100508080600FF40DE
:10120000C04050680810380508080600FFC020409C
:1012100030F03078100407070601002000206080BD
:101220009060050707060000402020507088880560
:101230000707060000102020507088880507070661
:1012400000002050205070888805070706000028FD
:101250005020507088880507070600005000205075
:101260007088880507070600002050205070888885
:1012700005060606000078A0F0A0A0B8040808063D
:1012800001FE609080809060204004070706010006
:101290004020F080E080F00407070601002040F0C5
:1012A00080E080F00407070601002050F080E08015
:1012B000F00407070601005000F080E080F003070B
:1012C000070601008040E0404040E00307070601B8
:1012D000002040E0404040E003070706010040A036
:1012E000E0404040E0030707060100A000E0404066
:1012F00040E00506060600007048E848487004070C
:101300000706010050A090D0B09090040707060196
:101310000040206090909060040707060100204084
:101320006090909060040707060100205060909044
:10133000906004070706010050A060909090600440
:1013400007070601005000609090906005050506B3
:10135000000088502050880408080601FF1070B073
:10136000B0D0D0E0800407070601004020909090A4
:101370009060040707060100204090909090600460
:101380000707060100205090909090600407070620
:101390000100500090909090600507070600001033
:1013A00020885020202004060606010080E090904E
:1013B000E0800406060601006090A0A090A004074B
:1013C0000706010040200070909070040707060196
:1013D0000020400070909070040707060100205024
:1013E000007090907004070706010050A0007090F4
:1013F000907004060606010050007090907004077B
:10140000070601002050207090907005040406002B
:101410000070A8B0780406060601FE708080702077
:101420004004070706010040200060B0C0700407B8
:101430000706010020400060B0C0700407070601E5
:101440000020500060B0C070040606060100500085
:1014500060B0C070030707060100804000C0404034
:10146000E0030707060100204000C04040E00307FA
:101470000706010040A000C04040E0030606060148
:1014800000A000C04040E0040707060100306010E3
:101490007090906004070706010050A000E0909053
:1014A0009004070706010040200060909060040748
:1014B00007060100204000609090600407070601C5
:1014C000002050006090906004070706010050A0C3
:1014D0000060909060040606060100500060909045
:1014E000600505050600002000F80020040404063D
:1014F000010070B0D0E00407070601004020009012
:1015000090907004070706010020400090909070B2
:101510000407070601002050009090907004060612
:101520000601005000909090700409090601FE2009
:1015300040009090907090600408080601FE808042
:10154000E09090E080800408080601FE5000909032
:101550009070906000060900FE070199032B20FFA0
:10156000FE08FE07FE000000060000010707060255
:101570000080808080800080030303060104A0A017
:10158000A00507070600005050F850F85050050716
:10159000070600002070A0702870200507070600CD
:1015A0000048A8502050A89005070706000040A05A
:1015B000A040A8906801030306020480808003070E
:1015C00007060100204080808040200307070601B5
:1015D000008040202020408005050506000188503D
:1015E000F850880505050600012020F82020030397
:1015F000030601FF604080050101060003F80303B4
:10160000030601FF40E04005070706000008081038
:1016100020408080050707060000205088888850F9
:10162000200507070600002060A0202020F80507FD
:1016300007060000708808304080F805070706009C
:1016400000F8081030088870050707060000103001
:101650005090F81010050707060000F880B0C80881
:101660008870050707060000304080B0C888700504
:101670000707060000F8081010204040050707067D
:101680000000708888708888700507070600007061
:101690008898680810600307070601FF40E04000D3
:1016A00040E0400307070601FF40E0400060408043
:1016B00004070706010010204080402010050303A6
:1016C000060002F800F80407070601008040201019
:1016D00020408005070706000070881020200020A9
:1016E000050707060000708898A8B08070050707F6
:1016F00006000020508888F8888805070706000043
:10170000F04848704848F0050707060000708880D8
:1017100080808870050707060000F0484848484860
:10172000F0050707060000F88080F08080F80507C4
:1017300007060000F88080F080808005070706001B
:1017400000708880809888700507070600008888E8
:1017500088F8888888030707060100E04040404079
:1017600040E00507070600003810101010906005D3
:1017700007070600008890A0C0A09088050707060C
:101780000000808080808080F805070706000088C0
:1017900088D8A88888880507070600008888C8A810
:1017A00098888805070706000070888888888870F0
:1017B000050707060000F08888F08080800508088B
:1017C0000600FF7088888888A8700805070706004B
:1017D00000F08888F0A09088050707060000708850
:1017E0008070088870050707060000F82020202078
:1017F00020200507070600008888888888887005EB
:101800000707060000888888505050200507070603
:101810000000888888A8A8D88805070706000088DF
:1018200088502050888805070706000088885020C7
:10183000202020050707060000F80810204080F847
:10184000030707060100E08080808080E00507072D
:1018500006000080804020100808030707060100EA
:10186000E02020202020E00503030600042050880B
:101870000501010600FFF80202020602068040058B
:10188000050506000070087888780507070600003F
:101890008080B0C888C8B005050506000070888043
:1018A000887005070706000008086898889868058A
:1018B00005050600007088F880700507070600001F
:1018C000304840F04040400507070600FE78888811
:1018D000780888700507070600008080B0C88888EF
:1018E000880307070601004000C0404040E00409AB
:1018F000090601FE100030101010909060050707D7
:1019000006000080808890E09088030707060100A9
:10191000C04040404040E0050505060000D0A8A8B2
:10192000A888050505060000B0C888888805050553
:1019300006000070888888700507070600FEB0C89A
:1019400088C8B080800507070600FE6898889868F8
:101950000808050505060000B0C88080800505055B
:1019600006000070807008F0050707060000404080
:10197000F0404048300505050600008888889868D2
:10198000050505060000888850502005050506005D
:10199000008888A8A850050505060000885020503A
:1019A000880507070600FE8888986808887005057E
:1019B00005060000F8102040F80407070601003073
:1019C0004020C02040300107070602008080808050
:1019D000808080040707060100C02040304020C0FE
:1019E00005030306000448A8900000000100000061
:1019F00000000100000000000100000000000100E4
:101A000000000000010000000000010000000000D4
:101A100001000000000001000000000001000000C3
:101A200000000100000000000100000000000100B3
:101A300000000000010000000000010000000000A4
:101A40000100000000000100000000000100000093
:101A50000000010000000000010000000000010083
:101A60000000000001000000000001000000000074
:101A70000100000000000100000000000100000063
:101A80000000010000000000010000000000010053
:101A90000000000001000000000001000000000044
:101AA0000100000000000100000000000100000033
:101AB0000000060000010707060200800080808009
:101AC00080800507070600FF2078A0A0A0782005E9
:101AD0000707060000304840E04048B0050505060D
:101AE000000088705070880508080600FF8888503C
:101AF00020F8202020010707060200808080008057
:101B000080800508080600FF7080E0904838087063
:101B1000030101060107A00507070600007088A859
:101B2000C8A888700406060601017090B05000F045
:101B30000605050600002448904824040202060118
:101B400002F010040101060103F00507070600007A
:101B50007088E8C8C88870050101060007F803030B
:101B60000306010440A0400506060600002020F8F8
:101B70002020F804050506010360902040F00405CC
:101B800005060103E0106010E002020206020640B2
:101B9000800506060600FF888888C8B0800507070C
:101BA00006000078E8E868282828010101060203F9
:101BB000800202020602FE40800305050601034082
:101BC000C04040E00406060601016090906000F00D
:101BD00006050506000090482448900609090600FD
:101BE000FF40C04040E40C143C040609090600FF15
:101BF00040C04040E81404081C0509090600FFC065
:101C0000204020C818287808050707060000200093
:101C10002020408870050808060000402070888851
:101C2000F888880508080600001020708888F88861
:101C3000880508080600002050708888F888880504
:101C4000080806000048B0708888F88888050808E9
:101C50000600005000708888F8888805080806008B
:101C6000002050708888F888880607070600003C26
:101C700050909CF0909C0509090600FE70888080B9
:101C8000808870204005080806000040F88080F039
:101C90008080F805080806000010F88080F0808039
:101CA000F805080806000020F88080F08080F8051C
:101CB000080806000050F88080F08080F8030808CB
:101CC0000601008040E040404040E0030808060173
:101CD000002040E040404040E0030808060100408A
:101CE000A0E040404040E0030808060100A000E0FA
:101CF00040404040E0050707060000F04848E8483B
:101D000048F0050808060000285088C8A898888868
:101D1000050808060000402070888888887005083B
:101D2000080600001020708888888870050808065A
:101D30000000205070888888887005080806000018
:101D400028507088888888700508080600005000B0
:101D50007088888888700505050600008850205026
:101D600088050707060000709898A8C8C87005087D
:101D700008060000402088888888887005080806C2
:101D800000001020888888888870050808060000F0
:101D900020500088888888700508080600005000D8
:101DA00088888888887005080806000010208888C0
:101DB0005020202005070706000080F088F0808072
:101DC00080050707060000708890A09088B005087D
:101DD000080600004020007008788878050808068A
:101DE00000001020007008788878050808060000B8
:101DF00020500070087888780508080600002850F0
:101E00000070087888780507070600005000700801
:101E10007888780508080600002050207008788827
:101E20007806050506000078147C907C05070706F7
:101E300000FE708880887020400508080600004079
:101E400020007088F8807005080806000010200047
:101E50007088F8807005080806000020500070881F
:101E6000F8807005070706000050007088F8807041
:101E7000030808060100804000C0404040E003081D
:101E800008060100408000C0404040E0030808060A
:101E9000010040A000C0404040E0060A0A0600FEE3
:101EA000A4A800FC8480808084FC060A0A0600FE48
:101EB000549400FC8404040484FC05080806000013
:101EC000285000B0C888888805080806000040200F
:101ED000007088888870040A0A0602FE30408090EC
:101EE000909090909090040A0A0600FEC0201090F6
:101EF000909090909090060707060001448C8C8487
:101F000080403C06070706000188C4C4840408F02A
:101F10000505050600012000F80020050808060058
:101F20000040F0C88888987810050808060000E08E
:101F3000F88888888888F80505050600012030F8AB
:101F400030200508080600002070F820202020E03E
:101F50000509090600FF2070A8A8B8888850200548
:101F600009090600FFE080C0B0A8A83028280509AC
:101F7000090600FFF8A88888888888A8F8050A0A52
:101F80000600FE205050505088A8A88870457272F4
:101F90006F723A006563686F3A00504152414441A4
:101FA000005072696E7465722073746F707065642E
:101FB0002064756520746F206572726F72732E20B5
:101FC00046697820746865206572726F7220616E50
:101FD0006420757365204D39393920746F2072651E
:101FE00073746172742E202854656D70657261740B
:101FF0007572652069732072657365742E20536550
:1020000074206974206166746572207265737461EE
:102010007274696E67290050415241444120444521
:1020200020454D4552472E005072696E74657220EE
:1020300068616C7465642E206B696C6C2829206360
:10204000616C6C656421006F6B00526573656E6432
:102050003A20002200556E6B6E6F776E20636F6DB5
:102060006D616E643A20220043616D626961722085
:1020700066696C616D656E746F004F66667365743A
:10208000205A203A20007A5F6D61783A20007A5F0A
:102090006D696E3A20004F6666736574205A004F72
:1020A0006666736574205A206F6B006C63642063EE
:1020B0006F6E74726173742076616C75653A20007E
:1020C0002200556E6B6E6F776E20636F6D6D616E63
:1020D000643A2022007A5F6D696E3A2000795F6D64
:1020E000696E3A2000785F6D696E3A2000205A3A96
:1020F0000020593A0020436F756E7420583A200032
:1021000020453A00205A3A0020593A00583A0046F1
:1021100049524D574152455F4E414D453A4D6172CE
:102120006C696E2056313B20537072696E74657213
:102130002F6772626C206D617368757020666F72B4
:102140002067656E36204649524D574152455F55CE
:10215000524C3A68747470733A2F2F6769746875BB
:10216000622E636F6D2F4D6F65627975732F50729C
:1021700075736149332050524F544F434F4C5F5653
:10218000455253494F4E3A312E30204D4143484934
:102190004E455F545950453A50727573612069330A
:1021A000204D4D2D4C2045585452554445525F43C7
:1021B0004F554E543A3120555549443A303030301D
:1021C000303030302D303030302D303030302D3018
:1021D0003030302D30303030303030303030303002
:1021E0000A005072757361206933204D4D2D4C20CB
:1021F0004F66662E005072757361206933204D4D15
:102200002D4C206C697374612E0042656420646FEC
:102210006E652E0020423A0020453A00543A0042B2
:1022200065642048656174696E672E004865617455
:10223000696E6720646F6E652E0020573A00204556
:102240003A00543A0048656174696E672E2E2E007C
:102250002042403A0020403A00202F003A0020540B
:1022600000202F0020423A00202F006F6B20543AAC
:10227000002569206D696E2C202569207365630037
:10228000456E642066696C65206C697374004265F4
:1022900067696E2066696C65206C697374005369A8
:1022A0006E206D6F76696D69656E746F0050727522
:1022B0007361206933204D4D2D4C206C697374611E
:1022C0002E00526573756D69656E646F20696D705F
:1022D00072652E004573706572616E646F206F7257
:1022E00064656E6573005265706F736F2E2E2E00DD
:1022F000FFFFFF00009B4300004D4300004D4300E3
:1023000000000000000000000000000000000000CD
:102310000000000000000000009B4300004D43004F
:10232000004D4300000040000000400000C03F2579
:102330006920686F757273202569206D696E7574E8
:10234000657300446F6E65207072696E74696E67A4
:102350002066696C650050415241444100507269E9
:102360006E7465722073746F707065642064756537
:1023700020746F206572726F72732E204669782008
:10238000746865206572726F7220616E6420757367
:1023900065204D39393920746F207265737461720C
:1023A000742E202854656D70657261747572652095
:1023B00069732072657365742E2053657420697487
:1023C0002061667465722072657374617274696EDF
:1023D0006729004E6F204C696E65204E756D6265F1
:1023E00072207769746820636865636B73756D2C00
:1023F000204C617374204C696E653A20004E6F204A
:10240000436865636B73756D2077697468206C69C8
:102410006E65206E756D6265722C204C6173742040
:102420004C696E653A2000636865636B73756D2057
:102430006D69736D617463682C204C617374204CFA
:10244000696E653A20004C696E65204E756D626557
:1024500072206973206E6F74204C617374204C6914
:102460006E65204E756D6265722B312C204C617348
:1024700074204C696E653A20004D31313000446F54
:102480006E6520736176696E672066696C652E00E3
:102490006F6B004D3239002020506C616E6E65729A
:1024A00042756666657242797465733A200020460B
:1024B000726565204D656D6F72793A20004D6179C6
:1024C000203131203230313500436F6D70696C65D9
:1024D000643A2000284D6F6562797573204D616301
:1024E00068696E65732C206D6F6562797573406DD8
:1024F0006F65627975732E636F6D2900207C2041B2
:102500007574686F723A20004D6179203131203244
:102510003031352031393A32333A313200204C6192
:10252000737420557064617465643A2000312E30F4
:102530002E30004D61726C696E0020536F667477A7
:102540006172652052657365740020576174636819
:10255000646F67205265736574002042726F776EF6
:10256000206F75742052657365740020457874651A
:10257000726E616C20526573657400506F7765727E
:102580005570007374617274002200656E71756518
:10259000696E672022002200656E717565696E673D
:1025A00020220020746F6F206C6F6E672065787436
:1025B000727573696F6E2070726576656E7465648E
:1025C0000020636F6C6420657874727573696F6E38
:1025D0002070726576656E7465640048617264632C
:1025E0006F6465642044656661756C74205365741E
:1025F00074696E6773204C6F616465640053746F17
:102600007265642073657474696E67732072657493
:102610007269657665640046696C616D656E7420EB
:1026200073657474696E67733A2044697361626C90
:102630006564002020204D32303020440046696C13
:10264000616D656E742073657474696E67733A00AA
:102650002020204D3230392053004175746F2D52A7
:102660006574726163743A20533D3020746F206446
:10267000697361626C652C203120746F20696E74FF
:1026800065727072657420657874727564652D6FFB
:102690006E6C79206D6F766573206173207265743E
:1026A0007261637473206F72207265636F766572F6
:1026B000696573002046002020204D3230382053B9
:1026C000005265636F7665723A20533D45787472A7
:1026D00061206C656E67746820286D6D2920463A0C
:1026E000537065656420286D6D2F6D2900205A0098
:1026F0002046002020204D32303720530052657490
:10270000726163743A20533D4C656E67746820288B
:102710006D6D2920463A537065656420286D6D2FD4
:102720006D29205A3A205A4C69667420286D6D290B
:10273000002044002049002020204D33303120501B
:10274000005049442073657474696E67733A0020C1
:102750005A0020590020204D323036205800486F52
:102760006D65206F666673657420286D6D293A006B
:10277000204500205A00205800204200205400200C
:10278000204D323035205300416476616E636564BC
:10279000207661726961626C65733A20533D4D69C0
:1027A0006E20666565647261746520286D6D2F7397
:1027B000292C20543D4D696E2074726176656C2021
:1027C000666565647261746520286D6D2F73292CB0
:1027D00020423D6D696E696D756D207365676D652D
:1027E0006E742074696D6520286D73292C20583D06
:1027F0006D6178696D756D205859206A65726B201E
:10280000286D6D2F73292C20205A3D6D6178696DDC
:10281000756D205A206A65726B20286D6D2F7329A3
:102820002C2020453D6D6178696D756D2045206ACD
:1028300065726B20286D6D2F7329002054002020B5
:102840004D323034205300416363656C65726174AE
:10285000696F6E3A20533D616363656C65726174A4
:10286000696F6E2C20543D726574726163742061CF
:102870006363656C65726174696F6E00204500204A
:102880005A0020590020204D3230312058004D612F
:1028900078696D756D20416363656C6572617469FB
:1028A0006F6E20286D6D2F7332293A00204500206D
:1028B0005A0020590020204D3230332058004D61FD
:1028C00078696D756D2066656564726174657320E5
:1028D000286D6D2F73293A00204500205A00205999
:1028E0000020204D393220580053746570732070D9
:1028F000657220756E69743A0053657474696E6709
:10290000732053746F726564004572723A204D41B2
:102910005854454D50204245440054656D706572D1
:1029200061747572652068656174656420626564B0
:10293000207377697463686564206F66662E204D26
:10294000415854454D5020747269676765726564DB
:10295000202121004572723A204D494E54454D5078
:10296000003A2045787472756465722073776974D3
:1029700063686564206F66662E204D494E54454D50
:102980005020747269676765726564202100457222
:10299000723A204D415854454D50003A20457874C4
:1029A0007275646572207377697463686564206FFB
:1029B00066662E204D415854454D5020747269670B
:1029C0006765726564202100202D20496E76616C58
:1029D0006964206578747275646572206E756D62C5
:1029E00065722021001000C90210012C0140012253
:1029F0000170011801B0010E01F00104015002FA4A
:102A000000B002F0003003E600D003DC009004D2F6
:102A1000007005C800A006BE000008B400B009AAF6
:102A200000D00BA000600E960060118C0000158293
:102A30000020197800C01D6E00A0226400B0275A43
:102A400000902C500000314600E0343C0010383239
:102A500000903A2800603C1E00A03D1400803E0A11
:102A600000203F000070012C0190012701B00122DD
:102A700001C0011D01F00118011002130130020E06
:102A8000016002090190020401C002FF000003FA84
:102A9000004003F5008003F000D003EB002004E6C3
:102AA000007004E100E004DC004005D700C005D25E
:102AB000004006CD00D006C8008007C3003008BE25
:102AC00000F008B900C009B400B00AAF00B00BAA0A
:102AD00000D00CA500000EA000500F9B00C0109667
:102AE000005012910000148C00C0158700B01782AE
:102AF00000B0197D00D01B7800001E730040206ECE
:102B00000090226900F024640040275F0090295A59
:102B100000E02B5500102E500020304B00103246A4
:102B200000E033410090353C0010373700703832F8
:102B300000A0392D00B03A2800A03B2300603C1EC5
:102B400000103D1900903D1400103E0F00703E0A29
:102B500000C03E0500003F0000504944204175740C
:102B60006F74756E652066696E697368656421208F
:102B700050757420746865206C617374204B702CE0
:102B8000204B6920616E64204B6420636F6E737408
:102B9000616E74732066726F6D2061626F7665205E
:102BA000696E746F20436F6E6669677572617469D0
:102BB0006F6E2E6800504944204175746F74756EB5
:102BC00065206661696C6564212074696D656F7547
:102BD000740020403A006F6B20543A006F6B204223
:102BE0003A00504944204175746F74756E652066D3
:102BF00061696C6564212054656D706572617475DE
:102C0000726520746F6F206869676800204B643AB2
:102C10002000204B693A2000204B703A20002043CE
:102C20006C61737369632050494420002054753AE5
:102C30002000204B753A2000206D61783A2000205A
:102C40006D696E3A200020643A2000206269617349
:102C50003A200045303A20005A3A2000593A2000E4
:102C6000583A20004D53312C4D53322050696E7329
:102C70000A0024F404D9201BC40C5C0E9804C40977
:102C80005F0265077101F405F900FB04B300480415
:102C90008700C10369005803550003034500BE02C5
:102CA0003A008402310053022A002902250004025E
:102CB0002000E4011C00C8011900AF0117009801B1
:102CC0001400840113007101100061011000510112
:102CD0000E0043010D0036010B002B010B002001FB
:102CE0000B00150109000C01090003010800FB009D
:102CF0000800F3000800EB000700E4000600DE0017
:102D00000600D8000600D2000600CC000500C7006F
:102D10000500C2000500BD000400B9000400B500B4
:102D20000400B1000400AD000400A9000400A500E7
:102D30000300A20003009F0004009B000300980012
:102D400003009500020093000300900003008D0033
:102D500002008B000300880002008600020084004D
:102D60000300810002007F0002007D0002007B0062
:102D70000200790002007700010076000200740072
:102D8000020072000100710002006F0002006D007D
:102D900001006C0002006A00010069000200670087
:102DA000010066000100650001006400020062008D
:102DB000010061000100600001005F0002005D0091
:102DC00001005C0001005B0001005A000100590095
:102DD0000100580001005700010056000100550095
:102DE0000100540001005300000053000100520094
:102DF000010051000100500001004F0001004E0091
:102E000000004E0001004D0001004C0001004B008D
:102E100000004B0001004A00010049000100480089
:102E20000000480001004700010046000000460085
:102E3000010045000000450001004400010043007E
:102E40000000430001004200000042000100410078
:102E5000000041000100400001003F0000003F0071
:102E600001003E0000003E0001003D0000003D006A
:102E700001003C0000003C0000003C0001003B0061
:102E800000003B0001003A0000003A000100390058
:102E90000000390001003800000038000000380050
:102EA0000100370000003700010036000000360046
:102EB000000036000100350000003500000035003C
:102EC0000100340000003400000034000100330031
:102ED0000000330000003300010032000000320027
:102EE000000032000100310000003100000031001C
:102EF00001003000000030000000300001002F0011
:102F000000002F0000002F0000002F0001002E0005
:102F100000002E0000002E0001002D0000002D00FA
:102F200000002D0000002D0001002C0000002C00EE
:102F300000002C0000002C0001002B0000002B00E2
:102F400000002B0000002B0001002A0000002A00D6
:102F500000002A0000002A000100290000002900CA
:102F600000002900000029000000290001002800BD
:102F700000002800000028000000280000002800B1
:102F800001002700000027000000270000002700A4
:102F90000000270001002600000026000000260097
:102FA000000026000000260001002500000025008A
:102FB000000025000000250000002500000025007D
:102FC0000100240000002400000024000000240070
:102FD0000000240001002300000023000000230063
:102FE0000000230000002300000023000000230055
:102FF0000100220000002200000022000000220048
:103000000000220000002200010021000000210039
:10301000000021000000210000002100000021002C
:10302000000021000100200000002000000020001E
:103030000000200000002000000020000000200010
:103040000000200001001F0000001F0000001F0002
:1030500000001F0000001F0000001F0000001F00F4
:1030600001001E0000001E0000001E0000001E00E7
:10307000000024F4D43050C38E20C2A24017828BAB
:103080007011127A910D816CD90AA861E108C758B4
:103090006607615143061E4B5D05C145A7041A41F1
:1030A0001104093D9803713931034036DB02653361
:1030B0009102D4305402802E1D02632CEE01752A39
:1030C000C501B028A001102781018F2564012B24A0
:1030D0004B01E0223401AC211F018D200D01801F26
:1030E000FC00841EED00971DDF00B81CD200E61B1B
:1030F000C600201BBC00641AB200B219A8000A194D
:10310000A0006A189900D117910040178B00B516DE
:10311000840031167E00B31579003A157300C71488
:103120006F0058146A00EE136600881363002513BD
:103130005E00C7125B006C12570015125400C111DB
:10314000510070114F0021114B00D61049008D1015
:1031500047004610440002104200C00F4000800F9C
:103160003E00420F3C00060F3B00CB0E3800930E92
:1031700037005C0E3500270E3400F30D3200C10D10
:103180003100900D3000600D2E00320D2D00050D28
:103190002C00D90C2B00AE0C2900850C29005C0CEE
:1031A0002700350C27000E0C2600E80B2400C40B6A
:1031B0002400A00B23007D0B23005A0B2100390BA8
:1031C0002100180B2000F80A1F00D90A1E00BB0AB4
:1031D0001E009D0A1D00800A1D00630A1C00470A8C
:1031E0001B002C0A1B00110A1A00F7091A00DD093E
:1031F0001900C4091900AB091900920917007B09CD
:103200001800630917004C0916003609160020093A
:1032100016000A091500F5081500E0081400CC088E
:103220001400B8081400A4081400900813007D08C6
:1032300012006B08130058081200460812003408E8
:103240001100230811001208110001081100F007F5
:103250001000E0071000D0071000C0071000B007F2
:103260000F00A107100091070E0083070F007407DD
:103270000F0065070E0057070E0049070E003B07B9
:103280000D002E070E0020070D0013070D00060786
:103290000D00F9060C00ED060D00E0060C00D4064A
:1032A0000C00C8060C00BC060C00B0060C00A406FE
:1032B0000B0099060C008D060B0082060B007706AA
:1032C0000B006C060B0061060A0057060B004C064B
:1032D0000A0042060A0038060A002E060A002406E2
:1032E0000A001A060A001006090007060A00FD0572
:1032F0000900F4050900EB050900E2050900D905FC
:103300000900D0050900C7050900BE050900B5057B
:103310000800AD050800A50509009C0508009405F6
:1033200008008C050800840508007C050800740569
:1033300008006C050700650508005D0507005605D7
:1033400008004E050700470507004005080038053E
:103350000700310507002A050700230507001C05A3
:103360000600160507000F05070008050600020500
:103370000700FB040600F5040700EE040600E8045D
:103380000600E2040700DB040600D5040600CF04B3
:103390000600C9040600C3040600BD040600B70405
:1033A0000600B1040500AC040600A6040600A00453
:1033B00005009B04060095040500900406008A049D
:1033C000050085040500800406007A0405007504E4
:1033D0000500700405006B04050066040500610427
:1033E00005005C04050057040500520405004D0467
:1033F000050048040500430405003E0404003A04A7
:10340000050035040500300404002C0405002704E1
:103410000400230405001E0404001A04040016041A
:103420000500110404000D0404000904050004044F
:10343000040000040400FC030400F8030400F40387
:103440000400F0030400EC030400E8030400E403B8
:103450000400E0030400DC030400D8030400D403E8
:103460000400D0030400CC030400C8030300C50318
:103470000300656E6473746F7073206869743A201A
:103480005A00205A3A00656E6473746F7073206836
:1034900069743A20590020593A00656E6473746F5C
:1034A0007073206869743A20580020583A00656E9D
:1034B0006473746F7073206869743A20004D3834F7
:1034C00020582059205A20450043616E6E6F7420A9
:1034D000656E746572207375626469723A20004D7E
:1034E0003234004D3233202573006175746F2569C5
:1034F0002E67006572726F722077726974696E67E9
:1035000020746F2066696C65004E6F7420534420F0
:103510007072696E74696E67002F00534420707278
:10352000696E74696E67206279746520002E0044AC
:10353000656C6574696F6E206661696C65642C20CA
:1035400046696C653A200046696C652064656C6567
:103550007465643A002E006F70656E206661696C58
:1035600065642C2046696C653A200057726974695D
:103570006E6720746F2066696C653A20002E006FBC
:1035800070656E206661696C65642C2046696C65A7
:103590003A20002E006F70656E206661696C65646C
:1035A0002C2046696C653A200046696C652073657D
:1035B0006C6563746564002053697A653A2000463F
:1035C000696C65206F70656E65643A20002E006F2F
:1035D00070656E206661696C65642C2046696C6557
:1035E0003A20004E6F772066726573682066696CBA
:1035F000653A20004E6F7720646F696E67206669B8
:103600006C653A20002220706F7300222070617276
:10361000656E743A2200535542524F5554494E45F7
:103620002043414C4C207461726765743A220074E7
:103630007279696E6720746F2063616C6C2073759A
:10364000622D67636F64652066696C6573207769B6
:10365000746820746F6F206D616E79206C6576657B
:103660006C732E204D4158206C6576656C20697313
:103670003A0053442063617264206F6B006F706581
:103680006E526F6F74206661696C656400766F6C52
:10369000756D652E696E6974206661696C6564007C
:1036A000534420696E6974206661696C007C3C3EFD
:1036B0005E2B3D3F2F5B5D3B2C2A225C0001050801
:1036C00000FF060121023520FFFF07FF06FF09006A
:1036D00050221656808080800080153353A0A0A011
:1036E0000257575050F850F850500257572070A0CA
:1036F0007028702013355580A040A0200247574005
:10370000A0A040A0A05025135380808012265640D0
:103710008080808040122656804040404080024594
:10372000559060F060900255552020F8202011330C
:1037300053604080044151F011335340E040024651
:103740005610102040808012365640A0A0A0A04005
:1037500012365640C0404040E0024656609010602D
:1037600080F0024656F020601090600246562060BD
:10377000A0F02020024656F080E0109060024656ED
:103780006080E0909060024656F010202040400299
:10379000465660906090906002465660909070101F
:1037A00060122555C0C000C0C01136566060006070
:1037B0004080123656204080804020034353F00062
:1037C000F012365680402020408012365640A0200D
:1037D000400040015858304898A8A8904030024610
:1037E00056609090F09090024656E090E09090E005
:1037F000024656609080809060024656E09090901D
:1038000090E0024656F080E08080F0024656F0805C
:10381000E0808080024656609080B09060024656FC
:103820009090F0909090123656E040404040E00278
:10383000465670202020A04002465690A0C0A0A06E
:10384000900246568080808080F002465690F0F0CC
:1038500090909002465690D0F0B0B09002465660DC
:103860009090909060024656E09090E080800147F2
:1038700057609090D0B06010024656E09090E09073
:1038800090024656609040209060123656E04040CC
:10389000404040024656909090909060024656906C
:1038A0009090906060024656909090F0F0900246A2
:1038B0005690906060909002565688885020202044
:1038C000024656F010204080F0123656E08080808C
:1038D00080E0024656808040201010123656E020CC
:1038E000202020E016325240A0014151F016225211
:1038F0008040024454709090700246568080E09060
:1039000090E012345460808060024656101070902F
:10391000907002445460B0C060024656205040E0AF
:10392000404001455560907010600246568080E02E
:103930009090901236564000C04040E0113757201A
:1039400000202020A040024656808090E0909012F7
:103950003656C040404040E0025454D0A8A8A802C7
:103960004454E0909090024454609090600145551A
:10397000E090E08080014555709070101002445432
:10398000A0D0808012345460C020C002465640400F
:10399000E040502002445490909070123454A0A003
:1039A000A04002545488A8A85002445490606090EB
:1039B0000145559090709060024454F02040F00210
:1039C0004757304020C020403022165680808080EB
:1039D0008080024757C02040304020C006425250ED
:1039E000A0FFFFFFFFFFFFFFFFFFFFFFFFFFFFFF46
:1039F000FFFFFFFFFFFFFFFFFFFFFFFFFFFFFFFFD7
:103A0000FFFF09005022165680008080808001460A
:103A1000562070A0A070200246562050E04050A0D2
:103A200002555588705070880256568850F820F814
:103A30002022175780808000808080024757708046
:103A4000E0907010E0173151A002565670A8C8C817
:103A5000A87014355560A06000E003435350A05097
:103A6000123353E02020143151E002565670E8D84A
:103A7000E8D870173151E015335340A04012355546
:103A800040E04000E014355540A02040E01435559A
:103A9000C020C020C0162252408001455590909011
:103AA000E08002565678E8E86828282411518011F1
:103AB0002252408014355540C04040E014355540F6
:103AC000A04000E0034353A050A0024757808080ED
:103AD000A060F0200247578080A0D01020700247DD
:103AE0005780408060A0F02012365640004080A0F1
:103AF0004002475740206090F09090024757204086
:103B00006090F0909002475760906090F090900223
:103B1000475750A06090F0909002475790006090F7
:103B2000F0909002475760906090F0909002465657
:103B300070A0A0F0A0B001475760908080906040D6
:103B40000247574020F080E080F00247572040F0C5
:103B500080E080F00247576090F080E080F00247FC
:103B6000579000F080E080F01237578040E04040EE
:103B700040E01237572040E0404040E012375740C5
:103B8000A0E0404040E0123757A000E0404040E055
:103B90000256567048E848487002475750A090D0E7
:103BA000B090900247574020609090906002475735
:103BB0002040609090906002475760906090909095
:103BC0006002475750A06090909060024757900065
:103BD0006090909060123353A040A002465670B09F
:103BE000B0D0D0E0024757402090909090600247BC
:103BF000572040909090906002475760909090902E
:103C00009060024757900090909090600257571034
:103C100020885020202002465680E09090E08002CC
:103C200046566090A0A090A0024757402000709098
:103C300090700247572040007090907002475720C4
:103C400050007090907002475750A0007090907094
:103C50000246565000709090700247576090607016
:103C6000909070025454F068B0781135556080809F
:103C7000604002475740200060B0C06002475720B4
:103C8000400060B0C06002475760900060B0C06004
:103C9000024656500060B0C060123757804000C0E6
:103CA0004040E0123757204000C04040E0123757F4
:103CB00040A000C04040E0123656A000C04040E0A6
:103CC000024757A040A01070906002475750A000D4
:103CD000E09090900247574020006090906002472B
:103CE00057204000609090600247576090006090BD
:103CF000906002475750A000609090600246569036
:103D000000609090601235554000E000400244543D
:103D100070B0D0E00247574020009090907002476A
:103D2000572040009090907002475760900090900C
:103D30009070024656900090909070014858204034
:103D40000090907090600147578080E090E0808004
:103D50000147579000909070906000091200FC0A93
:103D600001E803D720FFFD0EFD0BFD000000090058
:103D70000E010B0B09040080808080808080000091
:103D8000808004040409030790909090080A0A09AF
:103D90000000242424FF2424FF242424070B0B09DF
:103DA00001FF107C929050381412927C10070A0A7E
:103DB00009010042A4A4481010244A4A84070A0AB0
:103DC00009010060909090606294889462010404FC
:103DD00009040780808080030C0C0903FF20404009
:103DE000808080808080404020030C0C0903FF808D
:103DF0004040202020202020404080070707090164
:103E0000031092543854921007070709010110104B
:103E100010FE1010100204040904FEC0C040800708
:103E20000101090104FE020202090400C0C0070AE0
:103E30000A09010002040408101020404080070A0B
:103E40000A09010038448282828282824438070A49
:103E50000A090100103050901010101010FE070ACF
:103E60000A090100384482020408102040FE070AB3
:103E70000A090100FE020408180402028478070AF5
:103E80000A090100040C14244484FE040404070AF3
:103E90000A090100FE808080F80402028478070A83
:103EA0000A0901003C408080B8C482824438070A75
:103EB0000A090100FE020404080810101010070A85
:103EC0000A09010038448244384482824438070A8F
:103ED0000A09010038448282463A02020478020745
:103EE00007090400C0C0000000C0C002090909049D
:103EF000FEC0C0000000C0C04080050909090200E2
:103F0000081020408040201008070404090102FE28
:103F10000000FE0509090902008040201008102059
:103F20004080070A0A090100384482020408101080
:103F30000010070A0A09010038449AAAAAAAAA9CF2
:103F4000403C070A0A09010010282828447C4482C2
:103F50008282070A0A090100F8848284F884828236
:103F600084F8070A0A0901003C4280808080808032
:103F7000423C070A0A090100F88482828282828216
:103F800084F8070A0A090100FE808080F88080809A
:103F900080FE070A0A090100FE808080F880808088
:103FA0008080070A0A09010038448280808E82825C
:103FB0004438070A0A09010082828282FE828282D4
:103FC0008282050A0A090200F820202020202020F1
:103FD00020F8070A0A0901003E08080808080888AE
:103FE0008870070A0A09010082848890A0D088841A
:103FF0008282070A0A090100808080808080808098
:1040000080FE070A0A0901008282C6AA9282828281
:104010008282070A0A0901008282C2A2928A8682EB
:104020008282070A0A0901007C828282828282825D
:10403000827C070A0A090100F884828284F8808061
:104040008080080B0B0901FF384482828282828AB9
:10405000443A01070A0A090100F884828284F89030
:10406000888482070A0A0901007C8280807C02021F
:1040700002827C070A0A090100FE101010101010BD
:10408000101010070A0A090100828282828282824D
:10409000824438070A0A0901008282824444442883
:1040A000282810070A0A09010082828282929292CD
:1040B00092AA44070A0A09010082824428101028A3
:1040C000448282070A0A09010082824428101010E3
:1040D000101010070A0A090100FE0204081020400F
:1040E0008080FE040C0C0903FFF0808080808080BB
:1040F00080808080F0070A0A09010080404020107B
:104100001008040402040C0C0902FFF01010101037
:10411000101010101010F0070404090106102844B4
:10412000820801010900FFFF03030309030A80401D
:10413000200707070901007C02027E82867A070AAF
:104140000A090100808080BCC2828282C2BC07074B
:10415000070901007C82808080827C070A0A0901AD
:10416000000202027A86828282867A0707070901A4
:10417000007C8282FE80827C070A0A0901001C22E0
:10418000222020F820202020070A0A0901FD7A8435
:10419000848478807C82827C070A0A0901008080FE
:1041A00080BCC28282828282050A0A090200600003
:1041B00000E02020202020F8050D0D0902FD180048
:1041C0000038080808080808888870070A0A0901E2
:1041D00000808080848890B0C88482050A0A090221
:1041E00000E02020202020202020F80707070901D8
:1041F00000EC929292929282070707090100BCC2DA
:1042000082828282820707070901007C8282828281
:10421000827C070A0A0901FDB8C4828282C4B88080
:104220008080070A0A0901FD3A46828282463A02E4
:1042300002020707070901009C6242404040400714
:1042400007070901007C82807C02827C070909093A
:1042500001002020FC20202020221C070707090144
:10426000008282828282867A0707070901008282A1
:10427000444428281007070709010082829292927D
:10428000AA4407070709010082442810284482072E
:104290000A0A0901FD4242242424181810906007DC
:1042A0000707090100FE0408102040FE060B0B0959
:1042B00002001C20202020C0202020201C010C0CEB
:1042C0000904FF80808080808080808080808006DC
:1042D0000B0B090100E0101010100C10101010E072
:1042E00007030309010762928CFFFFFFFFFFFFFF37
:1042F000FFFFFFFFFFFFFFFFFFFFFFFFFFFFFFFFCE
:10430000FFFFFFFFFFFFFFFFFFFF00000009000EA0
:10431000010B0B0904008080000080808080808079
:104320008006080809010008789490A0A478400746
:104330000A0A0901001C222020F8202060A25C0744
:104340000606090103827C44447C82070A0A0901AB
:1043500000828244287C107C101010010B0B090491
:10436000FF8080808080008080808080040B0B092B
:1043700002FF609080609090906010906003020255
:1043800009030BA0A00809090900013C4299A5A155
:10439000A599423C050707090103609070907800D9
:1043A000F8070808090101122448909048241206D1
:1043B0000404090102FC040404050101090204F8D3
:1043C0000809090900013C42B9A5BDA9A5423C065E
:1043D0000101090109FC04040409030660909060CE
:1043E000070909090101101010FE10101000FE0449
:1043F00006060901046090106080F00406060901B9
:104400000460902010906003030309030A20408099
:104410000709090901FE8282828282C6BA8080076A
:104420000A0A0901007E8A8A8A7A0A0A0A0A0A02A4
:104430000202090404C0C00403030902FD209060C5
:1044400003060609010440C0404040E00506060995
:1044500001047088887000F8070808090101904875
:10446000241212244890070A0A09010040C0404063
:1044700042E60A121A06070A0A09010040C0404033
:104480004CF2020C101E070A0A090100609020106D
:1044900092660A121A06070A0A0901001000101093
:1044A00020408082827C070E0E0901002010080047
:1044B00010282828447C44828282070E0E090100BD
:1044C0000810200010282828447C44828282070E8D
:1044D0000E0901001028440010282828447C44823A
:1044E0008282070D0D090100345800102828284445
:1044F0007C44828282070D0D0901002828001028C3
:104500002828447C44828282070E0E09010010286C
:10451000281010282828447C44828282070A0A092D
:1045200001001E2828284E784888888E070D0D091E
:1045300001FD3C42808080808080423C0824180736
:104540000E0E09010020100800FE808080F8808097
:104550008080FE070E0E09010008102000FE8080FA
:1045600080F880808080FE070E0E0901001028442C
:1045700000FE808080F880808080FE070D0D09019C
:1045800000282800FE808080F880808080FE050E54
:104590000E09020040201000F820202020202020BA
:1045A00020F8050E0E09020010204000F8202020FF
:1045B0002020202020F8050E0E090200205088003F
:1045C000F82020202020202020F8050D0D090200D1
:1045D000505000F82020202020202020F8070A0A30
:1045E00009010078444242F24242424478070D0DEC
:1045F0000901003458008282C2A2928A8682828295
:10460000070E0E090100201008007C82828282823F
:104610008282827C070E0E090100081020007C8235
:10462000828282828282827C070E0E09010010281B
:1046300044007C82828282828282827C070D0D0904
:1046400001003458007C82828282828282827C07CE
:104650000D0D0901002828007C82828282828282DC
:10466000827C070707090101824428102844820739
:104670000C0C0901FF027C868A8A9292A2A2C27C5B
:1046800080070E0E090100201008008282828282BB
:104690008282824438070E0E090100081020008231
:1046A000828282828282824438070E0E09010010C3
:1046B00028440082828282828282824438070D0DE1
:1046C0000901002828008282828282828282443804
:1046D000070E0E09010008102000828244281010E5
:1046E00010101010070A0A0901008080FC828282E3
:1046F000FC808080060A0A09010038444448D048FA
:1047000044444458070B0B090100201008007C02A8
:10471000027E82867A070B0B090100081020007CBC
:1047200002027E82867A070B0B09010010284400E2
:104730007C02027E82867A070A0A09010034580048
:104740007C02027E82867A070A0A09010028280074
:104750007C02027E82867A070C0C09010010282850
:1047600010007C02027E82867A0707070901006C2E
:1047700012127E90926C070A0A0901FD7C828080E9
:1047800080827C104830070B0B09010020100800C4
:104790007C8282FE80827C070B0B090100081020BE
:1047A000007C8282FE80827C070B0B0901001028AE
:1047B00044007C8282FE80827C070A0A090100286C
:1047C00028007C8282FE80827C050C0C090200801D
:1047D00040200000E02020202020F8050C0C0902D9
:1047E000001020400000E02020202020F8050C0CC4
:1047F0000902002050880000E02020202020F80539
:104800000B0B09020050500000E02020202020F86F
:10481000070B0B090100483050083C448282824457
:1048200038070A0A090100345800BCC28282828219
:1048300082070B0B090100201008007C8282828213
:10484000827C070B0B090100081020007C82828209
:1048500082827C070B0B090100102844007C8282B5
:104860008282827C070A0A0901003458007C828215
:104870008282827C070A0A0901002828007C828241
:104880008282827C07090909010010381000FE00AD
:104890001038100709090901FF027C8A8A92A2A236
:1048A0007C80070B0B09010040201000828282826D
:1048B00082867A070B0B0901000810200082828291
:1048C0008282867A070B0B0901001028440082823D
:1048D000828282867A070A0A0901002828008282D9
:1048E000828282867A070E0E0901FD0408100042BA
:1048F000422424241818109060070B0B0901FE8035
:1049000080B8C4828282C4B88080070D0D0901FD81
:10491000242400424224242418181090600000210E
:1049200000240027002A002D003000330001010080
:1049300000040107010A0100002200250028002BC5
:10494000002E003100340002010000050108010BB7
:1049500001000020002300260029002C002F003237
:104960000000010000030106010901050505050716
:104970000508080808020202020A0A0808040404DA
:104980000401010101010101010303030303030306
:1049900003040707070C0C0C0C0C0C0C0C02020295
:1049A0000206060606060606060B0B0B0B0B0B0B88
:1049B0000B01021020200808102040102040800227
:1049C0000102010804020101020408102040808055
:1049D00040201008040201800402018040201008D9
:1049E00004020108040201010204081020408001B1
:1049F000020408102040800000090A02080B0C0D78
:104A00000706030401000000000000000000000091
:104A10000000000000000000000000000000000096
:104A200000000011100F0000000000000000000056
:104A30000000000000000000000000000002494EDD
:104A400046494E4954594E414ECDCCCC3D0AD72310
:104A50003C17B7D13877CC2B329595E6241FB14F50
:104A60000A000020410000C84200401C4620BCBE95
:104A70004CCA1B0E5AAEC59D74000D94F4015668C5
:104A80004D75C77CD6F6C27C11241FBECFEFD1E294
:104A9000DEBFCDBF00E00CBF14E0A0E0B2E0E8EA6A
:104AA000F6E102E00BBF02C007900D92AC3FB107E8
:104AB000D9F71BBE15E1ACEFB4E001C01D92A83BD5
:104AC000B107E1F71AE4C6E8DAE404C02297FE0170
:104AD0000F94FA0ACE37D107C9F70F94DA050D946F
:104AE000480B0C940000A0E0B0E0E9E7F5E20D947B
:104AF000170BEC015B016115710519F0FB01918346
:104B00008083F9908F2D90E00F94FE0A892BC9F7CE
:104B1000FDE2FF1621F4F990EE24E39405C02BE2A8
:104B2000F21609F4F990EE248E0101501040C801EC
:104B30006EE37AE443E050E072D2892BF9F48E01FF
:104B40000E5F1F4FC80161E47AE445E050E067D290
:104B5000892B19F48E01095F1F4FA114B10419F0BC
:104B6000F50111830083E0FC04C070E090E080E870
:104B700013C070E090E080E86FEF07C1C80166E401
:104B80007AE443E050E04BD2892B69F4A114B104DC
:104B900029F470E090E080EC6FE7F7C02296F50111
:104BA000D183C083F6CF8824992440E050E060E0B0
:104BB00070E0EF2DE053EA30A0F5F2E0EF2A8E2D01
:104BC00090E09C0128703070E2FE06C0232B79F53E
:104BD0000894811C911C2BC0232B19F00894810888
:104BE0009108DB01CA0112E0880F991FAA1FBB1FA1
:104BF0001A95D1F7480F591F6A1F7B1F440F551F85
:104C0000661F771F4E0F511D611D711D483929E91F
:104C1000520729E9620729E1720748F084E0E82A8F
:104C200006C0EE3F31F4E3FC39C098E0E92AF99080
:104C3000C0CFE53311F0E53189F529912D3219F412
:104C4000E0E1EE2A05C02B3219F081E090E003C0CC
:104C5000299182E090E0E22FE053EA3018F0C81B7F
:104C6000D90B1CC020E030E0FCE020383F075CF4AA
:104C7000C901880F991F880F991F280F391F220F0C
:104C8000331F2E0F311DE991E053EA3068F3E4FE43
:104C900003C0309521953F4F820E931ECE2CDD240C
:104CA000E1FE07C0A114B10421F02197F501D183E1
:104CB000C083CB01BA010F9463077B018C01F3E041
:104CC000CF22DD2423E0C216D10421F417FB109576
:104CD00017F9109557016801C801B70120E030E0CD
:104CE00040E050E00F94C306882309F44AC097FEC1
:104CF0000DC02DE5E22E2AE4F22E909481949108C5
:104D00009394C0E2D0E000E010E012C095E7E92EF5
:104D10009AE4F92EF6CFF7012591359145915491FA
:104D2000C601B5010F94A3095B016C018C1A9D0AA1
:104D30008C169D0684F7D595C7950F5F1F4F0630DB
:104D4000110529F08CEF9FEFE80EF91EF1CFC50198
:104D5000D6017C018D018C2D880F8D2D881F8F3FF2
:104D600051F0C601B50120E030E040E050E00F9482
:104D7000C306882331F482E290E09093B7158093C4
:104D8000B6157E2D9F2D802F612F272F392F482F6D
:104D9000562FB901CA01CDB7DEB7ECE00D94330B45
:104DA0002F923F925F926F927F928F929F92AF92DB
:104DB000BF92CF92DF92EF92FF920F931F93CF9308
:104DC000DF938C011B01EA016115710519F0FB01EC
:104DD00091838083209749F0CE010297839728F032
:104DE00020E030E040E050E0F6C0F801A1908F01F3
:104DF0008A2D90E00F94FE0A892BB9F7FDE2AF16D9
:104E000031F4F801A1908F015524539407C0FBE2BF
:104E1000AF1619F4F801A1908F015524209719F0CD
:104E2000C031D105C1F4F0E3AF1679F4F801808107
:104E3000883711F0883549F4F801A1800E5F1F4FC3
:104E4000F2E05F2AC0E1D0E006C0209721F480E3C1
:104E5000A816E9F427C0C830D10531F1C930D10511
:104E600024F4C230D10531F50CC0CA30D10589F027
:104E7000C031D105F9F4C12CD12CE12CB8E0FB2EC6
:104E800028C0C12CD12CE12CA0E4FA2E22C0CAE00B
:104E9000D0E0FCECCF2EFCECDF2EFCECEF2EFCE0A7
:104EA000FF2E17C0C8E0D0E0C12CD12CE12CE0E1EE
:104EB000FE2E0FC09E01442737FD4095542F60E021
:104EC00070E080E090E80F94BB0AC901DA016C0140
:104ED0007D0120E030E040E050E060E03E018824C9
:104EE00077FC8094982C70EDB72EBA0CE9E0EB15A6
:104EF00070F48A2D81548A3118F499ECB92E06C0C9
:104F00008A2D81568A3150F589EAB82EBA0C8B2D3C
:104F100090E08C179D0714F56F3FE1F0C216D306A1
:104F2000E406F506B0F0CA01B901A40193010F949B
:104F3000750A9B01AC012B0D311D411D511D213006
:104F4000F0E03F07F0E04F07F0E85F0710F461E0A2
:104F500001C06FEFF801A1908F01C5CF211431047A
:104F600081F0662331F001501040F101118300837C
:104F700008C051FE1AC002501040F1011183008395
:104F800014C067FF12C050FC05C02FEF3FEF4FEF7A
:104F90005FE704C020E030E040E050E882E290E0CB
:104FA0009093B7158093B61516C050FE08C0509563
:104FB0004095309521953F4F4F4F5F4F0CC057FFA5
:104FC0000AC082E290E09093B7158093B6152FEF58
:104FD0003FEF4FEF5FE7B901CA01DF91CF911F911A
:104FE0000F91FF90EF90DF90CF90BF90AF909F9088
:104FF0008F907F906F905F903F902F900895FB016E
:10500000DC0105900D920020E1F70895FC01059068
:105010000020E9F7809590958E0F9F1F0895FB0162
:10502000DC014150504088F08D9181341CF08B356B
:105030000CF4805E659161341CF06B350CF4605E9D
:10504000861B611171F3990B0895881BFCCFFB013E
:10505000DC014150504048F005900D920020C9F706
:1050600001C01D9241505040E0F70895FB01559159
:105070005523A9F0BF01DC014D9145174111E1F71E
:1050800059F4CD010590002049F04D914015411192
:10509000C9F3FB014111EFCF81E090E00197089542
:1050A000FB01DC0104C08D910190801921F4415075
:1050B0005040C8F7881B990B0895FB01DC0102C022
:1050C00001900D9241505040D8F70895FB01DC014A
:1050D0008D9181341CF08B350CF4805E61916134CC
:1050E0001CF06B350CF4605E861B611189F3990B23
:1050F0000895FB01DC010D900020E9F71197019064
:105100000D920020E1F70895FC018191861721F0AE
:105110008823D9F7992708953197CF010895FB0186
:10512000DC018D91019080190110D9F3990B08953C
:10513000FB01DC0101900D920020E1F70895FB01D5
:10514000DC014150504030F08D910190801919F4EC
:105150000020B9F7881B990B0895FB01DC01415031
:10516000504048F001900D920020C9F701C01D92F7
:1051700041505040E0F70895AEE0B0E0E2ECF8E2D4
:105180000D941F0B0E891F898EE08C831A8309836F
:105190008FEF9FE79E838D839E01265E3F4FCE015A
:1051A0000196688D798DA9010AD02F813885020F6B
:1051B000131FF80110822E96E4E00D943B0BABE038
:1051C000B0E0E5EEF8E20D94110B3C012B015A0121
:1051D000FC0117821682838181FD03C06FEF7FEF90
:1051E000B9C19AE0892E1E010894211C311CF301DB
:1051F0002381F20123FD859123FF81912F018823D3
:1052000009F4A5C1853239F423FD859123FF8191ED
:105210002F01853221F490E0B301B7D1E8CF982F68
:10522000FF24EE249924FFE1FF15D0F09B3269F0B2
:105230009C3228F4903259F0933291F40EC09D3292
:1052400049F0903369F441E024C052E0F52A84E04B
:10525000F82A28C098E0F92A25C0E0E1FE2A22C0F9
:10526000F7FC29C0892F80538A3070F4F6FE05C000
:10527000989C902C1124980E15C0E89CE02C1124C9
:10528000E80EF0E2FF2A0EC09E3229F4F6FC5FC160
:1052900040E4F42A07C09C3619F450E8F52A02C00D
:1052A000983649F4F20123FD959123FF91912F0146
:1052B000992309F0B8CF892F8554833018F0805294
:1052C000833038F444E050E0A40EB51E5FE3598308
:1052D0000FC0933631F0933779F0933509F052C00F
:1052E0001FC0F5018081898342E050E0A40EB51E05
:1052F000610101E010E011C0F501C080D180F6FC31
:1053000003C06FEF7FEF02C0692D70E042E050E014
:10531000A40EB51EC6012ED18C015FE7F52213C085
:10532000F501C080D180F6FC03C06FEF7FEF02C0B3
:10533000692D70E042E050E0A40EB51EC6010FD109
:105340008C0150E8F52AF3FE06C018C080E290E018
:10535000B3011BD1EA948E2D90E008171907B0F322
:105360000DC0F601F7FC8591F7FE81916F0190E089
:10537000B3010BD1E110EA94015010400115110561
:1053800081F7E2C0943611F0993661F5F7FE08C056
:10539000F501208131814281538184E090E00AC08F
:1053A000F501808191819C01442737FD4095542F60
:1053B00082E090E0A80EB91E9FE6F92257FF09C0CF
:1053C00050954095309521953F4F4F4F5F4FE0E806
:1053D000FE2ACA01B901A1012AE030E002D1D82E8B
:1053E000D2183FC0953729F41F2D1F7E2AE030E0E8
:1053F0001DC01F2D197F9F3661F0903720F498351E
:1054000009F0A5C00FC0903739F0983709F09FC058
:1054100004C028E030E00AC0106114FD146020E1EF
:1054200030E004C014FD166020E132E017FF08C030
:10543000F501608171818281938144E050E008C070
:10544000F50180819181BC0180E090E042E050E074
:10545000A40EB51EA101C5D0D82ED2188FE7F82E04
:10546000F122F6FE0BC05EEFF522D91438F4F4FEFB
:1054700007C0F2FC05C08FEEF82202C01D2D01C04E
:10548000192DF4FE0DC0FE01ED0DF11D808180335C
:1054900019F499EEF92208C01F5FF2FE05C003C09F
:1054A0008F2D867809F01F5F0F2DF3FC13C0F0FEDF
:1054B0000EC01E1510F09D2C0AC09D2C9E0C911A3A
:1054C0001E2D05C080E290E0B3015FD01F5F1E1566
:1054D000C8F304C01E1510F4E11A01C0EE2404FF45
:1054E0000EC080E390E0B30150D002FF1BC001FD6D
:1054F00003C088E790E00EC088E590E00BC0802FE5
:10550000867881F001FF02C08BE201C080E2F7FCE7
:105510008DE290E0B30139D005C080E390E0B301A3
:1055200034D09A94D914C8F3DA94F101ED0DF11D39
:10553000808190E0B30129D0DD20B1F705C080E281
:1055400090E0B30122D0EA94EE20C9F750CEF301E7
:1055500066817781CB012B96E2E10D942D0BFC0146
:105560000590615070400110D8F7809590958E0F8E
:105570009F1F0895FC016150704001900110D8F701
:10558000809590958E0F9F1F08950F931F93CF9333
:10559000DF938C01EB018B8181FF1BC082FF0DC06B
:1055A0002E813F818C819D812817390764F4E88121
:1055B000F9810193F983E88306C0E885F985802F96
:1055C0001995892B31F48E819F8101969F838E835B
:1055D00002C00FEF1FEFC801DF91CF911F910F9114
:1055E0000895FA01AA27283051F1203181F1E89479
:1055F0006F936E7F6E5F7F4F8F4F9F4FAF4FB1E0C6
:105600003ED0B4E03CD0670F781F891F9A1FA11DC0
:10561000680F791F8A1F911DA11D6A0F711D811DC1
:10562000911DA11D20D009F468943F912AE0269F86
:1056300011243019305D3193DEF6CF010895462FE5
:105640004770405D4193B3E00FD0C9F7F6CF462FC6
:105650004F70405D4A3318F0495D31FD405241932F
:1056600002D0A9F7EACFB4E0A695979587957795EC
:105670006795BA95C9F700976105710508959B0173
:10568000AC010A2E06945795479537952795BA95FC
:10569000C9F7620F731F841F951FA01D0895382F2F
:1056A00020E0119837FF06C09FB7F894809102015F
:1056B000816005C09FB7F894809102018E7F80932E
:1056C00002019FBF119A2F5F283011F0330FE9CFED
:1056D00008958F929F92AF92BF92CF92DF92EF92F6
:1056E000FF920F931F934B016091DB037091DC03DA
:1056F00070935E0760935D07609151077091520748
:105700007093600760935F0762E06093DD0368E376
:1057100079E57093DC036093DB03909362078093D9
:1057200061079092640780926307CA01B90120E083
:1057300030E048EC52E40F94A3090F9432076093D1
:1057400065077093660780936707909368070F94C7
:1057500065075B016C01C801B70120E030E048EC4F
:1057600052E40F94A309A60195010F94E9050F9443
:1057700032076093690770936A0780936B07909371
:105780006C07F401608171818281938120E030E0B7
:1057900048EC52E40F94A309A60195010F94E90582
:1057A0000F94370760935107709352078093530704
:1057B000909354071F910F91FF90EF90DF90CF903F
:1057C000BF90AF909F908F9008956F927F928F922D
:1057D0009F92AF92BF92CF92DF92EF92FF920F9380
:1057E0001F933B016091DB037091DC0370935E07B4
:1057F00060935D0760915107709152077093600745
:1058000060935F0762E06093DD036DE279E570937A
:10581000DC036093DB0390936207809361077092CF
:10582000640760926307CA01B9010F9463072AE015
:1058300037ED43E25CE30F94A3090F9432076093C2
:1058400065077093660780936707909368070F94C6
:1058500065074B015C01C801B7010F9463072AE09B
:1058600037ED43E25CE30F94A309A50194010F9483
:10587000E9050F9432076093690770936A07809374
:105880006B0790936C07F301608171818281938132
:105890000F9463072AE037ED43E25CE30F94A3091A
:1058A000A50194010F94E9050F9437076093510700
:1058B000709352078093530790935407D0926E07CA
:1058C000C0926D071F910F91FF90EF90DF90CF90E6
:1058D000BF90AF909F908F907F906F90089580932E
:1058E0005B0710925C07089510920905089581E006
:1058F000089580914A0790E09695879596958795AB
:1059000081700895FC012081822F90E06AE070E0B0
:105910000F94A80ACB016AE070E00F94A80A805D9A
:1059200080937B07822F90E06AE070E00F94A80AD2
:10593000805D80937C0710927D078BE797E0089548
:10594000FC01608171818281938120E030E040E23E
:1059500051E40F94A3090F9432079B0177FF02C013
:105960008DE201C08BE280937B0737FF03C0309547
:1059700021953F4FC90168EE73E00F94A80ACB014F
:105980006AE070E00F94A80A805D80937C07C901EB
:1059900064E670E00F94A80ACB016AE070E00F940F
:1059A000A80A805D80937D07C9016AE070E00F94CA
:1059B000A80ACB016AE070E00F94A80A805D80938A
:1059C0007E078EE280937F07C9016AE070E00F9442
:1059D000A80A805D80938007109281078BE797E08B
:1059E0000895FC01608171818281938120E030E023
:1059F00040E251E40F94A3090F9432079B0177FF13
:105A000003C0309521953F4FC90168EE73E00F94B4
:105A1000A80ACB016AE070E00F94A80A805D809329
:105A20007B07C90164E670E00F94A80ACB016AE025
:105A300070E00F94A80A805D80937C07C9016AE03A
:105A400070E00F94A80ACB016AE070E00F94A80AF6
:105A5000805D80937D078EE280937E07C9016AE0B6
:105A600070E00F94A80A805D80937F0710928007F2
:105A70008BE797E00895EF92FF920F931F93FC013D
:105A8000608171818281938120E030E048EC52E4B2
:105A90000F94A3090F9432077B018C0197FD12C06C
:105AA00020E137E240E050E00F94DD0ACA01B9017D
:105AB0002AE030E040E050E00F94DD0A605D609342
:105AC0007B0703C08DE280937B0717FF08C010950A
:105AD0000095F094E094E11CF11C011D111DC8011A
