:100000000C943D250C946A250C946A250C946A2561
:100010000C946A250C946A250C946A250C946A2524
:100020000C946A250C946A250C946A250C946A2514
:100030000C946A250D9485020C946A250C946A250B
:100040000C946A250C9497D40C946A250C946A2518
:100050000C946A250C946A250C9406C90D94DC0056
:100060000C946A250C94B2740C946A250C946A253D
:100070000C946A250C946A250C946A250C946A25C4
:100080000C946A250C946A250C946A250C946A25B4
:100090000C946A250C946A250C946A250C9460F7DC
:1000A0000C946A250C946A250C946A250C946A2594
:1000B0000C946A250C946A250C946A250C946A2584
:1000C0000C946A250C946A250C946A250C946A2574
:1000D0000C946A250C946A250C946A250C946A2564
:1000E0000C946A25084AD73B3BCE016E84BCBFFD09
:1000F000C12F3D6C74319ABD56833DDA3D00C77FF8
:1001000011BED9E4BB4C3E916BAAAABE0000008090
:100110003F05A84CCDB2D44EB93836A9020C50B91F
:10012000918688083CA6AAAA2ABE000000803F004B
:1001300000000000000000000000007FFFE0000061
:10014000000000000000000000007000E00000005F
:10015000000000000000000000630C6000000000D0
:100160000000000000000000470E2000000000001A
:10017000000000000000004F0F2000000000000001
:100180000000000000005F0FA00000000000000061
:1001900000000000005E07A07F800000000000005B
:1001A00000410400406020FFC0000000000000008B
:1001B00020820040F020FFC000000000000000206E
:1001C000820040F020FFC000000000000000410459
:1001D000004060207F8000000000000000820800D6
:1001E0005E07A07F80000000000000010410005F97
:1001F0000FA0FFC0000000000000010410004F0F1E
:1002000020FFC000000000000000820800470E2010
:10021000FFC000000000000000410400630C603FCC
:1002200000000000000000000000007000E01E0060
:1002300000000000000001FFFF807FFFE00C0000D5
:10024000000000000001FFFF80000000000000002F
:1002500000000000000000007FFFE0000000000040
:10026000000000000000007000E00000000000003E
:1002700000000000000061F86000000000000000C5
:10028000000000000041F820000000000000000015
:100290000000000040F0200000000000000000000E
:1002A000000000406020000000000000000000008E
:1002B00000005801A07F8000000000000000410401
:1002C000005C63A0FFC0000000000000002082006E
:1002D0005EF7A0FFC0000000000000002082005E6A
:1002E000F7A0FFC0000000000000004104005C63B4
:1002F000A07F80000000000000008208005801A0DC
:100300007F8000000000000001041000406020FF1A
:10031000C00000000000000104100040F020FFC0F9
:100320000000000000000082080041F820FFC0002B
:1003300000000000000041040061F8603F00000080
:1003400000000000000000007000E01E000000003F
:1003500000000001FFFF807FFFE00C0000000000B4
:10036000000001FFFF8000000059002D2D3A2D2DC7
:1003700000B02000B02000000000000000000000DD
:10038000000000000000000000000000000000006D
:10039000000000000000000000000000000000005D
:1003A0000000000000000000000003C0000000008A
:1003B00000003FFE000000000001FFFF8000000081
:1003C0000007FFFFE0000000000FFFFFF00000004B
:1003D000001FFFFFF8000000003FFFFFFC000000CF
:1003E000007FFFFFFE00000000FFFFFFFF00000096
:1003F00001FFFFFFFF80000001FFFFFFFF80000003
:1004000003FFFFFFFFC0000003FF8001FFC00000EB
:1004100007F800000FE0000007C0000003E0000044
:100420000700000000F000000E0000000030000097
:100430000C00000000100000180000000018000070
:1004400038000000000C000070000000000E0000EA
:1004500070000000000F0000F0000000000F00011D
:10046000F0000000000F8001F0000000000F80038A
:10047000F0000000000FC003F8000000001FC007DC
:10048000F8000000001FE007F8000000001FE00770
:10049000F8000000001FE007FC000000003FE0073C
:1004A000FC000000003FF007FE000000007FF007A6
:1004B000FE000000007FF007FF000000007FF00753
:1004C000FF00000000FFF007FF80000000FFE007D2
:1004D000FF80000001FFE007FFC0000003FFE0070E
:1004E000FFC0000003FFE003FFE0000007FFC003C0
:1004F000FFF000000FFFC001FFF000000FFFC00180
:10050000FFF800001FFF8000FFFC00003FFF00001D
:10051000FFFE00007FFF00007FFF0000FFFE0000E5
:100520003FFF8001FFFC00001FFFC003FFF8000039
:100530000FFFE007FFF0000003FFF81FFFC00000FF
:1005400000FFFFFFFF000000003FFFFFFC00000076
:100550000001C00380000000000000000000000057
:10056000000000000000000000000000000000008B
:10057000000000000000004E6F2068617920746167
:10058000726A657461205344004D656E7520646520
:1005900020534400446574656E657220696D707205
:1005A0006573696F6E005265616E75646172206972
:1005B0006D707265732E0050617573617220696D84
:1005C00070726573696F6E00436F6E74726F6C004A
:1005D000507265706172617200416A757374617204
:1005E000004D6F6E69746F72697A6172004D656E4D
:1005F00075206465205344004D656E752064652048
:10060000534400F92E2E004D656E75207072696E90
:10061000636970616C004D3234004D3233202573B4
:10062000004D383420582059205A20450052657317
:10063000742E20646520656D657267656E2E0043BB
:100640006172676172206D656D6F726961004775D7
:100650006172646172206D656D6F726961005265CF
:10066000747261657200436F6E74726173746500B9
:1006700046696C616D656E74004D6F76696D696574
:100680006E746F0054656D7065726174757261008F
:100690004D656E75207072696E636970616C00449F
:1006A0006573526574205600446573526574205614
:1006B00000446573526574202B6D6D004465735260
:1006C0006574202B6D6D004C6576616E74617220CF
:1006D0006D6D004C6576616E746172206D6D0052B7
:1006E000657472616572202056005265747261658E
:1006F000722020560052657472616572206D6D0023
:1007000052657472616572206D6D004F6666004FB0
:100710006E004F6666004F6E004175746F526574CF
:10072000722E00436F6E74726F6C00436F6E747242
:10073000617374650046696C2E204469612E203116
:100740000046696C2E204469612E2031004F666698
:10075000004F6E004F6666004F6E004520696E20A8
:100760006D6D3300436F6E74726F6C004520706165
:10077000736F732F6D6D0045207061736F732F6DF4
:100780006D005A207061736F732F6D6D005A207069
:1007900061736F732F6D6D0059207061736F732FCC
:1007A0006D6D0059207061736F732F6D6D0058204F
:1007B0007061736F732F6D6D0058207061736F736C
:1007C0002F6D6D00412D7265747261632E00412D95
:1007D0007265747261632E00416D61786500416DD0
:1007E00061786500416D61787A00416D61787A00C9
:1007F000416D61787900416D61787900416D617872
:100800007800416D6178780056766163696F206D7C
:10081000696E0056766163696F206D696E00566D72
:10082000696E00566D696E00566D61786500566D93
:1008300061786500566D61787A00566D61787A004E
:10084000566D61787900566D61787900566D6178E2
:100850007800566D6178780056652D6A65726B0078
:1008600056652D6A65726B00567A2D6A65726B004B
:10087000567A2D6A65726B005678792D6A65726BAF
:10088000005678792D6A65726B004163656C004192
:1008900063656C00436F6E74726F6C00416A7573B0
:1008A0007461722074656D702E2041425300416A5C
:1008B00075737461722074656D702E20504C410008
:1008C0005049442D43005049442D43005049442D84
:1008D00044005049442D44005049442D490050499A
:1008E000442D49005049442D50005049442D50009A
:1008F0000220466163740002204661637400022096
:100900004D61780002204D61780002204D696E0033
:1009100002204D696E004F6666004F6E004F66669E
:10092000004F6E004175746F74656D700056656E92
:1009300074696C61646F720056656E74696C616491
:100940006F7200426173650042617365004E6F7A99
:100950007A6C65004E6F7A7A6C6500436F6E7472C4
:100960006F6C0047756172646172206D656D6F72A6
:10097000696100426173650042617365004E6F7A80
:100980007A6C65004E6F7A7A6C650056656E746994
:100990006C61646F720056656E74696C61646F722D
:1009A0000054656D706572617475726100477561A0
:1009B00072646172206D656D6F726961004261736E
:1009C000650042617365004E6F7A7A6C65004E6F08
:1009D0007A7A6C650056656E74696C61646F72003A
:1009E00056656E74696C61646F720054656D7065F4
:1009F000726174757261004D6F76657220656A650B
:100A000073004D383000456E63656E646572004D4D
:100A100038310041706167617200456E66726961CC
:100A2000720050726563616C656E74617220414240
:100A3000530050726563616C656E74617220504C36
:100A40004100416A7573746172206F6666736574E4
:100A50007300473238004C6C6576617220616C20FF
:100A60006F726967656E004D38340041706167616F
:100A700072206D6F746F726573004D656E752070B6
:100A800072696E636970616C004D6F7665722030BB
:100A90002E316D6D004D6F76657220316D6D004D9C
:100AA0006F7665722031306D6D00507265706172C5
:100AB0006172004578747275736F72004D6F766560
:100AC00072205A004D6F7665722059004D6F766521
:100AD000722058004D6F76657220656A6573004517
:100AE00078747275646572005A005900580050722B
:100AF0006563616C2E204142532042617365005052
:100B0000726563616C656E7461722041425320317D
:100B10000050726570617261720050726563616C41
:100B20002E20504C41204261736500507265636114
:100B30006C656E74617220504C41203100507265BA
:100B40007061726172004D3630300043616D6269D0
:100B500061722066696C616D656E746F00426162DE
:100B60007973746570205A0042616279737465709C
:100B70002059004261627973746570205800466C98
:100B8000756A6F203000466C756A6F203000466CC5
:100B9000756A6F00466C756A6F0056656E74696C95
:100BA00061646F720056656E74696C61646F720087
:100BB000426173650042617365004E6F7A7A6C65BD
:100BC000004E6F7A7A6C650056656C6F636964617C
:100BD000640056656C6F6369646164004D656E7591
:100BE000207072696E636970616C00426162797332
:100BF00074657070696E67205A004261627973741F
:100C0000657070696E67205900426162797374651E
:100C10007070696E672058005461726A6574612053
:100C20007265746972616461005461726A657461AD
:100C300020636F6C6F63616461004D33303020530B
:100C40003639382050323030004D33303020533672
:100C5000353920503230300000060900FE06018987
:100C600002FE20FFFE07FE06FE0000000600070150
:100C700006060602008080808000800303030601D0
:100C800003A0A0A00507070600FF5050F850F85039
:100C9000500509090600FE2070A8A07028A8702041
:100CA0000608080600FF40A8481020485408050719
:100CB000070600FF609090609890680103030602A9
:100CC000038080800207070602FF408080808080CA
:100CD000400207070602FF80404040404080050573
:100CE000050600008850F85088050505060000201C
:100CF00020F820200204040602FEC04040800501C6
:100D000001060002F8020202060200C0C004060644
:100D100006010010102040808004060606010060D5
:100D2000909090906003060606010040C04040404D
:100D3000E00406060601006090102040F00406065C
:100D4000060100F020601010E00506060600001005
:100D5000305090F810040606060100F080E01010F4
:100D6000E00406060601006080E09090600406063C
:100D7000060100F010102040400406060601006045
:100D800090609090600406060601006090907010DC
:100D900060020505060200C0C000C0C002070706C9
:100DA00002FEC0C000C040408005050506000018D6
:100DB00060806018050303060001F800F8050505CA
:100DC000060000C0300830C004070706010060902C
:100DD00010604000400506060600007090A8B08034
:100DE00070050606060000205088F888880506066B
:100DF000060000F088F08888F0040606060100600E
:100E00009080809060040606060100E0909090902B
:100E1000E0040606060100F080E08080F00406068B
:100E2000060100F080E08080800406060601006074
:100E30009080B090600406060601009090F09090BB
:100E400090030606060100E040404040E00506062B
:100E5000060000381010109060040606060100908D
:100E6000A0C0A090900406060601008080808080CB
:100E7000F005060606000088D8A8A888880406069B
:100E800006010090D0B09090900506060600007014
:100E90008888888870040606060100E09090E0804B
:100EA000800407070601FF609090D0B06010040630
:100EB00006060100E09090E090900406060601000E
:100EC000609040209060050606060000F820202073
:100ED0002020040606060100909090909060040681
:100EE00006060100909090F060600506060600007E
:100EF0008888A8A8D8880506060600008850202003
:100F00005088050606060000888850202020040628
:100F100006060100F010204080F0030606060100DE
:100F2000E080808080E0040606060100808040208A
:100F30001010030606060100E020202020E0050333
:100F4000030600032050880501010600FEF8020296
:100F500002060204804004040406010070909070B0
:100F60000406060601008080E09090E00404040678
:100F70000100708080700406060601001010709059
:100F8000907004040406010060B0C07004060606F8
:100F90000100205040E040400406060601FE60903B
:100FA000907010600406060601008080E09090902A
:100FB0000306060601004000C04040E003080806A2
:100FC00001FE200060202020A0400406060601004B
:100FD0008080A0C0A090030606060100C0404040EB
:100FE00040E0050404060000D0A8A8880404040614
:100FF0000100E0909090040404060100609090606D
:101000000406060601FEE09090E0808004060606D5
:1010100001FE709090701010040404060100A0D02E
:10102000808004040406010070C030E00406060657
:1010300001004040E040502004040406010090906C
:10104000907004040406010090906060050404069A
:10105000000088A8A8500404040601009060609075
:101060000406060601FE9090907090600404040649
:101070000100F02040F003070706010020404080F7
:101080004040200107070602FF808080808080802A
:101090000307070601008040402040408004020210
:1010A00006010350A0FFFFFFFFFFFFFFFFFFFFFF51
:1010B000FFFFFFFFFFFFFFFFFFFFFFFFFFFFFFFF40
:1010C000FFFFFFFFFFFF0000000600070106060606
:1010D00002008000808080800406060601FF2070E8
:1010E000A0A070200507070600FF304840F04040F0
:1010F000F8050505060000A8508850A80506060654
:1011000000008850F820F8200107070602FF8080C1
:1011100080008080800407070601FF708060906077
:1011200010E0030101060105A0060707060000788C
:101130008494A494847803050506010160A06000EE
:10114000E00505050600002850A05028040303060A
:101150000100F01010040101060102F00607070665
:1011600000007884B4A4A48478040101060105F089
:101170000403030601026090600507070600FF20D4
:1011800020F8202000F803050506010140A02040BA
:10119000E0030505060101C0204020C0020202064E
:1011A000020440800405050601FF9090B0D0800540
:1011B000060606000078E8E8682828010101060212
:1011C00002800202020602FE4080030505060101BC
:1011D00040C04040E003050506010140A04000E09A
:1011E000050505060000A0502850A00508080600C7
:1011F000FF40C04050703078100508080600FF40DE
:10120000C04050680810380508080600FFC020409C
:1012100030F03078100407070601002000206080BD
:101220009060050707060000402020507088880560
:101230000707060000102020507088880507070661
:1012400000002050205070888805070706000028FD
:101250005020507088880507070600005000205075
:101260007088880507070600002050205070888885
:1012700005060606000078A0F0A0A0B8040808063D
:1012800001FE609080809060204004070706010006
:101290004020F080E080F00407070601002040F0C5
:1012A00080E080F00407070601002050F080E08015
:1012B000F00407070601005000F080E080F003070B
:1012C000070601008040E0404040E00307070601B8
:1012D000002040E0404040E003070706010040A036
:1012E000E0404040E0030707060100A000E0404066
:1012F00040E00506060600007048E848487004070C
:101300000706010050A090D0B09090040707060196
:101310000040206090909060040707060100204084
:101320006090909060040707060100205060909044
:10133000906004070706010050A060909090600440
:1013400007070601005000609090906005050506B3
:10135000000088502050880408080601FF1070B073
:10136000B0D0D0E0800407070601004020909090A4
:101370009060040707060100204090909090600460
:101380000707060100205090909090600407070620
:101390000100500090909090600507070600001033
:1013A00020885020202004060606010080E090904E
:1013B000E0800406060601006090A0A090A004074B
:1013C0000706010040200070909070040707060196
:1013D0000020400070909070040707060100205024
:1013E000007090907004070706010050A0007090F4
:1013F000907004060606010050007090907004077B
:10140000070601002050207090907005040406002B
:101410000070A8B0780406060601FE708080702077
:101420004004070706010040200060B0C0700407B8
:101430000706010020400060B0C0700407070601E5
:101440000020500060B0C070040606060100500085
:1014500060B0C070030707060100804000C0404034
:10146000E0030707060100204000C04040E00307FA
:101470000706010040A000C04040E0030606060148
:1014800000A000C04040E0040707060100306010E3
:101490007090906004070706010050A000E0909053
:1014A0009004070706010040200060909060040748
:1014B00007060100204000609090600407070601C5
:1014C000002050006090906004070706010050A0C3
:1014D0000060909060040606060100500060909045
:1014E000600505050600002000F80020040404063D
:1014F000010070B0D0E00407070601004020009012
:1015000090907004070706010020400090909070B2
:101510000407070601002050009090907004060612
:101520000601005000909090700409090601FE2009
:1015300040009090907090600408080601FE808042
:10154000E09090E080800408080601FE5000909032
:101550009070906000060900FE070199032B20FFA0
:10156000FE08FE07FE000000060000010707060255
:101570000080808080800080030303060104A0A017
:10158000A00507070600005050F850F85050050716
:10159000070600002070A0702870200507070600CD
:1015A0000048A8502050A89005070706000040A05A
:1015B000A040A8906801030306020480808003070E
:1015C00007060100204080808040200307070601B5
:1015D000008040202020408005050506000188503D
:1015E000F850880505050600012020F82020030397
:1015F000030601FF604080050101060003F80303B4
:10160000030601FF40E04005070706000008081038
:1016100020408080050707060000205088888850F9
:10162000200507070600002060A0202020F80507FD
:1016300007060000708808304080F805070706009C
:1016400000F8081030088870050707060000103001
:101650005090F81010050707060000F880B0C80881
:101660008870050707060000304080B0C888700504
:101670000707060000F8081010204040050707067D
:101680000000708888708888700507070600007061
:101690008898680810600307070601FF40E04000D3
:1016A00040E0400307070601FF40E0400060408043
:1016B00004070706010010204080402010050303A6
:1016C000060002F800F80407070601008040201019
:1016D00020408005070706000070881020200020A9
:1016E000050707060000708898A8B08070050707F6
:1016F00006000020508888F8888805070706000043
:10170000F04848704848F0050707060000708880D8
:1017100080808870050707060000F0484848484860
:10172000F0050707060000F88080F08080F80507C4
:1017300007060000F88080F080808005070706001B
:1017400000708880809888700507070600008888E8
:1017500088F8888888030707060100E04040404079
:1017600040E00507070600003810101010906005D3
:1017700007070600008890A0C0A09088050707060C
:101780000000808080808080F805070706000088C0
:1017900088D8A88888880507070600008888C8A810
:1017A00098888805070706000070888888888870F0
:1017B000050707060000F08888F08080800508088B
:1017C0000600FF7088888888A8700805070706004B
:1017D00000F08888F0A09088050707060000708850
:1017E0008070088870050707060000F82020202078
:1017F00020200507070600008888888888887005EB
:101800000707060000888888505050200507070603
:101810000000888888A8A8D88805070706000088DF
:1018200088502050888805070706000088885020C7
:10183000202020050707060000F80810204080F847
:10184000030707060100E08080808080E00507072D
:1018500006000080804020100808030707060100EA
:10186000E02020202020E00503030600042050880B
:101870000501010600FFF80202020602068040058B
:10188000050506000070087888780507070600003F
:101890008080B0C888C8B005050506000070888043
:1018A000887005070706000008086898889868058A
:1018B00005050600007088F880700507070600001F
:1018C000304840F04040400507070600FE78888811
:1018D000780888700507070600008080B0C88888EF
:1018E000880307070601004000C0404040E00409AB
:1018F000090601FE100030101010909060050707D7
:1019000006000080808890E09088030707060100A9
:10191000C04040404040E0050505060000D0A8A8B2
:10192000A888050505060000B0C888888805050553
:1019300006000070888888700507070600FEB0C89A
:1019400088C8B080800507070600FE6898889868F8
:101950000808050505060000B0C88080800505055B
:1019600006000070807008F0050707060000404080
:10197000F0404048300505050600008888889868D2
:10198000050505060000888850502005050506005D
:10199000008888A8A850050505060000885020503A
:1019A000880507070600FE8888986808887005057E
:1019B00005060000F8102040F80407070601003073
:1019C0004020C02040300107070602008080808050
:1019D000808080040707060100C02040304020C0FE
:1019E00005030306000448A8900000000100000061
:1019F00000000100000000000100000000000100E4
:101A000000000000010000000000010000000000D4
:101A100001000000000001000000000001000000C3
:101A200000000100000000000100000000000100B3
:101A300000000000010000000000010000000000A4
:101A40000100000000000100000000000100000093
:101A50000000010000000000010000000000010083
:101A60000000000001000000000001000000000074
:101A70000100000000000100000000000100000063
:101A80000000010000000000010000000000010053
:101A90000000000001000000000001000000000044
:101AA0000100000000000100000000000100000033
:101AB0000000060000010707060200800080808009
:101AC00080800507070600FF2078A0A0A0782005E9
:101AD0000707060000304840E04048B0050505060D
:101AE000000088705070880508080600FF8888503C
:101AF00020F8202020010707060200808080008057
:101B000080800508080600FF7080E0904838087063
:101B1000030101060107A00507070600007088A859
:101B2000C8A888700406060601017090B05000F045
:101B30000605050600002448904824040202060118
:101B400002F010040101060103F00507070600007A
:101B50007088E8C8C88870050101060007F803030B
:101B60000306010440A0400506060600002020F8F8
:101B70002020F804050506010360902040F00405CC
:101B800005060103E0106010E002020206020640B2
:101B9000800506060600FF888888C8B0800507070C
:101BA00006000078E8E868282828010101060203F9
:101BB000800202020602FE40800305050601034082
:101BC000C04040E00406060601016090906000F00D
:101BD00006050506000090482448900609090600FD
:101BE000FF40C04040E40C143C040609090600FF15
:101BF00040C04040E81404081C0509090600FFC065
:101C0000204020C818287808050707060000200093
:101C10002020408870050808060000402070888851
:101C2000F888880508080600001020708888F88861
:101C3000880508080600002050708888F888880504
:101C4000080806000048B0708888F88888050808E9
:101C50000600005000708888F8888805080806008B
:101C6000002050708888F888880607070600003C26
:101C700050909CF0909C0509090600FE70888080B9
:101C8000808870204005080806000040F88080F039
:101C90008080F805080806000010F88080F0808039
:101CA000F805080806000020F88080F08080F8051C
:101CB000080806000050F88080F08080F8030808CB
:101CC0000601008040E040404040E0030808060173
:101CD000002040E040404040E0030808060100408A
:101CE000A0E040404040E0030808060100A000E0FA
:101CF00040404040E0050707060000F04848E8483B
:101D000048F0050808060000285088C8A898888868
:101D1000050808060000402070888888887005083B
:101D2000080600001020708888888870050808065A
:101D30000000205070888888887005080806000018
:101D400028507088888888700508080600005000B0
:101D50007088888888700505050600008850205026
:101D600088050707060000709898A8C8C87005087D
:101D700008060000402088888888887005080806C2
:101D800000001020888888888870050808060000F0
:101D900020500088888888700508080600005000D8
:101DA00088888888887005080806000010208888C0
:101DB0005020202005070706000080F088F0808072
:101DC00080050707060000708890A09088B005087D
:101DD000080600004020007008788878050808068A
:101DE00000001020007008788878050808060000B8
:101DF00020500070087888780508080600002850F0
:101E00000070087888780507070600005000700801
:101E10007888780508080600002050207008788827
:101E20007806050506000078147C907C05070706F7
:101E300000FE708880887020400508080600004079
:101E400020007088F8807005080806000010200047
:101E50007088F8807005080806000020500070881F
:101E6000F8807005070706000050007088F8807041
:101E7000030808060100804000C0404040E003081D
:101E800008060100408000C0404040E0030808060A
:101E9000010040A000C0404040E0060A0A0600FEE3
:101EA000A4A800FC8480808084FC060A0A0600FE48
:101EB000549400FC8404040484FC05080806000013
:101EC000285000B0C888888805080806000040200F
:101ED000007088888870040A0A0602FE30408090EC
:101EE000909090909090040A0A0600FEC0201090F6
:101EF000909090909090060707060001448C8C8487
:101F000080403C06070706000188C4C4840408F02A
:101F10000505050600012000F80020050808060058
:101F20000040F0C88888987810050808060000E08E
:101F3000F88888888888F80505050600012030F8AB
:101F400030200508080600002070F820202020E03E
:101F50000509090600FF2070A8A8B8888850200548
:101F600009090600FFE080C0B0A8A83028280509AC
:101F7000090600FFF8A88888888888A8F8050A0A52
:101F80000600FE205050505088A8A88870457272F4
:101F90006F723A006563686F3A00504152414441A4
:101FA000005072696E7465722073746F707065642E
:101FB0002064756520746F206572726F72732E20B5
:101FC00046697820746865206572726F7220616E50
:101FD0006420757365204D39393920746F2072651E
:101FE00073746172742E202854656D70657261740B
:101FF0007572652069732072657365742E20536550
:1020000074206974206166746572207265737461EE
:102010007274696E67290050415241444120444521
:1020200020454D4552472E005072696E74657220EE
:1020300068616C7465642E206B696C6C2829206360
:10204000616C6C656421006F6B00526573656E6432
:102050003A20002200556E6B6E6F776E20636F6DB5
:102060006D616E643A20220043616D626961722085
:1020700066696C616D656E746F004F66667365743A
:10208000205A203A20007A5F6D61783A20007A5F0A
:102090006D696E3A20004F6666736574205A004F72
:1020A0006666736574205A206F6B006C63642063EE
:1020B0006F6E74726173742076616C75653A20007E
:1020C0002200556E6B6E6F776E20636F6D6D616E63
:1020D000643A2022007A5F6D696E3A2000795F6D64
:1020E000696E3A2000785F6D696E3A2000205A3A96
:1020F0000020593A0020436F756E7420583A200032
:1021000020453A00205A3A0020593A00583A0046F1
:1021100049524D574152455F4E414D453A4D6172CE
:102120006C696E2056313B20537072696E74657213
:102130002F6772626C206D617368757020666F72B4
:102140002067656E36204649524D574152455F55CE
:10215000524C3A68747470733A2F2F6769746875BB
:10216000622E636F6D2F4D6F65627975732F50729C
:1021700075736149332050524F544F434F4C5F5653
:10218000455253494F4E3A312E30204D4143484934
:102190004E455F545950453A50727573612049332A
:1021A0004C2D4D4D2045585452554445525F434F98
:1021B000554E543A3120555549443A30303030303C
:1021C0003030302D303030302D303030302D303018
:1021D00030302D3030303030303030303030300A28
:1021E0000050727573612049334C2D4D4D204F6660
:1021F000662E0050727573612049334C2D4D4D2071
:102200006C697374612E0042656420646F6E652E84
:102210000020423A0020453A00543A0042656420CA
:1022200048656174696E672E0048656174696E6700
:1022300020646F6E652E0020573A0020453A005406
:102240003A0048656174696E672E2E2E0020424068
:102250003A0020403A00202F003A00205400202F5E
:102260000020423A00202F006F6B20543A0025696D
:10227000206D696E2C2025692073656300456E64AE
:102280002066696C65206C69737400426567696ECD
:102290002066696C65206C6973740053696E206DEB
:1022A0006F76696D69656E746F0050727573612029
:1022B00049334C2D4D4D206C697374612E0052656D
:1022C00073756D69656E646F20696D7072652E003F
:1022D0004573706572616E646F206F7264656E65C0
:1022E00073005265706F736F2E2E2E00FFFFFF007C
:1022F000004D430080984300004D43000000000063
:1023000000000000000000000000000000000000CD
:1023100000000000004D430080984300004D430042
:10232000000040000000400000C03F256920686FA9
:10233000757273202569206D696E7574657300442C
:102340006F6E65207072696E74696E672066696C65
:102350006500504152414441005072696E7465728B
:102360002073746F707065642064756520746F20CD
:102370006572726F72732E204669782074686520CA
:102380006572726F7220616E6420757365204D39BD
:10239000393920746F20726573746172742E20282D
:1023A00054656D7065726174757265206973207211
:1023B000657365742E20536574206974206166749A
:1023C00065722072657374617274696E6729004E5C
:1023D0006F204C696E65204E756D6265722077695D
:1023E000746820636865636B73756D2C204C617332
:1023F00074204C696E653A20004E6F204368656317
:102400006B73756D2077697468206C696E65206EDA
:10241000756D6265722C204C617374204C696E6519
:102420003A2000636865636B73756D206D69736D29
:10243000617463682C204C617374204C696E653A3A
:1024400020004C696E65204E756D6265722069735F
:10245000206E6F74204C617374204C696E65204E41
:10246000756D6265722B312C204C617374204C6940
:102470006E653A20004D31313000446F6E65207337
:102480006176696E672066696C652E006F6B004D22
:102490003239002020506C616E6E6572427566663E
:1024A000657242797465733A200020467265652032
:1024B0004D656D6F72793A20004A756E202031208B
:1024C0003230313500436F6D70696C65643A2000BD
:1024D000284D6F65627975732C206D6F6562797513
:1024E00073406D6F65627975732E636F6D2900207F
:1024F0007C20417574686F723A20004A756E202006
:102500003120323031352031363A34353A323800E4
:10251000204C61737420557064617465643A2000C6
:10252000312E302E30004D61726C696E0020536F79
:102530006674776172652052657365740020576117
:10254000746368646F67205265736574002042721B
:102550006F776E206F757420526573657400204527
:10256000787465726E616C20526573657400506F8B
:102570007765725570007374617274002200656E25
:10258000717565696E672022002200656E71756540
:10259000696E6720220020746F6F206C6F6E672059
:1025A000657874727573696F6E2070726576656E8A
:1025B0007465640020636F6C642065787472757351
:1025C000696F6E2070726576656E7465640048612F
:1025D0007264636F6465642044656661756C742021
:1025E00053657474696E6773204C6F616465640031
:1025F00053746F7265642073657474696E677320B9
:102600007265747269657665640046696C616D65B2
:102610006E742073657474696E67733A20446973CD
:1026200061626C6564002020204D3230302044000F
:1026300046696C616D656E742073657474696E674C
:10264000733A002020204D323039205300417574F8
:102650006F2D526574726163743A20533D3020745B
:102660006F2064697361626C652C203120746F2067
:10267000696E7465727072657420657874727564C1
:10268000652D6F6E6C79206D6F7665732061732098
:102690007265747261637473206F72207265636F08
:1026A000766572696573002046002020204D323027
:1026B000382053005265636F7665723A20533D456A
:1026C00078747261206C656E67746820286D6D295E
:1026D00020463A537065656420286D6D2F6D290082
:1026E000205A002046002020204D32303720530051
:1026F000526574726163743A20533D4C656E677421
:102700006820286D6D2920463A537065656420283D
:102710006D6D2F6D29205A3A205A4C696674202815
:102720006D6D29002044002049002020204D3330C9
:10273000312050005049442073657474696E67738A
:102740003A00205A0020590020204D3230362058BF
:1027500000486F6D65206F666673657420286D6D27
:10276000293A00204500205A00205800204200202D
:10277000540020204D323035205300416476616E84
:10278000636564207661726961626C65733A205397
:102790003D4D696E20666565647261746520286DC3
:1027A0006D2F73292C20543D4D696E207472617613
:1027B000656C20666565647261746520286D6D2F97
:1027C00073292C20423D6D696E696D756D207365AE
:1027D000676D656E742074696D6520286D73292C92
:1027E00020583D6D6178696D756D205859206A6576
:1027F000726B20286D6D2F73292C20205A3D6D613E
:1028000078696D756D205A206A65726B20286D6D30
:102810002F73292C2020453D6D6178696D756D20E1
:1028200045206A65726B20286D6D2F732900205436
:102830000020204D323034205300416363656C65C5
:10284000726174696F6E3A20533D616363656C65B4
:10285000726174696F6E2C20543D7265747261638D
:102860007420616363656C65726174696F6E0020CA
:102870004500205A0020590020204D323031205888
:10288000004D6178696D756D20416363656C65729B
:102890006174696F6E20286D6D2F7332293A0020A4
:1028A0004500205A0020590020204D323033205856
:1028B000004D6178696D756D20666565647261743F
:1028C000657320286D6D2F73293A00204500205A2A
:1028D0000020590020204D39322058005374657073
:1028E000732070657220756E69743A005365747454
:1028F000696E67732053746F726564004572723A33
:10290000204D415854454D50204245440054656D7A
:1029100070657261747572652068656174656420A4
:10292000626564207377697463686564206F6666A6
:102930002E204D415854454D50207472696767658B
:10294000726564202121004572723A204D494E542F
:10295000454D50003A204578747275646572207355
:1029600077697463686564206F66662E204D494EF2
:1029700054454D5020747269676765726564202103
:10298000004572723A204D415854454D50003A204E
:1029900045787472756465722073776974636865CD
:1029A00064206F66662E204D415854454D5020746A
:1029B0007269676765726564202100202D20496E69
:1029C00076616C6964206578747275646572206ED6
:1029D000756D6265722021001000C90210012C0182
:1029E0004001220170011801B0010E01F001040143
:1029F0005002FA00B002F0003003E600D003DC0021
:102A00009004D2007005C800A006BE000008B40003
:102A1000B009AA00D00BA000600E960060118C00D7
:102A20000015820020197800C01D6E00A0226400ED
:102A3000B0275A00902C500000314600E0343C0092
:102A400010383200903A2800603C1E00A03D14006F
:102A5000803E0A00203F000070012C0190012701F8
:102A6000B0012201C0011D01F00118011002130183
:102A700030020E016002090190020401C002FF0051
:102A80000003FA004003F5008003F000D003EB00E0
:102A90002004E6007004E100E004DC004005D700FB
:102AA000C005D2004006CD00D006C8008007C30094
:102AB0003008BE00F008B900C009B400B00AAF0089
:102AC000B00BAA00D00CA500000EA000500F9B0078
:102AD000C01096005012910000148C00C0158700A1
:102AE000B0178200B0197D00D01B7800001E730063
:102AF00040206E0090226900F024640040275F00AF
:102B000090295A00E02B5500102E500020304B0029
:102B100010324600E033410090353C00103737005A
:102B200070383200A0392D00B03A2800A03B2300B5
:102B3000603C1E00103D1900903D1400103E0F0037
:102B4000703E0A00C03E0500003F0000504944208E
:102B50004175746F74756E652066696E697368651A
:102B600064212050757420746865206C6173742032
:102B70004B702C204B6920616E64204B6420636F86
:102B80006E7374616E74732066726F6D2061626F14
:102B9000766520696E746F20436F6E666967757223
:102BA0006174696F6E2E6800504944204175746FDE
:102BB00074756E65206661696C6564212074696D49
:102BC000656F75740020403A006F6B20543A006FB7
:102BD0006B20423A00504944204175746F74756E01
:102BE00065206661696C6564212054656D7065724D
:102BF000617475726520746F6F2068696768002062
:102C00004B643A2000204B693A2000204B703A2058
:102C10000020436C61737369632050494420002095
:102C200054753A2000204B753A2000206D61783AA7
:102C30002000206D696E3A200020643A2000206256
:102C40006961733A200045303A20005A3A20005911
:102C50003A2000583A20004D53312C4D5332205029
:102C6000696E730A0024F404D9201BC40C5C0E980E
:102C700004C4095F0265077101F405F900FB04B3A0
:102C80000048048700C10369005803550003034549
:102C900000BE023A008402310053022A00290225B4
:102CA0000004022000E4011C00C8011900AF011754
:102CB00000980114008401130071011000610110DB
:102CC0000051010E0043010D0036010B002B010BDA
:102CD0000020010B00150109000C01090003010887
:102CE00000FB000800F3000800EB000700E400060A
:102CF00000DE000600D8000600D2000600CC000569
:102D000000C7000500C2000500BD000400B90004B2
:102D100000B5000400B1000400AD000400A90004E7
:102D200000A5000300A20003009F0004009B000315
:102D30000098000300950002009300030090000338
:102D4000008D0002008B0003008800020086000254
:102D50000084000300810002007F0002007D000269
:102D6000007B00020079000200770001007600027B
:102D7000007400020072000100710002006F000286
:102D8000006D0001006C0002006A00010069000291
:102D90000067000100660001006500010064000298
:102DA000006200010061000100600001005F00029C
:102DB000005D0001005C0001005B0001005A0001A1
:102DC00000590001005800010057000100560001A1
:102DD00000550001005400010053000000530001A1
:102DE000005200010051000100500001004F00019D
:102DF000004E0000004E0001004D0001004C00019B
:102E0000004B0000004B0001004A00010049000196
:102E10000048000000480001004700010046000093
:102E2000004600010045000000450001004400018B
:102E30000043000000430001004200000042000186
:102E4000004100000041000100400001003F00007F
:102E5000003F0001003E0000003E0001003D000078
:102E6000003D0001003C0000003C0000003C00016F
:102E7000003B0000003B0001003A0000003A000166
:102E8000003900000039000100380000003800005F
:102E90000038000100370000003700010036000054
:102EA000003600000036000100350000003500004B
:102EB000003500010034000000340000003400013F
:102EC0000033000000330000003300010032000036
:102ED000003200000032000100310000003100002B
:102EE000003100010030000000300000003000011F
:102EF000002F0000002F0000002F0000002F000115
:102F0000002E0000002E0000002E0001002D000009
:102F1000002D0000002D0000002D0001002C0000FD
:102F2000002C0000002C0000002C0001002B0000F1
:102F3000002B0000002B0000002B0001002A0000E5
:102F4000002A0000002A0000002A000100290000D9
:102F500000290000002900000029000000290001CC
:102F600000280000002800000028000000280000C1
:102F700000280001002700000027000000270000B3
:102F800000270000002700010026000000260000A6
:102F90000026000000260000002600010025000099
:102FA000002500000025000000250000002500008D
:102FB000002500010024000000240000002400007F
:102FC0000024000000240001002300000023000072
:102FD0000023000000230000002300000023000065
:102FE0000023000100220000002200000022000057
:102FF0000022000000220000002200010021000049
:10300000002100000021000000210000002100003C
:10301000002100000021000100200000002000002D
:103020000020000000200000002000000020000020
:103030000020000000200001001F0000001F000011
:10304000001F0000001F0000001F0000001F000004
:10305000001F0001001E0000001E0000001E0000F6
:10306000001E00000024F4D43050C38E20C2A240C1
:1030700017828B7011127A910D816CD90AA861E1C7
:1030800008C7586607615143061E4B5D05C145A739
:10309000041A411104093D9803713931034036DBAC
:1030A0000265339102D4305402802E1D02632CEE4F
:1030B00001752AC501B028A001102781018F256460
:1030C000012B244B01E0223401AC211F018D200D86
:1030D00001801FFC00841EED00971DDF00B81CD28C
:1030E00000E61BC600201BBC00641AB200B219A87F
:1030F000000A19A0006A189900D117910040178B97
:1031000000B516840031167E00B31579003A1573A8
:1031100000C7146F0058146A00EE1366008813632A
:103120000025135E00C7125B006C12570015125485
:1031300000C111510070114F0021114B00D61049F0
:10314000008D1047004610440002104200C00F409E
:1031500000800F3E00420F3C00060F3B00CB0E38B4
:1031600000930E37005C0E3500270E3400F30D324D
:1031700000C10D3100900D3000600D2E00320D2D7C
:1031800000050D2C00D90C2B00AE0C2900850C2954
:10319000005C0C2700350C27000E0C2600E80B24E1
:1031A00000C40B2400A00B23007D0B23005A0B212D
:1031B00000390B2100180B2000F80A1F00D90A1E45
:1031C00000BB0A1E009D0A1D00800A1D00630A1C28
:1031D00000470A1B002C0A1B00110A1A00F7091AE3
:1031E00000DD091900C4091900AB0919009209177B
:1031F000007B091800630917004C091600360916F0
:1032000000200916000A091500F5081500E0081449
:1032100000CC081400B8081400A408140090081387
:10322000007D0812006B08130058081200460812AF
:1032300000340811002308110012081100010811C0
:1032400000F0071000E0071000D0071000C00710C2
:1032500000B0070F00A107100091070E0083070FB1
:103260000074070F0065070E0057070E0049070E90
:10327000003B070D002E070E0020070D0013070D61
:103280000006070D00F9060C00ED060D00E0060C27
:1032900000D4060C00C8060C00BC060C00B0060CDE
:1032A00000A4060B0099060C008D060B0082060B8D
:1032B0000077060B006C060B0061060A0057060B30
:1032C000004C060A0042060A0038060A002E060ACA
:1032D0000024060A001A060A001006090007060A5A
:1032E00000FD050900F4050900EB050900E20509E8
:1032F00000D9050900D0050900C7050900BE050968
:1033000000B5050800AD050800A50509009C0508E5
:1033100000940508008C050800840508007C050859
:1033200000740508006C050700650508005D0507C9
:1033300000560508004E0507004705070040050830
:103340000038050700310507002A05070023050797
:10335000001C050600160507000F050700080506F6
:103360000002050700FB040600F5040700EE040652
:1033700000E8040600E2040700DB040600D50406AA
:1033800000CF040600C9040600C3040600BD0406FD
:1033900000B7040600B1040500AC040600A604064C
:1033A00000A00405009B0406009504050090040697
:1033B000008A04050085040500800406007A0405DF
:1033C0000075040500700405006B04050066040523
:1033D00000610405005C0405005704050052040563
:1033E000004D04050048040500430405003E0404A4
:1033F000003A04050035040500300404002C0405DF
:103400000027040400230405001E0404001A040419
:103410000016040500110404000D0404000904054D
:10342000000404040000040400FC030400F8030486
:1034300000F4030400F0030400EC030400E80304B8
:1034400000E4030400E0030400DC030400D80304E8
:1034500000D4030400D0030400CC030400C8030319
:1034600000C5030300656E6473746F707320686930
:10347000743A205A00205A3A00656E6473746F7073
:1034800073206869743A20590020593A00656E64C7
:1034900073746F7073206869743A20580020583A2A
:1034A00000656E6473746F7073206869743A2000ED
:1034B0004D383420582059205A20450043616E6E03
:1034C0006F7420656E746572207375626469723AF8
:1034D00020004D3234004D32332025730061757465
:1034E0006F25692E67006572726F7220777269743A
:1034F000696E6720746F2066696C65004E6F74207A
:103500005344207072696E74696E67002F005344D3
:10351000207072696E74696E67206279746520002C
:103520002E0044656C6574696F6E206661696C6518
:10353000642C2046696C653A200046696C652064FD
:10354000656C657465643A002E006F70656E206668
:1035500061696C65642C2046696C653A200057727D
:103560006974696E6720746F2066696C653A200023
:103570002E006F70656E206661696C65642C204654
:10358000696C653A20002E006F70656E2066616977
:103590006C65642C2046696C653A200046696C6550
:1035A0002073656C6563746564002053697A653ABD
:1035B000200046696C65206F70656E65643A200076
:1035C0002E006F70656E206661696C65642C204604
:1035D000696C653A20004E6F7720667265736820CB
:1035E00066696C653A20004E6F7720646F696E677C
:1035F0002066696C653A20002220706F73002220DB
:10360000706172656E743A2200535542524F5554A0
:10361000494E452043414C4C207461726765743AB1
:103620002200747279696E6720746F2063616C6C1C
:10363000207375622D67636F64652066696C6573BE
:10364000207769746820746F6F206D616E79206CCB
:103650006576656C732E204D4158206C6576656CDF
:103660002069733A0053442063617264206F6B00D9
:103670006F70656E526F6F74206661696C6564006F
:10368000766F6C756D652E696E6974206661696C04
:10369000656400534420696E6974206661696C003A
:1036A0007C3C3E5E2B3D3F2F5B5D3B2C2A225C0029
:1036B00001050800FF060121023520FFFF07FF0674
:1036C000FF090050221656808080800080153353F9
:1036D000A0A0A00257575050F850F850500257572A
:1036E0002070A07028702013355580A040A02002C3
:1036F000475740A0A040A0A05025135380808012BF
:1037000026564080808080401226568040404040AF
:10371000800245559060F060900255552020F820B9
:1037200020113353604080044151F011335340E085
:103730004002465610102040808012365640A0A00D
:10374000A0A04012365640C0404040E002465660BD
:1037500090106080F0024656F020601090600246A3
:10376000562060A0F02020024656F080E0109060C5
:103770000246566080E0909060024656F01020208D
:1037800040400246566090609090600246566090BD
:1037900090701060122555C0C000C0C01136566030
:1037A00060006040801236562040808040200343F5
:1037B00053F000F0123656804020204080123656DA
:1037C00040A020400040015858304898A8A8904098
:1037D00030024656609090F09090024656E090E09D
:1037E0009090E0024656609080809060024656E0DD
:1037F00090909090E0024656F080E08080F0024683
:1038000056F080E0808080024656609080B09060E4
:103810000246569090F0909090123656E04040400C
:1038200040E002465670202020A04002465690A05C
:10383000C0A0A0900246568080808080F00246564C
:1038400090F0F090909002465690D0F0B0B0900278
:103850004656609090909060024656E09090E080CE
:1038600080014757609090D0B06010024656E090BB
:1038700090E090900246566090402090601236563C
:10388000E040404040400246569090909090600248
:103890004656909090906060024656909090F0F05E
:1038A00090024656909060609090025656888850DC
:1038B000202020024656F010204080F0123656E0BC
:1038C00080808080E00246568080402010101236B2
:1038D00056E020202020E016325240A0014151F055
:1038E00016225280400244547090907002465680D6
:1038F00080E09090E0123454608080600246561060
:10390000107090907002445460B0C060024656201F
:103910005040E040400145556090701060024656AE
:103920008080E09090901236564000C04040E011F8
:1039300037572000202020A040024656808090E08B
:103940009090123656C040404040E0025454D0A8F7
:10395000A8A8024454E09090900244546090906073
:10396000014555E090E08080014555709070101041
:10397000024454A0D0808012345460C020C002465B
:10398000564040E0405020024454909090701234D1
:1039900054A0A0A04002545488A8A85002445490B7
:1039A0006060900145559090709060024454F02002
:1039B00040F0024757304020C02040302216568049
:1039C0008080808080024757C02040304020C00661
:1039D000425250A0FFFFFFFFFFFFFFFFFFFFFFFF6F
:1039E000FFFFFFFFFFFFFFFFFFFFFFFFFFFFFFFFE7
:1039F000FFFFFFFFFF0900502216568000808080E5
:103A0000800146562070A0A070200246562050E04B
:103A10004050A00255558870507088025656885004
:103A2000F820F8202217578080800080808002478D
:103A3000577080E0907010E0173151A00256567018
:103A4000A8C8C8A87014355560A06000E0034353AF
:103A500050A050123353E02020143151E00256564A
:103A600070E8D8E8D870173151E015335340A040C2
:103A700012355540E04000E014355540A02040E0AC
:103A8000143555C020C020C0162252408001455533
:103A9000909090E08002565678E8E8682828241133
:103AA0005180112252408014355540C04040E014EE
:103AB000355540A04000E0034353A050A0024757B3
:103AC000808080A060F0200247578080A0D0102026
:103AD0007002475780408060A0F0201236564000A8
:103AE0004080A04002475740206090F090900247ED
:103AF0005720406090F0909002475760906090F09F
:103B0000909002475750A06090F0909002475790D5
:103B1000006090F0909002475760906090F0909015
:103B200002465670A0A0F0A0B00147576090808078
:103B30009060400247574020F080E080F0024757F5
:103B40002040F080E080F00247576090F080E080F5
:103B5000F00247579000F080E080F0123757804025
:103B6000E0404040E01237572040E0404040E01243
:103B7000375740A0E0404040E0123757A000E040F7
:103B80004040E00256567048E84848700247575097
:103B9000A090D0B0909002475740206090909060E5
:103BA00002475720406090909060024757609060B5
:103BB0009090906002475750A060909090600247AC
:103BC0005790006090909060123353A040A002463E
:103BD0005670B0B0D0D0E0024757402090909090FF
:103BE0006002475720409090909060024757609045
:103BF0009090909060024757900090909090600253
:103C000057571020885020202002465680E0909080
:103C1000E0800246566090A0A090A0024757402046
:103C20000070909070024757204000709090700292
:103C300047572050007090907002475750A0007076
:103C400090907002465650007090907002475760F6
:103C5000906070909070025454F068B078113555AF
:103C6000608080604002475740200060B0C0600222
:103C7000475720400060B0C0600247576090006026
:103C8000B0C060024656500060B0C0601237578026
:103C90004000C04040E0123757204000C04040E0A4
:103CA00012375740A000C04040E0123656A000C076
:103CB0004040E0024757A040A01070906002475774
:103CC00050A000E0909090024757402000609090F4
:103CD0006002475720400060909060024757609014
:103CE000006090906002475750A000609090600282
:103CF00046569000609090601235554000E00040BC
:103D000002445470B0D0E002475740200090909099
:103D10007002475720400090909070024757609083
:103D200000909090700246569000909090700148DC
:103D30005820400090907090600147578080E0903C
:103D4000E0808001475790009090709060000912C9
:103D500000FC0A01E803D720FFFD0EFD0BFD00006B
:103D60000009000E010B0B09040080808080808018
:103D7000800000808004040409030790909090085C
:103D80000A0A090000242424FF2424FF24242407F1
:103D90000B0B0901FF107C929050381412927C108A
:103DA000070A0A09010042A4A4481010244A4A84C0
:103DB000070A0A09010060909090606294889462FA
:103DC00001040409040780808080030C0C0903FFB0
:103DD000204040808080808080404020030C0C097F
:103DE00003FF804040202020202020404080070703
:103DF000070901031092543854921007070709016C
:103E000001101010FE1010100204040904FEC0C0BE
:103E10004080070101090104FE020202090400C0FA
:103E2000C0070A0A090100020404081010204040DB
:103E300080070A0A09010038448282828282824411
:103E400038070A0A090100103050901010101010A5
:103E5000FE070A0A090100384482020408102040C3
:103E6000FE070A0A090100FE02040818040202847F
:103E700078070A0A090100040C14244484FE04048F
:103E800004070A0A090100FE808080F80402028407
:103E900078070A0A0901003C408080B8C482824445
:103EA00038070A0A090100FE02040408081010106D
:103EB00010070A0A090100384482443844828244C7
:103EC00038070A0A09010038448282463A0202048D
:103ED00078020707090400C0C0000000C0C0020942
:103EE000090904FEC0C0000000C0C04080050909E7
:103EF000090200081020408040201008070404092F
:103F00000102FE0000FE05090909020080402010A0
:103F10000810204080070A0A090100384482020480
:103F20000810100010070A0A09010038449AAAAACA
:103F3000AAAA9C403C070A0A090100102828284424
:103F40007C44828282070A0A090100F8848284F88C
:103F500084828284F8070A0A0901003C428080803A
:103F6000808080423C070A0A090100F8848282822C
:103F700082828284F8070A0A090100FE808080F8A4
:103F800080808080FE070A0A090100FE808080F898
:103F90008080808080070A0A09010038448280807E
:103FA0008E82824438070A0A09010082828282FED8
:103FB0008282828282050A0A090200F820202020DB
:103FC00020202020F8070A0A0901003E08080808F6
:103FD0000808888870070A0A09010082848890A06E
:103FE000D088848282070A0A09010080808080804C
:103FF00080808080FE070A0A0901008282C6AA9298
:104000008282828282070A0A0901008282C2A29207
:104010008A86828282070A0A0901007C8282828261
:10402000828282827C070A0A090100F884828284E3
:10403000F880808080080B0B0901FF38448282825F
:1040400082828A443A01070A0A090100F8848282BE
:1040500084F890888482070A0A0901007C828080A3
:104060007C020202827C070A0A090100FE1010107D
:10407000101010101010070A0A09010082828282B3
:10408000828282824438070A0A09010082828244BD
:10409000444428282810070A0A09010082828282E3
:1040A00092929292AA44070A0A0901008282442845
:1040B000101028448282070A0A09010082824428DB
:1040C000101010101010070A0A090100FE0204085F
:1040D0001020408080FE040C0C0903FFF0808080DB
:1040E00080808080808080F0070A0A09010080407B
:1040F0004020101008040402040C0C0902FFF01008
:10410000101010101010101010F007040409010610
:10411000102844820801010900FFFF03030309037B
:104120000A8040200707070901007C02027E828680
:104130007A070A0A090100808080BCC2828282C29A
:10414000BC0707070901007C82808080827C070A07
:104150000A0901000202027A86828282867A0707B1
:10416000070901007C8282FE80827C070A0A09011D
:10417000001C22222020F820202020070A0A090102
:10418000FD7A84848478807C82827C070A0A090113
:1041900000808080BCC28282828282050A0A090273
:1041A00000600000E02020202020F8050D0D09020D
:1041B000FD18000038080808080808888870070AF1
:1041C0000A090100808080848890B0C88482050A32
:1041D0000A090200E02020202020202020F80707E4
:1041E00007090100EC929292929282070707090157
:1041F00000BCC282828282820707070901007C829A
:10420000828282827C070A0A0901FDB8C482828206
:10421000C4B8808080070A0A0901FD3A468282827A
:10422000463A0202020707070901009C6242404029
:1042300040400707070901007C82807C02827C07DE
:1042400009090901002020FC20202020221C07074A
:10425000070901008282828282867A0707070901A4
:10426000008282444428281007070709010082823F
:10427000929292AA44070707090100824428102855
:104280004482070A0A0901FD424224242418181016
:104290009060070707090100FE0408102040FE0691
:1042A0000B0B0902001C20202020C0202020201CF5
:1042B000010C0C0904FF80808080808080808080D9
:1042C0008080060B0B090100E0101010100C10107C
:1042D0001010E007030309010762928CFFFFFFFF44
:1042E000FFFFFFFFFFFFFFFFFFFFFFFFFFFFFFFFDE
:1042F000FFFFFFFFFFFFFFFFFFFFFFFFFF000000CB
:1043000009000E010B0B09040080800000808080F2
:104310008080808006080809010008789490A0A495
:104320007840070A0A0901001C222020F82020609A
:10433000A25C070606090103827C44447C82070ACA
:104340000A090100828244287C107C101010010BA5
:104350000B0904FF80808080800080808080800442
:104360000B0B0902FF60908060909090601090604D
:1043700003020209030BA0A00809090900013C423D
:1043800099A5A1A599423C05070709010360907012
:10439000907800F807080809010112244890904815
:1043A0002412060404090102FC04040405010109A5
:1043B0000204F80809090900013C42B9A5BDA9A5F4
:1043C000423C060101090109FC04040409030660DA
:1043D000909060070909090101101010FE101010DB
:1043E00000FE0406060901046090106080F00406D7
:1043F0000609010460902010906003030309030A7A
:104400002040800709090901FE8282828282C6BAA1
:104410008080070A0A0901007E8A8A8A7A0A0A0AC3
:104420000A0A020202090404C0C00403030902FDCF
:1044300020906003060609010440C0404040E005AA
:1044400006060901047088887000F8070808090149
:10445000019048241212244890070A0A09010040DA
:10446000C0404042E60A121A06070A0A0901004043
:10447000C040404CF2020C101E070A0A09010060FD
:1044800090201092660A121A06070A0A0901001003
:1044900000101020408082827C070E0E090100204F
:1044A00010080010282828447C44828282070E0EBF
:1044B0000901000810200010282828447C4482822A
:1044C00082070E0E090100102844001028282844F5
:1044D0007C44828282070D0D0901003458001028A7
:1044E0002828447C44828282070D0D090100282877
:1044F0000010282828447C44828282070E0E09017D
:10450000001028281010282828447C448282820722
:104510000A0A0901001E2828284E784888888E0734
:104520000D0D0901FD3C42808080808080423C0866
:104530002418070E0E09010020100800FE8080805C
:10454000F880808080FE070E0E0901000810200010
:10455000FE808080F880808080FE070E0E090100BA
:1045600010284400FE808080F880808080FE070D47
:104570000D090100282800FE808080F8808080805E
:10458000FE050E0E09020040201000F82020202019
:1045900020202020F8050E0E09020010204000F80F
:1045A0002020202020202020F8050E0E09020020C7
:1045B000508800F82020202020202020F8050D0D14
:1045C000090200505000F82020202020202020F850
:1045D000070A0A09010078444242F2424242447802
:1045E000070D0D0901003458008282C2A2928A860A
:1045F000828282070E0E090100201008007C828250
:104600008282828282827C070E0E090100081020BD
:10461000007C82828282828282827C070E0E090165
:1046200000102844007C82828282828282827C07FF
:104630000D0D0901003458007C82828282828282C0
:10464000827C070D0D0901002828007C828282826D
:10465000828282827C070707090101824428102890
:104660004482070C0C0901FF027C868A8A9292A27E
:10467000A2C27C80070E0E09010020100800828271
:104680008282828282824438070E0E09010008105D
:10469000200082828282828282824438070E0E0942
:1046A0000100102844008282828282828282443801
:1046B000070D0D09010028280082828282828282F1
:1046C000824438070E0E090100081020008282443F
:1046D00028101010101010070A0A0901008080FC31
:1046E000828282FC808080060A0A090100384444E4
:1046F00048D04844444458070B0B090100201008D7
:10470000007C02027E82867A070B0B0901000810EA
:1047100020007C02027E82867A070B0B09010010C2
:104720002844007C02027E82867A070A0A09010078
:104730003458007C02027E82867A070A0A09010048
:104740002828007C02027E82867A070C0C09010070
:1047500010282810007C02027E82867A070707094B
:1047600001006C12127E90926C070A0A0901FD7C0E
:1047700082808080827C104830070B0B090100206A
:104780001008007C8282FE80827C070B0B090100EE
:10479000081020007C8282FE80827C070B0B0901BE
:1047A00000102844007C8282FE80827C070A0A096D
:1047B00001002828007C8282FE80827C050C0C0986
:1047C00002008040200000E02020202020F8050C7E
:1047D0000C0902001020400000E02020202020F8DA
:1047E000050C0C0902002050880000E02020202049
:1047F00020F8050B0B09020050500000E02020209B
:104800002020F8070B0B090100483050083C448277
:1048100082824438070A0A090100345800BCC28267
:1048200082828282070B0B090100201008007C8223
:10483000828282827C070B0B090100081020007C19
:1048400082828282827C070B0B09010010284400BF
:104850007C82828282827C070A0A09010034580025
:104860007C82828282827C070A0A09010028280051
:104870007C82828282827C0709090901001038103B
:1048800000FE001038100709090901FF027C8A8A1E
:1048900092A2A27C80070B0B09010040201000822D
:1048A00082828282867A070B0B09010008102000A1
:1048B0008282828282867A070B0B090100102844CB
:1048C000008282828282867A070A0A0901002828E9
:1048D000008282828282867A070E0E0901FD040818
:1048E000100042422424241818109060070B0B0972
:1048F00001FE8080B8C4828282C4B88080070D0D1A
:104900000901FD2424004242242424181810906038
:1049100000002100240027002A002D003000330071
:1049200001010000040107010A0100002200250026
:1049300028002B002E003100340002010000050188
:1049400008010B01000020002300260029002C0094
:104950002F003200000100000301060109010505D6
:104960000505070508080808020202020A0A0808E5
:104970000404040401010101010101010303030313
:1049800003030303040707070C0C0C0C0C0C0C0CA2
:104990000202020206060606060606060B0B0B0BB3
:1049A0000B0B0B0B010210202008081020401020D8
:1049B00040800201020108040201010204081020E3
:1049C00040808040201008040201800402018040E1
:1049D000201008040201080402010102040810204A
:1049E000408001020408102040800000090A0208EB
:1049F0000B0C0D070603040100000000000000007E
:104A000000000000000000000000000000000000A6
:104A100000000000000011100F0000000000000066
:104A20000000000000000000000000000000000086
:104A300002494E46494E4954594E414ECDCCCC3D8B
:104A40000AD7233C17B7D13877CC2B329595E6247B
:104A50001FB14F0A000020410000C84200401C4620
:104A600020BCBE4CCA1B0E5AAEC59D740D94ED0100
:104A70004F684675C07CCFF6BB7C11241FBECFEFBC
:104A8000D1E2DEBFCDBF00E00CBF14E0A0E0B2E099
:104A9000EAE9F6E102E00BBF02C007900D92AC3FDD
:104AA000B107D9F71BBE15E1ACEFB4E001C01D9210
:104AB000A83BB107E1F71AE4C8E7DAE404C022979B
:104AC000FE010F94F30AC037D107C9F70F94D3053D
:104AD0000D94410B0C940000A0E0B0E0E2E7F5E299
:104AE0000D94100BEC015B016115710519F0FB01D0
:104AF00091838083F9908F2D90E00F94F70A892B92
:104B0000C9F7FDE2FF1621F4F990EE24E39405C005
:104B10002BE2F21609F4F990EE248E0101501040B8
:104B2000C80161E37AE443E050E072D2892BF9F4E2
:104B30008E010E5F1F4FC80164E37AE445E050E048
:104B400067D2892B19F48E01095F1F4FA114B1049C
:104B500019F0F50111830083E0FC04C070E090E0DF
:104B600080E813C070E090E080E86FEF07C1C801F3
:104B700069E37AE443E050E04BD2892B69F4A11455
:104B8000B10429F470E090E080EC6FE7F7C0229662
:104B9000F501D183C083F6CF8824992440E050E00A
:104BA00060E070E0EF2DE053EA30A0F5F2E0EF2A8C
:104BB0008E2D90E09C0128703070E2FE06C0232B01
:104BC00079F50894811C911C2BC0232B19F00894B3
:104BD00081089108DB01CA0112E0880F991FAA1F02
:104BE000BB1F1A95D1F7480F591F6A1F7B1F440F2F
:104BF000551F661F771F4E0F511D611D711D4839CE
:104C000029E9520729E9620729E1720748F084E09F
:104C1000E82A06C0EE3F31F4E3FC39C098E0E92A07
:104C2000F990C0CFE53311F0E53189F529912D32A6
:104C300019F4E0E1EE2A05C02B3219F081E090E092
:104C400003C0299182E090E0E22FE053EA3018F0AF
:104C5000C81BD90B1CC020E030E0FCE020383F0727
:104C60005CF4C901880F991F880F991F280F391FFD
:104C7000220F331F2E0F311DE991E053EA3068F304
:104C8000E4FE03C0309521953F4F820E931ECE2C3B
:104C9000DD24E1FE07C0A114B10421F02197F50144
:104CA000D183C083CB01BA010F945C077B018C01D7
:104CB000F3E0CF22DD2423E0C216D10421F417FB58
:104CC000109517F9109557016801C801B70120E048
:104CD00030E040E050E00F94BC06882309F44AC05D
:104CE00097FE0DC020E5E22E2AE4F22E90948194E6
:104CF00091089394C0E2D0E000E010E012C098E682
:104D0000E92E9AE4F92EF6CFF701259135914591D8
:104D10005491C601B5010F949C095B016C018C1A7A
:104D20009D0A8C169D0684F7D595C7950F5F1F4F7A
:104D30000630110529F08CEF9FEFE80EF91EF1CF38
:104D4000C501D6017C018D018C2D880F8D2D881F0A
:104D50008F3F51F0C601B50120E030E040E050E067
:104D60000F94BC06882331F482E290E09093B7154B
:104D70008093B6157E2D9F2D802F612F272F392FE1
:104D8000482F562FB901CA01CDB7DEB7ECE00D941C
:104D90002C0B2F923F925F926F927F928F929F92F5
:104DA000AF92BF92CF92DF92EF92FF920F931F9339
:104DB000CF93DF938C011B01EA016115710519F096
:104DC000FB0191838083209749F0CE01029783975E
:104DD00028F020E030E040E050E0F6C0F801A1907B
:104DE0008F018A2D90E00F94F70A892BB9F7FDE225
:104DF000AF1631F4F801A1908F015524539407C0E8
:104E0000FBE2AF1619F4F801A1908F015524209709
:104E100019F0C031D105C1F4F0E3AF1679F4F8010F
:104E20008081883711F0883549F4F801A1800E5F40
:104E30001F4FF2E05F2AC0E1D0E006C0209721F4C6
:104E400080E3A816E9F427C0C830D10531F1C93094
:104E5000D10524F4C230D10531F50CC0CA30D105DA
:104E600089F0C031D105F9F4C12CD12CE12CB8E086
:104E7000FB2E28C0C12CD12CE12CA0E4FA2E22C09C
:104E8000CAE0D0E0FCECCF2EFCECDF2EFCECEF2EE9
:104E9000FCE0FF2E17C0C8E0D0E0C12CD12CE12CE3
:104EA000E0E1FE2E0FC09E01442737FD4095542FB0
:104EB00060E070E080E090E80F94B40AC901DA0184
:104EC0006C017D0120E030E040E050E060E03E0118
:104ED000882477FC8094982C70EDB72EBA0CE9E00A
:104EE000EB1570F48A2D81548A3118F499ECB92E9F
:104EF00006C08A2D81568A3150F589EAB82EBA0C3F
:104F00008B2D90E08C179D0714F56F3FE1F0C216D2
:104F1000D306E406F506B0F0CA01B901A401930175
:104F20000F946E0A9B01AC012B0D311D411D511DCB
:104F30002130F0E03F07F0E04F07F0E85F0710F4A2
:104F400061E001C06FEFF801A1908F01C5CF21147E
:104F5000310481F0662331F001501040F1011183DA
:104F6000008308C051FE1AC002501040F1011183A5
:104F7000008314C067FF12C050FC05C02FEF3FEF45
:104F80004FEF5FE704C020E030E040E050E882E20D
:104F900090E09093B7158093B61516C050FE08C0E8
:104FA00050954095309521953F4F4F4F5F4F0CC026
:104FB00057FF0AC082E290E09093B7158093B61530
:104FC0002FEF3FEF4FEF5FE7B901CA01DF91CF91BC
:104FD0001F910F91FF90EF90DF90CF90BF90AF9017
:104FE0009F908F907F906F905F903F902F9008954B
:104FF000FB01DC0105900D920020E1F70895FC0112
:1050000005900020E9F7809590958E0F9F1F0895D9
:10501000FB01DC014150504088F08D9181341CF03F
:105020008B350CF4805E659161341CF06B350CF4AB
:10503000605E861B611171F3990B0895881BFCCF8C
:10504000FB01DC014150504048F005900D920020DA
:10505000C9F701C01D9241505040E0F70895FB018F
:1050600055915523A9F0BF01DC014D914517411120
:10507000E1F759F4CD010590002049F04D9140151C
:105080004111C9F3FB014111EFCF81E090E001979D
:105090000895FB01DC0104C08D910190801921F479
:1050A00041505040C8F7881B990B0895FB01DC0163
:1050B00002C001900D9241505040D8F70895FB0175
:1050C000DC018D9181341CF08B350CF4805E619194
:1050D00061341CF06B350CF4605E861B611189F342
:1050E000990B0895FB01DC010D900020E9F7119761
:1050F00001900D920020E1F70895FC01819186173F
:1051000021F08823D9F7992708953197CF01089581
:10511000FB01DC018D91019080190110D9F3990BED
:105120000895FB01DC0101900D920020E1F7089544
:10513000FB01DC014150504030F08D91019080190D
:1051400019F40020B9F7881B990B0895FB01DC01C5
:105150004150504048F001900D920020C9F701C025
:105160001D9241505040E0F70895AEE0B0E0EBEB07
:10517000F8E20D94180B0E891F898EE08C831A8338
:1051800009838FEF9FE79E838D839E01265E3F4FAD
:10519000CE010196688D798DA9010AD02F813885BD
:1051A000020F131FF80110822E96E4E00D94340BC9
:1051B000ABE0B0E0EEEDF8E20D940A0B3C012B0100
:1051C0005A01FC0117821682838181FD03C06FEFB3
:1051D0007FEFB9C19AE0892E1E010894211C311C71
:1051E000F3012381F20123FD859123FF81912F019A
:1051F000882309F4A5C1853239F423FD859123FF65
:1052000081912F01853221F490E0B301B7D1E8CF2D
:10521000982FFF24EE249924FFE1FF15D0F09B3254
:1052200069F09C3228F4903259F0933291F40EC018
:105230009D3249F0903369F441E024C052E0F52AF0
:1052400084E0F82A28C098E0F92A25C0E0E1FE2A87
:1052500022C0F7FC29C0892F80538A3070F4F6FEF3
:1052600005C0989C902C1124980E15C0E89CE02C49
:105270001124E80EF0E2FF2A0EC09E3229F4F6FC5B
:105280005FC140E4F42A07C09C3619F450E8F52ABF
:1052900002C0983649F4F20123FD959123FF9191C4
:1052A0002F01992309F0B8CF892F8554833018F046
:1052B0008052833038F444E050E0A40EB51E5FE322
:1052C00059830FC0933631F0933779F0933509F055
:1052D00052C01FC0F5018081898342E050E0A40ED6
:1052E000B51E610101E010E011C0F501C080D18060
:1052F000F6FC03C06FEF7FEF02C0692D70E042E063
:1053000050E0A40EB51EC6012ED18C015FE7F52238
:1053100013C0F501C080D180F6FC03C06FEF7FEFB2
:1053200002C0692D70E042E050E0A40EB51EC60137
:105330000FD18C0150E8F52AF3FE06C018C080E2B8
:1053400090E0B3011BD1EA948E2D90E00817190765
:10535000B0F30DC0F601F7FC8591F7FE81916F0166
:1053600090E0B3010BD1E110EA9401501040011517
:10537000110581F7E2C0943611F0993661F5F7FE18
:1053800008C0F501208131814281538184E090E0A1
:105390000AC0F501808191819C01442737FD409529
:1053A000542F82E090E0A80EB91E9FE6F92257FF25
:1053B00009C050954095309521953F4F4F4F5F4F15
:1053C000E0E8FE2ACA01B901A1012AE030E002D1D9
:1053D000D82ED2183FC0953729F41F2D1F7E2AE002
:1053E00030E01DC01F2D197F9F3661F0903720F4EB
:1053F000983509F0A5C00FC0903739F0983709F0FB
:105400009FC004C028E030E00AC0106114FD1460A1
:1054100020E130E004C014FD166020E132E017FF07
:1054200008C0F501608171818281938144E050E080
:1054300008C0F50180819181BC0180E090E042E0EC
:1054400050E0A40EB51EA101C5D0D82ED2188FE70A
:10545000F82EF122F6FE0BC05EEFF522D91438F4D7
:10546000F4FE07C0F2FC05C08FEEF82202C01D2D2D
:1054700001C0192DF4FE0DC0FE01ED0DF11D80815E
:10548000803319F499EEF92208C01F5FF2FE05C0BF
:1054900003C08F2D867809F01F5F0F2DF3FC13C01A
:1054A000F0FE0EC01E1510F09D2C0AC09D2C9E0C07
:1054B000911A1E2D05C080E290E0B3015FD01F5FFE
:1054C0001E15C8F304C01E1510F4E11A01C0EE2425
:1054D00004FF0EC080E390E0B30150D002FF1BC078
:1054E00001FD03C088E790E00EC088E590E00BC0A6
:1054F000802F867881F001FF02C08BE201C080E23C
:10550000F7FC8DE290E0B30139D005C080E390E074
:10551000B30134D09A94D914C8F3DA94F101ED0DA3
:10552000F11D808190E0B30129D0DD20B1F705C0E5
:1055300080E290E0B30122D0EA94EE20C9F750CE89
:10554000F30166817781CB012B96E2E10D94260B66
:10555000FC010590615070400110D8F7809590953E
:105560008E0F9F1F0895FC01615070400190011043
:10557000D8F7809590958E0F9F1F08950F931F93D6
:10558000CF93DF938C01EB018B8181FF1BC082FFE6
:105590000DC02E813F818C819D812817390764F4CD
:1055A000E881F9810193F983E88306C0E885F985EC
:1055B000802F1995892B31F48E819F8101969F83CD
:1055C0008E8302C00FEF1FEFC801DF91CF911F91B3
:1055D0000F910895FA01AA27283051F1203181F165
:1055E000E8946F936E7F6E5F7F4F8F4F9F4FAF4FEB
:1055F000B1E03ED0B4E03CD0670F781F891F9A1FFE
:10560000A11D680F791F8A1F911DA11D6A0F711DB1
:10561000811D911DA11D20D009F468943F912AE0BD
:10562000269F11243019305D3193DEF6CF010895A5
:10563000462F4770405D4193B3E00FD0C9F7F6CFD6
:10564000462F4F70405D4A3318F0495D31FD40529E
:10565000419302D0A9F7EACFB4E0A6959795879534
:1056600077956795BA95C9F7009761057105089513
:105670009B01AC010A2E06945795479537952795BF
:10568000BA95C9F7620F731F841F951FA01D089557
:10569000382F20E0119837FF06C09FB7F89480910B
:1056A0000201816005C09FB7F894809102018E7F4E
:1056B000809302019FBF119A2F5F283011F0330FA2
:1056C000E9CF08958F929F92AF92BF92CF92DF92CF
:1056D000EF92FF920F931F934B016091DB03709148
:1056E000DC0370935E0760935D07609151077091D2
:1056F00052077093600760935F0762E06093DD0379
:1057000061E379E57093DC036093DB0390936207B8
:10571000809361079092640780926307CA01B90180
:1057200020E030E048EC52E40F949C090F942B07E2
:105730006093650770936607809367079093680787
:105740000F945E075B016C01C801B70120E030E0F7
:1057500048EC52E40F949C09A60195010F94E205D0
:105760000F942B076093690770936A0780936B0708
:1057700090936C07F401608171818281938120E0B4
:1057800030E048EC52E40F949C09A60195010F9477
:10579000E2050F943007609351077093520780938E
:1057A0005307909354071F910F91FF90EF90DF9054
:1057B000CF90BF90AF909F908F9008956F927F92FF
:1057C0008F929F92AF92BF92CF92DF92EF92FF9211
:1057D0000F931F933B016091DB037091DC03709387
:1057E0005E0760935D076091510770915207709357
:1057F000600760935F0762E06093DD0366E279E52E
:105800007093DC036093DB039093620780936107DE
:105810007092640760926307CA01B9010F945C0734
:105820002AE037ED43E25CE30F949C090F942B07C9
:105830006093650770936607809367079093680786
:105840000F945E074B015C01C801B7010F945C0720
:105850002AE037ED43E25CE30F949C09A501940133
:105860000F94E2050F942B076093690770936A0702
:1058700080936B0790936C07F30160817181828143
:1058800093810F945C072AE037ED43E25CE30F94C9
:105890009C09A50194010F94E2050F9430076093D1
:1058A0005107709352078093530790935407D092F7
:1058B0006E07C0926D071F910F91FF90EF90DF90E0
:1058C000CF90BF90AF909F908F907F906F900895F2
:1058D00080935B0710925C07089510920905089564
:1058E00081E0089580914A0790E096958795969576
:1058F000879581700895FC012081822F90E06AE0F5
:1059000070E00F94A10ACB016AE070E00F94A10A45
:10591000805D80937B07822F90E06AE070E00F94B7
:10592000A10A805D80937C0710927D078BE797E04A
:105930000895FC01608171818281938120E030E0D3
:1059400040E251E40F949C090F942B079B0177FFD1
:1059500002C08DE201C08BE280937B0737FF03C05A
:10596000309521953F4FC90168EE73E00F94A10A6D
:10597000CB016AE070E00F94A10A805D80937C0700
:10598000C90164E670E00F94A10ACB016AE070E0FF
:105990000F94A10A805D80937D07C9016AE070E0E1
:1059A0000F94A10ACB016AE070E00F94A10A805D18
:1059B00080937E078EE280937F07C9016AE070E0E2
:1059C0000F94A10A805D80938007109281078BE776
:1059D00097E00895FC01608171818281938120E0CC
:1059E00030E040E251E40F949C090F942B079B0197
:1059F00077FF03C0309521953F4FC90168EE73E0F2
:105A00000F94A10ACB016AE070E00F94A10A805DB7
:105A100080937B07C90164E670E00F94A10ACB0173
:105A20006AE070E00F94A10A805D80937C07C90151
:105A30006AE070E00F94A10ACB016AE070E00F9475
:105A4000A10A805D80937D078EE280937E07C90165
:105A50006AE070E00F94A10A805D80937F07109246
:105A600080078BE797E00895EF92FF920F931F93C3
:105A7000FC01608171818281938120E030E048ECFB
:105A800052E40F949C090F942B077B018C0197FD26
:105A900012C020E137E240E050E00F94D60ACA017C
:105AA000B9012AE030E040E050E00F94D60A605D92
:105AB00060937B0703C08DE280937B0717FF08C0CC
:105AC00010950095F094E094E11CF11C011D111D4E
:105AD000C801B70128EE33E040E050E00F94D60A49
