:100000000C943B100C9468100C9468100C946810BD
:100010000C9468100C9468100C9468100C94681080
:100020000C9468100C9468100C9468100C94681070
:100030000C9468100C94ACE60C9468100C94681046
:100040000C9468100C94C5BC0C9468100C94681047
:100050000C9468100C9468100C9434B10C94F9E46E
:100060000C9468100C94105D0C9468100C9468103B
:100070000C9468100C9468100C9468100C94681020
:100080000C9468100C9468100C9468100C94681010
:100090000C9468100C9468100C9468100C948EDF0B
:1000A0000C9468100C9468100C9468100C946810F0
:1000B0000C9468100C9468100C9468100C946810E0
:1000C0000C9468100C9468100C9468100C946810D0
:1000D0000C9468100C9468100C9468100C946810C0
:1000E0000C946810084AD73B3BCE016E84BCBFFD20
:1000F000C12F3D6C74319ABD56833DDA3D00C77FF8
:1001000011BED9E4BB4C3E916BAAAABE0000008090
:100110003F05A84CCDB2D44EB93836A9020C50B91F
:10012000918688083CA6AAAA2ABE000000803F2D1E
:100130002D3A2D2D002D2D2D005344002059000166
:1001400020000120004E6F20686179207461726A7E
:10015000657461205344004D656E752064652053BD
:100160004400446574656E657220696D70726573D4
:10017000696F6E005265616E7564617220696D70A1
:100180007265732E0050617573617220696D7072B3
:100190006573696F6E00436F6E74726F6C0050729E
:1001A00065706172617200416A7573746172004DAD
:1001B0006F6E69746F72697A617200052E2E004D40
:1001C000656E75207072696E636970616C004D3286
:1001D00034004D3233202573004D383420582059D7
:1001E000205A204500526573742E20646520656D89
:1001F000657267656E2E00436172676172206D657E
:100200006D6F7269610047756172646172206D651E
:100210006D6F726961005265747261657200466942
:100220006C616D656E74004D6F76696D69656E7495
:100230006F0054656D7065726174757261004D6513
:100240006E75207072696E636970616C00446573CD
:1002500052657420560044657352657420560044FC
:100260006573526574202B6D6D004465735265741F
:10027000202B6D6D004C6576616E746172206D6D22
:10028000004C6576616E746172206D6D005265740C
:100290007261657220205600526574726165722029
:1002A00020560052657472616572206D6D00526552
:1002B0007472616572206D6D004F6666004F6E004E
:1002C0004F6666004F6E004175746F526574722EF2
:1002D00000436F6E74726F6C0046696C2E20446927
:1002E000612E20310046696C2E204469612E203138
:1002F000004F6666004F6E004F6666004F6E004509
:1003000020696E206D6D3300436F6E74726F6C00E8
:1003100045207061736F732F6D6D004520706173A0
:100320006F732F6D6D005A207061736F732F6D6D39
:10033000005A207061736F732F6D6D0059207061CA
:10034000736F732F6D6D0059207061736F732F6D14
:100350006D0058207061736F732F6D6D00582070A1
:1003600061736F732F6D6D00412D726574726163DF
:100370002E00412D7265747261632E00416D6178AB
:100380006500416D61786500416D61787A00416D6D
:1003900061787A00416D61787900416D617879000A
:1003A000416D61787800416D6178780056766163BF
:1003B000696F206D696E0056766163696F206D69A3
:1003C0006E00566D696E00566D696E00566D6178EF
:1003D0006500566D61786500566D61787A00566DDE
:1003E00061787A00566D61787900566D6178790090
:1003F000566D61787800566D6178780056652D6A83
:1004000065726B0056652D6A65726B00567A2D6AAF
:1004100065726B00567A2D6A65726B005678792D7D
:100420006A65726B005678792D6A65726B0041635C
:10043000656C004163656C00436F6E74726F6C0095
:10044000416A75737461722074656D702E2041422B
:100450005300416A75737461722074656D702E204B
:10046000504C41005049442D43005049442D430015
:100470005049442D44005049442D44005049442DD6
:1004800049005049442D49005049442D50005049DD
:10049000442D5000022046616374000220466163CF
:1004A000740002204D61780002204D617800022026
:1004B0004D696E0002204D696E004F6666004F6EFA
:1004C000004F6666004F6E004175746F74656D7005
:1004D0000056656E74696C61646F720056656E7467
:1004E000696C61646F72004261736500426173659B
:1004F000004E6F7A7A6C65004E6F7A7A6C650043B5
:100500006F6E74726F6C0047756172646172206DFA
:10051000656D6F7269610042617365004261736568
:10052000004E6F7A7A6C65004E6F7A7A6C65005671
:10053000656E74696C61646F720056656E74696C87
:1005400061646F720054656D70657261747572617B
:100550000047756172646172206D656D6F726961CB
:1005600000426173650042617365004E6F7A7A6C78
:1005700065004E6F7A7A6C650056656E74696C61C1
:10058000646F720056656E74696C61646F720054BA
:10059000656D7065726174757261004D6F7665721C
:1005A00020656A6573004D383000456E63656E6482
:1005B0006572004D38310041706167617200456EAF
:1005C00066726961720050726563616C656E746118
:1005D00072204142530050726563616C656E7461B4
:1005E0007220504C4100416A7573746172206F66CD
:1005F000667365747300473238004C6C65766172BF
:1006000020616C206F726967656E004D383400415F
:100610007061676172206D6F746F726573004D65F4
:100620006E75207072696E636970616C004D6F76D3
:10063000657220302E316D6D004D6F766572203100
:100640006D6D004D6F7665722031306D6D005072AA
:10065000657061726172004578747275736F7200B3
:100660004D6F766572205A004D6F76657220590085
:100670004D6F7665722058004D6F76657220656A01
:100680006573004578747275646572005A0059008C
:10069000580050726563616C2E20414253204261C4
:1006A00073650050726563616C656E7461722041A0
:1006B0004253203100507265706172617200507255
:1006C0006563616C2E20504C41204261736500507F
:1006D000726563616C656E74617220504C412031AB
:1006E000005072657061726172004D3630300043A7
:1006F000616D626961722066696C616D656E746FAF
:10070000004261627973746570205A0042616279B7
:10071000737465702059004261627973746570204A
:100720005800466C756A6F203000466C756A6F2001
:100730003000466C756A6F00466C756A6F005665CE
:100740006E74696C61646F720056656E74696C6179
:10075000646F7200426173650042617365004E6FA1
:100760007A7A6C65004E6F7A7A6C650056656C6FAC
:1007700063696461640056656C6F636964616400F9
:100780004D656E75207072696E636970616C0042B0
:100790006162797374657070696E67205A00426196
:1007A00062797374657070696E6720590042616286
:1007B000797374657070696E672058005461726A4D
:1007C000657461207265746972616461005461725C
:1007D0006A65746120636F6C6F63616461004D339F
:1007E000303020533639382050323030004D3330DD
:1007F0003020533635392050323030004572726F18
:10080000723A006563686F3A0050415241444100BA
:100810005072696E7465722073746F7070656420B5
:1008200064756520746F206572726F72732E204636
:10083000697820746865206572726F7220616E64D9
:1008400020757365204D39393920746F20726573B6
:10085000746172742E202854656D706572617475B0
:1008600072652069732072657365742E20536574F8
:100870002069742061667465722072657374617298
:1008800074696E672900504152414441204445201B
:10089000454D4552472E005072696E74657220684E
:1008A000616C7465642E206B696C6C28292063610F
:1008B0006C6C656421006F6B00526573656E643A01
:1008C00020002200556E6B6E6F776E20636F6D6D2A
:1008D000616E643A20220043616D62696172206634
:1008E000696C616D656E746F004F66667365742028
:1008F0005A203A20007A5F6D61783A20007A5F6D65
:10090000696E3A20004F6666736574205A004F6620
:1009100066736574205A206F6B002200556E6B6EF3
:100920006F776E20636F6D6D616E643A2022007A7E
:100930005F6D696E3A2000795F6D696E3A200078CC
:100940005F6D696E3A2000205A3A0020593A002023
:10095000436F756E7420583A200020453A00205AA3
:100960003A0020593A00583A004649524D574152F0
:10097000455F4E414D453A4D61726C696E2056316E
:100980003B20537072696E7465722F6772626C20BF
:100990006D617368757020666F722067656E3620B2
:1009A0004649524D574152455F55524C3A6874740E
:1009B00070733A2F2F6769746875622E636F6D2F9D
:1009C0004D6F65627975732F50727573614933206D
:1009D00050524F544F434F4C5F56455253494F4E20
:1009E0003A312E30204D414348494E455F545950CD
:1009F000453A5072757361206933204D4D2045583A
:100A00005452554445525F434F554E543A31205548
:100A10005549443A30303030303030302D3030307D
:100A2000302D303030302D303030302D30303030CF
:100A300030303030303030300A0050727573612001
:100A40006933204D4D204F66662E005072757361DC
:100A5000206933204D4D206C697374612E0042650E
:100A60006420646F6E652E0020423A0020453A00F3
:100A7000543A004265642048656174696E672E00CF
:100A800048656174696E6720646F6E652E0020573B
:100A90003A0020453A00543A0048656174696E672F
:100AA0002E2E2E002042403A0020403A00202F00F7
:100AB0003A00205400202F0020423A00202F006FDF
:100AC0006B20543A002569206D696E2C2025692021
:100AD00073656300456E642066696C65206C69739C
:100AE0007400426567696E2066696C65206C697385
:100AF000740053696E206D6F76696D69656E746FF1
:100B0000005072757361206933204D4D206C6973FC
:100B100074612E00526573756D69656E646F20692E
:100B20006D7072652E004573706572616E646F2022
:100B30006F7264656E6573005265706F736F2E2EF1
:100B40002E00FFFFFF00004D4300004D4300004D0D
:100B50004300000000000000000000000000000052
:100B600000000000000000000000004D4300004DA8
:100B70004300004D4300000040000000400000C062
:100B80003F256920686F757273202569206D696E35
:100B90007574657300446F6E65207072696E746958
:100BA0006E672066696C65005041524144410050B7
:100BB00072696E7465722073746F707065642064FE
:100BC000756520746F206572726F72732E2046698E
:100BD0007820746865206572726F7220616E64207F
:100BE000757365204D39393920746F2072657374BF
:100BF0006172742E202854656D706572617475720F
:100C0000652069732072657365742E2053657420A6
:100C100069742061667465722072657374617274A0
:100C2000696E6729004E6F204C696E65204E756DA8
:100C3000626572207769746820636865636B737599
:100C40006D2C204C617374204C696E653A20004E07
:100C50006F20436865636B73756D207769746820D6
:100C60006C696E65206E756D6265722C204C6173C7
:100C700074204C696E653A2000636865636B737518
:100C80006D206D69736D617463682C204C617374A1
:100C9000204C696E653A20004C696E65204E756D7A
:100CA000626572206973206E6F74204C61737420CA
:100CB0004C696E65204E756D6265722B312C204C2F
:100CC000617374204C696E653A20004D31313000FB
:100CD000446F6E6520736176696E672066696C6526
:100CE0002E006F6B004D3239002020506C616E6E0B
:100CF000657242756666657242797465733A200062
:100D00002046726565204D656D6F72793A20004A04
:100D1000756E202038203230313500436F6D706998
:100D20006C65643A2000284D6F6562797573204DBB
:100D3000616368696E65732C206D6F656279757388
:100D4000406D6F65627975732E636F6D2900207C2D
:100D500020417574686F723A20004A756E20203801
:100D600020323031352031313A31383A32390020B1
:100D70004C61737420557064617465643A2000316D
:100D80002E302E30004D61726C696E0020536F66FC
:100D900074776172652052657365740020576174C1
:100DA0006368646F67205265736574002042726FD8
:100DB000776E206F757420526573657400204578D6
:100DC0007465726E616C20526573657400506F7744
:100DD00065725570007374617274002200656E71E3
:100DE0007565696E672022002200656E7175656900
:100DF0006E6720220020746F6F206C6F6E67206515
:100E00007874727573696F6E2070726576656E7432
:100E100065640020636F6C64206578747275736913
:100E20006F6E2070726576656E74656400486172DD
:100E300064636F6465642044656661756C742053F7
:100E4000657474696E6773204C6F616465640053E8
:100E5000746F7265642073657474696E6773207251
:100E600065747269657665640046696C616D656E6E
:100E7000742073657474696E67733A204469736192
:100E8000626C6564002020204D32303020440046E2
:100E9000696C616D656E742073657474696E6773D7
:100EA0003A002020204D3230392053004175746FB4
:100EB0002D526574726163743A20533D3020746F13
:100EC0002064697361626C652C203120746F206925
:100ED0006E7465727072657420657874727564657D
:100EE0002D6F6E6C79206D6F766573206173207243
:100EF00065747261637473206F72207265636F76BC
:100F00006572696573002046002020204D3230381C
:100F10002053005265636F7665723A20533D4578E1
:100F2000747261206C656E67746820286D6D29206D
:100F3000463A537065656420286D6D2F6D29002039
:100F40005A002046002020204D32303720530052D6
:100F50006574726163743A20533D4C656E677468C2
:100F600020286D6D2920463A537065656420286DF0
:100F70006D2F6D29205A3A205A4C69667420286DCD
:100F80006D29002044002049002020204D333031BD
:100F90002050005049442073657474696E67733A39
:100FA00000205A0020590020204D323036205800B1
:100FB000486F6D65206F666673657420286D6D29B6
:100FC0003A00204500205A002058002042002054BA
:100FD0000020204D323035205300416476616E632D
:100FE0006564207661726961626C65733A20533D75
:100FF0004D696E20666565647261746520286D6D4B
:101000002F73292C20543D4D696E207472617665D2
:101010006C20666565647261746520286D6D2F7340
:10102000292C20423D6D696E696D756D2073656771
:101030006D656E742074696D6520286D73292C2090
:10104000583D6D6178696D756D205859206A6572DB
:101050006B20286D6D2F73292C20205A3D6D6178EF
:10106000696D756D205A206A65726B20286D6D2F31
:1010700073292C2020453D6D6178696D756D204583
:10108000206A65726B20286D6D2F73290020540033
:1010900020204D323034205300416363656C65720B
:1010A0006174696F6E3A20533D616363656C65726C
:1010B0006174696F6E2C20543D7265747261637443
:1010C00020616363656C65726174696F6E002045B1
:1010D00000205A0020590020204D32303120580085
:1010E0004D6178696D756D20416363656C657261F2
:1010F00074696F6E20286D6D2F7332293A00204578
:1011000000205A0020590020204D32303320580052
:101110004D6178696D756D20666565647261746591
:101120007320286D6D2F73293A00204500205A0046
:1011300020590020204D39322058005374657073B7
:101140002070657220756E69743A00536574746915
:101150006E67732053746F726564004572723A2033
:101160004D415854454D50204245440054656D70E2
:10117000657261747572652068656174656420626A
:101180006564207377697463686564206F66662E92
:10119000204D415854454D502074726967676572FF
:1011A0006564202121004572723A204D494E544514
:1011B0004D50003A204578747275646572207377DB
:1011C000697463686564206F66662E204D494E54CD
:1011D000454D50207472696767657265642021000F
:1011E0004572723A204D415854454D50003A2045C1
:1011F0007874727564657220737769746368656466
:10120000206F66662E204D415854454D5020747213
:1012100069676765726564202100202D20496E761C
:10122000616C6964206578747275646572206E758E
:101230006D6265722021001000C90210012C01406E
:1012400001220170011801B0010E01F001040150EA
:1012500002FA00B002F0003003E600D003DC009098
:1012600004D2007005C800A006BE000008B400B09B
:1012700009AA00D00BA000600E960060118C00003F
:1012800015820020197800C01D6E00A0226400B0F5
:10129000275A00902C500000314600E0343C0010EA
:1012A000383200903A2800603C1E00A03D140080B7
:1012B0003E0A00203F000070012C0190012701B080
:1012C000012201C0011D01F00118011002130130BB
:1012D000020E016002090190020401C002FF000039
:1012E00003FA004003F5008003F000D003EB002078
:1012F00004E6007004E100E004DC004005D700C013
:1013000005D2004006CD00D006C8008007C30030DB
:1013100008BE00F008B900C009B400B00AAF00B0C0
:101320000BAA00D00CA500000EA000500F9B00C01F
:101330001096005012910000148C00C0158700B068
:10134000178200B0197D00D01B7800001E7300408A
:10135000206E0090226900F024640040275F009016
:10136000295A00E02B5500102E500020304B001061
:10137000324600E033410090353C001037370070B2
:10138000383200A0392D00B03A2800A03B2300607D
:101390003C1E00103D1900903D1400103E0F0070DF
:1013A0003E0A00C03E0500003F0000504944204175
:1013B00075746F74756E652066696E6973686564AF
:1013C000212050757420746865206C617374204B03
:1013D000702C204B6920616E64204B6420636F6E1B
:1013E0007374616E74732066726F6D2061626F76C4
:1013F0006520696E746F20436F6E666967757261F0
:1014000074696F6E2E6800504944204175746F7482
:10141000756E65206661696C6564212074696D650F
:101420006F75740020403A006F6B20543A006F6B68
:1014300020423A00504944204175746F74756E65BE
:10144000206661696C6564212054656D7065726108
:101450007475726520746F6F206869676800204B2F
:10146000643A2000204B693A2000204B703A20005B
:1014700020436C61737369632050494420002054F9
:10148000753A2000204B753A2000206D61783A2093
:1014900000206D696E3A200020643A2000206269C5
:1014A00061733A200045303A20005A3A2000593AF8
:1014B0002000583A20004D53312C4D5332205069B2
:1014C0006E730A0024F404D9201BC40C5C0E98042B
:1014D000C4095F0265077101F405F900FB04B3005C
:1014E00048048700C1036900580355000303450001
:1014F000BE023A008402310053022A00290225006C
:1015000004022000E4011C00C8011900AF0117000B
:101510009801140084011300710110006101100092
:1015200051010E0043010D0036010B002B010B0091
:1015300020010B00150109000C010900030108003E
:10154000FB000800F3000800EB000700E4000600C1
:10155000DE000600D8000600D2000600CC00050020
:10156000C7000500C2000500BD000400B90004006A
:10157000B5000400B1000400AD000400A90004009F
:10158000A5000300A20003009F0004009B000300CD
:1015900098000300950002009300030090000300F0
:1015A0008D0002008B00030088000200860002000C
:1015B00084000300810002007F0002007D00020021
:1015C0007B00020079000200770001007600020033
:1015D0007400020072000100710002006F0002003E
:1015E0006D0001006C0002006A0001006900020049
:1015F0006700010066000100650001006400020050
:101600006200010061000100600001005F00020053
:101610005D0001005C0001005B0001005A00010058
:101620005900010058000100570001005600010058
:101630005500010054000100530000005300010058
:101640005200010051000100500001004F00010054
:101650004E0000004E0001004D0001004C00010052
:101660004B0000004B0001004A000100490001004E
:10167000480000004800010047000100460000004B
:101680004600010045000000450001004400010043
:10169000430000004300010042000000420001003E
:1016A0004100000041000100400001003F00000037
:1016B0003F0001003E0000003E0001003D00000030
:1016C0003D0001003C0000003C0000003C00010027
:1016D0003B0000003B0001003A0000003A0001001E
:1016E0003900000039000100380000003800000017
:1016F000380001003700000037000100360000000C
:101700003600000036000100350000003500000002
:1017100035000100340000003400000034000100F6
:1017200033000000330000003300010032000000ED
:1017300032000000320001003100000031000000E2
:1017400031000100300000003000000030000100D6
:101750002F0000002F0000002F0000002F000100CC
:101760002E0000002E0000002E0001002D000000C1
:101770002D0000002D0000002D0001002C000000B5
:101780002C0000002C0000002C0001002B000000A9
:101790002B0000002B0000002B0001002A0000009D
:1017A0002A0000002A0000002A0001002900000091
:1017B0002900000029000000290000002900010084
:1017C0002800000028000000280000002800000079
:1017D000280001002700000027000000270000006B
:1017E000270000002700010026000000260000005E
:1017F0002600000026000000260001002500000051
:101800002500000025000000250000002500000044
:101810002500010024000000240000002400000036
:101820002400000024000100230000002300000029
:10183000230000002300000023000000230000001C
:10184000230001002200000022000000220000000E
:101850002200000022000000220001002100000000
:1018600021000000210000002100000021000000F4
:1018700021000000210001002000000020000000E5
:1018800020000000200000002000000020000000D8
:1018900020000000200001001F0000001F000000C9
:1018A0001F0000001F0000001F0000001F000000BC
:1018B0001F0001001E0000001E0000001E000000AE
:1018C0001E00000024F4D43050C38E20C2A2401762
:1018D000828B7011127A910D816CD90AA861E1088E
:1018E000C7586607615143061E4B5D05C145A704F5
:1018F0001A411104093D9803713931034036DB0266
:1019000065339102D4305402802E1D02632CEE0107
:10191000752AC501B028A001102781018F25640117
:101920002B244B01E0223401AC211F018D200D013D
:10193000801FFC00841EED00971DDF00B81CD20044
:10194000E61BC600201BBC00641AB200B219A80036
:101950000A19A0006A189900D117910040178B004E
:10196000B516840031167E00B31579003A15730060
:10197000C7146F0058146A00EE13660088136300E2
:1019800025135E00C7125B006C125700151254003D
:10199000C111510070114F0021114B00D6104900A8
:1019A0008D1047004610440002104200C00F400056
:1019B000800F3E00420F3C00060F3B00CB0E38006C
:1019C000930E37005C0E3500270E3400F30D320005
:1019D000C10D3100900D3000600D2E00320D2D0034
:1019E000050D2C00D90C2B00AE0C2900850C29000C
:1019F0005C0C2700350C27000E0C2600E80B240099
:101A0000C40B2400A00B23007D0B23005A0B2100E4
:101A1000390B2100180B2000F80A1F00D90A1E00FC
:101A2000BB0A1E009D0A1D00800A1D00630A1C00DF
:101A3000470A1B002C0A1B00110A1A00F7091A009A
:101A4000DD091900C4091900AB0919009209170032
:101A50007B091800630917004C09160036091600A7
:101A6000200916000A091500F5081500E008140001
:101A7000CC081400B8081400A4081400900813003F
:101A80007D0812006B081300580812004608120067
:101A90003408110023081100120811000108110078
:101AA000F0071000E0071000D0071000C00710007A
:101AB000B0070F00A107100091070E0083070F0069
:101AC00074070F0065070E0057070E0049070E0048
:101AD0003B070D002E070E0020070D0013070D0019
:101AE00006070D00F9060C00ED060D00E0060C00DF
:101AF000D4060C00C8060C00BC060C00B0060C0096
:101B0000A4060B0099060C008D060B0082060B0044
:101B100077060B006C060B0061060A0057060B00E7
:101B20004C060A0042060A0038060A002E060A0081
:101B300024060A001A060A001006090007060A0011
:101B4000FD050900F4050900EB050900E20509009F
:101B5000D9050900D0050900C7050900BE0509001F
:101B6000B5050800AD050800A50509009C0508009D
:101B7000940508008C050800840508007C05080011
:101B8000740508006C050700650508005D05070081
:101B9000560508004E0507004705070040050800E8
:101BA00038050700310507002A050700230507004F
:101BB0001C050600160507000F05070008050600AE
:101BC00002050700FB040600F5040700EE0406000A
:101BD000E8040600E2040700DB040600D504060062
:101BE000CF040600C9040600C3040600BD040600B5
:101BF000B7040600B1040500AC040600A604060004
:101C0000A00405009B04060095040500900406004E
:101C10008A04050085040500800406007A04050096
:101C200075040500700405006B04050066040500DA
:101C3000610405005C04050057040500520405001A
:101C40004D04050048040500430405003E0404005B
:101C50003A04050035040500300404002C04050096
:101C600027040400230405001E0404001A040400D1
:101C700016040500110404000D0404000904050005
:101C80000404040000040400FC030400F80304003E
:101C9000F4030400F0030400EC030400E803040070
:101CA000E4030400E0030400DC030400D8030400A0
:101CB000D4030400D0030400CC030400C8030300D1
:101CC000C5030300656E6473746F70732068697474
:101CD0003A205A00205A3A00656E6473746F70732C
:101CE000206869743A20590020593A00656E64737F
:101CF000746F7073206869743A20580020583A0055
:101D0000656E6473746F7073206869743A20004D57
:101D1000383420582059205A20450043616E6E6F98
:101D20007420656E746572207375626469723A20FE
:101D3000004D3234004D3233202573006175746FCD
:101D400025692E67006572726F72207772697469F7
:101D50006E6720746F2066696C65004E6F74205347
:101D600044207072696E74696E67002F00534420BE
:101D70007072696E74696E67206279746520002ED6
:101D80000044656C6574696F6E206661696C65649A
:101D90002C2046696C653A200046696C65206465B4
:101DA0006C657465643A002E006F70656E20666124
:101DB000696C65642C2046696C653A20005772692D
:101DC00074696E6720746F2066696C653A20002E16
:101DD000006F70656E206661696C65642C204669D1
:101DE0006C653A20002E006F70656E206661696C2C
:101DF00065642C2046696C653A200046696C652054
:101E000073656C6563746564002053697A653A2074
:101E10000046696C65206F70656E65643A20002E1F
:101E2000006F70656E206661696C65642C20466980
:101E30006C653A20004E6F77206672657368206685
:101E4000696C653A20004E6F7720646F696E672079
:101E500066696C653A20002220706F730022207042
:101E60006172656E743A2200535542524F5554497F
:101E70004E452043414C4C207461726765743A2290
:101E800000747279696E6720746F2063616C6C20D6
:101E90007375622D67636F64652066696C65732076
:101EA0007769746820746F6F206D616E79206C653E
:101EB00076656C732E204D4158206C6576656C20DC
:101EC00069733A0053442063617264206F6B006F42
:101ED00070656E526F6F74206661696C6564007620
:101EE0006F6C756D652E696E6974206661696C65CD
:101EF0006400534420696E6974206661696C007CDB
:101F00003C3E5E2B3D3F2F5B5D3B2C2A225C00005C
:101F1000002100240027002A002D0030003300019A
:101F2000010000040107010A010000220025002829
:101F3000002B002E003100340002010000050108D2
:101F4000010B01000020002300260029002C002F97
:101F5000003200000100000301060109010505052A
:101F600005070508080808020202020A0A08080410
:101F7000040404010101010101010103030303033E
:101F8000030303040707070C0C0C0C0C0C0C0C02CD
:101F900002020206060606060606060B0B0B0B0BD4
:101FA0000B0B0B01021020200808102040102040CD
:101FB000800201020108040201010204081020400D
:101FC000808040201008040201800402018040202B
:101FD0001008040201080402010102040810204054
:101FE0008001020408102040800000090A02080B4A
:101FF0000C0D0706030401000000000000000000B3
:1020000000000000000000000000000000000000D0
:10201000000000000011100F000000000000000090
:1020200000000000000000000000000000000002AE
:10203000494E46494E4954594E414ECDCCCC3D0AAD
:10204000D7233C17B7D13877CC2B329595E6241F90
:10205000B14F0A000020410000C84200401C462049
:10206000BCBE4CCA1B0E5AAEC59D74000F52A45D77
:102070001E65FDDE196511241FBECFEFD1E2DEBF64
:10208000CDBF00E00CBF14E0A0E0B2E0E8EEFEED52
:1020900001E00BBF02C007900D92AA3EB107D9F72D
:1020A0001BBE13E1AAEEB4E001C01D92AA37B1072E
:1020B000E1F710E2C4E7D0E204C02297FE010E94DB
:1020C0001AEFCC36D107C9F70E94FAE90C9468EFF1
:1020D0000C940000A0E0B0E0E0E7F0E10C9437EFF2
:1020E000EC015B016115710519F0FB01918380839F
:1020F000F9908F2D90E00E941EEF892BC9F7FDE229
:10210000FF1621F4F990EE24E39405C02BE2F216B9
:1021100009F4F990EE248E0101501040C80160E3EB
:1021200070E243E050E072D2892BF9F48E010E5F29
:102130001F4FC80163E370E245E050E067D2892B8E
:1021400019F48E01095F1F4FA114B10419F0F501B4
:1021500011830083E0FC04C070E090E080E813C0CD
:1021600070E090E080E86FEF07C1C80168E370E2BB
:1021700043E050E04BD2892B69F4A114B10429F457
:1021800070E090E080EC6FE7F7C02296F501D18314
:10219000C083F6CF8824992440E050E060E070E0EE
:1021A000EF2DE053EA30A0F5F2E0EF2A8E2D90E01B
:1021B0009C0128703070E2FE06C0232B79F508944C
:1021C000811C911C2BC0232B19F0089481089108C5
:1021D000DB01CA0112E0880F991FAA1FBB1F1A95C5
:1021E000D1F7480F591F6A1F7B1F440F551F661FE9
:1021F000771F4E0F511D611D711D483929E9520786
:1022000029E9620729E1720748F084E0E82A06C05C
:10221000EE3F31F4E3FC39C098E0E92AF990C0CFF1
:10222000E53311F0E53189F529912D3219F4E0E11A
:10223000EE2A05C02B3219F081E090E003C029910D
:1022400082E090E0E22FE053EA3018F0C81BD90B8F
:102250001CC020E030E0FCE020383F075CF4C901FE
:10226000880F991F880F991F280F391F220F331FBE
:102270002E0F311DE991E053EA3068F3E4FE03C00C
:10228000309521953F4F820E931ECE2CDD24E1FE2A
:1022900007C0A114B10421F02197F501D183C083B7
:1022A000CB01BA010E9483EB7B018C01F3E0CF22CA
:1022B000DD2423E0C216D10421F417FB109517F991
:1022C000109557016801C801B70120E030E040E0F7
:1022D00050E00E94E3EA882309F44AC097FE0DC04B
:1022E0002FE4E22E20E2F22E9094819491089394B0
:1022F000C0E2D0E000E010E012C097E6E92E90E2E4
:10230000F92EF6CFF7012591359145915491C601EB
:10231000B5010E94C3ED5B016C018C1A9D0A8C16FD
:102320009D0684F7D595C7950F5F1F4F06301105A1
:1023300029F08CEF9FEFE80EF91EF1CFC501D60111
:102340007C018D018C2D880F8D2D881F8F3F51F0C2
:10235000C601B50120E030E040E050E00E94E3EA31
:10236000882331F482E290E090937913809378137C
:102370007E2D9F2D802F612F272F392F482F562FED
:10238000B901CA01CDB7DEB7ECE00C9453EF2F9240
:102390003F925F926F927F928F929F92AF92BF9285
:1023A000CF92DF92EF92FF920F931F93CF93DF9321
:1023B0008C011B01EA016115710519F0FB01918384
:1023C0008083209749F0CE010297839728F020E080
:1023D00030E040E050E0F6C0F801A1908F018A2D76
:1023E00090E00E941EEF892BB9F7FDE2AF1631F4A1
:1023F000F801A1908F015524539407C0FBE2AF165A
:1024000019F4F801A1908F015524209719F0C031DB
:10241000D105C1F4F0E3AF1679F4F8018081883773
:1024200011F0883549F4F801A1800E5F1F4FF2E0EA
:102430005F2AC0E1D0E006C0209721F480E3A8160F
:10244000E9F427C0C830D10531F1C930D10524F4F1
:10245000C230D10531F50CC0CA30D10589F0C03188
:10246000D105F9F4C12CD12CE12CB8E0FB2E28C009
:10247000C12CD12CE12CA0E4FA2E22C0CAE0D0E07D
:10248000FCECCF2EFCECDF2EFCECEF2EFCE0FF2E64
:1024900017C0C8E0D0E0C12CD12CE12CE0E1FE2E29
:1024A0000FC09E01442737FD4095542F60E070E037
:1024B00080E090E80E94DBEEC901DA016C017D0149
:1024C00020E030E040E050E060E03E01882477FC0E
:1024D0008094982C70EDB72EBA0CE9E0EB1570F4EF
:1024E0008A2D81548A3118F499ECB92E06C08A2DB0
:1024F00081568A3150F589EAB82EBA0C8B2D90E0BE
:102500008C179D0714F56F3FE1F0C216D306E40661
:10251000F506B0F0CA01B901A40193010E9495EE3D
:102520009B01AC012B0D311D411D511D2130F0E0EF
:102530003F07F0E04F07F0E85F0710F461E001C0EB
:102540006FEFF801A1908F01C5CF2114310481F004
:10255000662331F001501040F1011183008308C05F
:1025600051FE1AC002501040F1011183008314C0C3
:1025700067FF12C050FC05C02FEF3FEF4FEF5FE742
:1025800004C020E030E040E050E882E290E0909328
:1025900079138093781316C050FE08C0509540956B
:1025A000309521953F4F4F4F5F4F0CC057FF0AC0EA
:1025B00082E290E090937913809378132FEF3FEFAE
:1025C0004FEF5FE7B901CA01DF91CF911F910F91E2
:1025D000FF90EF90DF90CF90BF90AF909F908F9043
:1025E0007F906F905F903F902F900895FB01DC01EA
:1025F00005900D920020E1F70895FC010590002060
:10260000E9F7809590958E0F9F1F0895FB01DC01DF
:102610004150504088F08D9181341CF08B350CF482
:10262000805E659161341CF06B350CF4605E861B36
:10263000611171F3990B0895881BFCCFFB01DC013C
:102640004150504048F005900D920020C9F701C05C
:102650001D9241505040E0F70895FB0155915523DC
:10266000A9F0BF01DC014D9145174111E1F759F483
:10267000CD010590002049F04D9140154111C9F35D
:10268000FB014111EFCF81E090E001970895FB013C
:10269000DC0104C08D910190801921F4415050401B
:1026A000C8F7881B990B0895FB01DC0102C001905B
:1026B0000D9241505040D8F70895FB01DC018D91F7
:1026C00081341CF08B350CF4805E619161341CF018
:1026D0006B350CF4605E861B611189F3990B0895CC
:1026E000FB01DC010D900020E9F7119701900D929C
:1026F0000020E1F70895FC018191861721F08823DD
:10270000D9F7992708953197CF010895FB01DC018E
:102710008D91019080190110D9F3990B0895FB0157
:10272000DC0101900D920020E1F70895FB01DC012E
:102730004150504030F08D910190801919F40020E3
:10274000B9F7881B990B0895FB01DC0141505040FB
:1027500048F001900D920020C9F701C01D92415030
:102760005040E0F70895AEE0B0E0E9EBF3E10C94FF
:102770003FEF0E891F898EE08C831A8309838FEFC8
:102780009FE79E838D839E01265E3F4FCE0101967B
:10279000688D798DA9010AD02F813885020F131F0A
:1027A000F80110822E96E4E00C945BEFABE0B0E011
:1027B000ECEDF3E10C9431EF3C012B015A01FC01EB
:1027C00017821682838181FD03C06FEF7FEFB9C14D
:1027D0009AE0892E1E010894211C311CF3012381EB
:1027E000F20123FD859123FF81912F01882309F4B4
:1027F000A5C1853239F423FD859123FF81912F01F5
:10280000853221F490E0B301B7D1E8CF982FFF24AF
:10281000EE249924FFE1FF15D0F09B3269F09C3241
:1028200028F4903259F0933291F40EC09D3249F061
:10283000903369F441E024C052E0F52A84E0F82A9C
:1028400028C098E0F92A25C0E0E1FE2A22C0F7FC62
:1028500029C0892F80538A3070F4F6FE05C0989CF9
:10286000902C1124980E15C0E89CE02C1124E80E41
:10287000F0E2FF2A0EC09E3229F4F6FC5FC140E46C
:10288000F42A07C09C3619F450E8F52A02C098369D
:1028900049F4F20123FD959123FF91912F01992392
:1028A00009F0B8CF892F8554833018F080528330D7
:1028B00038F444E050E0A40EB51E5FE359830FC026
:1028C000933631F0933779F0933509F052C01FC039
:1028D000F5018081898342E050E0A40EB51E6101BC
:1028E00001E010E011C0F501C080D180F6FC03C00A
:1028F0006FEF7FEF02C0692D70E042E050E0A40E60
:10290000B51EC6012ED18C015FE7F52213C0F5017B
:10291000C080D180F6FC03C06FEF7FEF02C0692D4D
:1029200070E042E050E0A40EB51EC6010FD18C014C
:1029300050E8F52AF3FE06C018C080E290E0B3012B
:102940001BD1EA948E2D90E008171907B0F30DC043
:10295000F601F7FC8591F7FE81916F0190E0B301DC
:102960000BD1E110EA94015010400115110581F7D7
:10297000E2C0943611F0993661F5F7FE08C0F50112
:10298000208131814281538184E090E00AC0F501C9
:10299000808191819C01442737FD4095542F82E02E
:1029A00090E0A80EB91E9FE6F92257FF09C0509586
:1029B0004095309521953F4F4F4F5F4FE0E8FE2AFD
:1029C000CA01B901A1012AE030E002D1D82ED21803
:1029D0003FC0953729F41F2D1F7E2AE030E01DC02F
:1029E0001F2D197F9F3661F0903720F4983509F03C
:1029F000A5C00FC0903739F0983709F09FC004C0C8
:102A000028E030E00AC0106114FD146020E130E0DD
:102A100004C014FD166020E132E017FF08C0F50184
:102A2000608171818281938144E050E008C0F501AA
:102A300080819181BC0180E090E042E050E0A40EF2
:102A4000B51EA101C5D0D82ED2188FE7F82EF122DD
:102A5000F6FE0BC05EEFF522D91438F4F4FE07C081
:102A6000F2FC05C08FEEF82202C01D2D01C0192D09
:102A7000F4FE0DC0FE01ED0DF11D8081803319F4CF
:102A800099EEF92208C01F5FF2FE05C003C08F2D2A
:102A9000867809F01F5F0F2DF3FC13C0F0FE0EC007
:102AA0001E1510F09D2C0AC09D2C9E0C911A1E2DF7
:102AB00005C080E290E0B3015FD01F5F1E15C8F330
:102AC00004C01E1510F4E11A01C0EE2404FF0EC06C
:102AD00080E390E0B30150D002FF1BC001FD03C0B2
:102AE00088E790E00EC088E590E00BC0802F8678E4
:102AF00081F001FF02C08BE201C080E2F7FC8DE2B1
:102B000090E0B30139D005C080E390E0B30134D048
:102B10009A94D914C8F3DA94F101ED0DF11D808176
:102B200090E0B30129D0DD20B1F705C080E290E04C
:102B3000B30122D0EA94EE20C9F750CEF3016681AA
:102B40007781CB012B96E2E10C944DEFFC010590CF
:102B5000615070400110D8F7809590958E0F9F1F9F
:102B60000895FC016150704001900110D8F78095E4
:102B700090958E0F9F1F08950F931F93CF93DF9310
:102B80008C01EB018B8181FF1BC082FF0DC02E8168
:102B90003F818C819D812817390764F4E881F98190
:102BA0000193F983E88306C0E885F985802F19959C
:102BB000892B31F48E819F8101969F838E8302C081
:102BC0000FEF1FEFC801DF91CF911F910F91089573
:102BD000FA01AA27283051F1203181F1E8946F934E
:102BE0006E7F6E5F7F4F8F4F9F4FAF4FB1E03ED0F4
:102BF000B4E03CD0670F781F891F9A1FA11D680F92
:102C0000791F8A1F911DA11D6A0F711D811D911DC4
:102C1000A11D20D009F468943F912AE0269F112439
:102C20003019305D3193DEF6CF010895462F47709D
:102C3000405D4193B3E00FD0C9F7F6CF462F4F70F8
:102C4000405D4A3318F0495D31FD4052419302D056
:102C5000A9F7EACFB4E0A6959795879577956795FC
:102C6000BA95C9F700976105710508959B01AC01FC
:102C70000A2E06945795479537952795BA95C9F723
:102C8000620F731F841F951FA01D08958F929F923E
:102C9000AF92BF92CF92DF92EF92FF920F931F936A
:102CA0004B016091890370918A03709321056093B1
:102CB00020056091140570911505709323056093AC
:102CC000220562E060938B0361E273E470938A03F0
:102CD000609389039093250580932405909227059E
:102CE00080922605CA01B90120E030E048EC52E4A8
:102CF0000E94C3ED0E9452EB609328057093290552
:102D000080932A0590932B050E9485EB5B016C0153
:102D1000C801B70120E030E048EC52E40E94C3ED66
:102D2000A60195010E9409EA0E9452EB60932C05CE
:102D300070932D0580932E0590932F05F4016081EB
:102D400071818281938120E030E048EC52E40E945E
:102D5000C3EDA60195010E9409EA0E9457EB60931A
:102D600014057093150580931605909317051F9110
:102D70000F91FF90EF90DF90CF90BF90AF909F901A
:102D80008F9008956F927F928F929F92AF92BF9291
:102D9000CF92DF92EF92FF920F931F933B016091CE
:102DA000890370918A0370932105609320056091D7
:102DB000140570911505709323056093220562E058
:102DC00060938B0366E173E470938A0360938903D5
:102DD000909325058093240570922705609226051F
:102DE000CA01B9010E9483EB2AE037ED43E25CE3BC
:102DF0000E94C3ED0E9452EB609328057093290551
:102E000080932A0590932B050E9485EB4B015C0172
:102E1000C801B7010E9483EB2AE037ED43E25CE38F
:102E20000E94C3EDA50194010E9409EA0E9452EBA1
:102E300060932C0570932D0580932E0590932F059C
:102E4000F30160817181828193810E9483EB2AE08A
:102E500037ED43E25CE30E94C3EDA50194010E94BB
:102E600009EA0E9457EB609314057093150580934F
:102E7000160590931705D0923105C09230051F9129
:102E80000F91FF90EF90DF90CF90BF90AF909F9009
:102E90008F907F906F90089580931E0510921F056C
:102EA00008951092F704089581E0089580910D052A
:102EB00090E0969587959695879581700895FC0189
:102EC0002081822F90E06AE070E00E94C8EECB0182
:102ED0006AE070E00E94C8EE805D80933E05822F1C
:102EE00090E06AE070E00E94C8EE805D80933F054C
:102EF000109240058EE395E00895FC016081718198
:102F00008281938120E030E040E251E40E94C3EDF1
:102F10000E9452EB9B0177FF02C08DE201C08BE261
:102F200080933E0537FF03C0309521953F4FC9017F
:102F300068EE73E00E94C8EECB016AE070E00E9488
:102F4000C8EE805D80933F05C90164E670E00E9491
:102F5000C8EECB016AE070E00E94C8EE805D80930D
:102F60004005C9016AE070E00E94C8EECB016AE04A
:102F700070E00E94C8EE805D809341058EE28093F0
:102F80004205C9016AE070E00E94C8EE805D80934E
:102F90004305109244058EE395E00895EF92FF9269
:102FA0000F931F93FC01608171818281938120E0E6
:102FB00030E048EC52E40E94C3ED0E9452EB7B01EA
:102FC0008C0197FD12C020E137E240E050E00E9402
:102FD000FDEECA01B9012AE030E040E050E00E9475
:102FE000FDEE605D60933E0503C08DE280933E057B
:102FF00017FF08C010950095F094E094E11CF11CB7
:10300000011D111DC801B70128EE33E040E050E07A
:103010000E94FDEECA01B9012AE030E040E050E034
:103020000E94FDEE605D60933F05C801B70124E694
:1030300030E040E050E00E94FDEECA01B9012AE014
:1030400030E040E050E00E94FDEE605D609340059E
:103050008EE280934105C801B7012AE030E040E0EC
:1030600050E00E94FDEECA01B9012AE030E040E0E4
:1030700050E00E94FDEE605D60934205C801B7011B
:103080002AE030E040E050E00E94FDEE605D609399
:103090004305109244058EE395E01F910F91FF9038
:1030A000EF900895EF92FF920F931F93FC016081C0
:1030B00071818281938120E030E04AE754E40E94EC
:1030C000C3ED0E9452EB7B018C0197FD12C028EEEC
:1030D00033E040E050E00E94FDEECA01B9012AE071
:1030E00030E040E050E00E94FDEE605D60933E0500
:1030F00003C08DE280933E0517FF08C01095009530
:10310000F094E094E11CF11C011D111D8EE28093EE
:103110003F05C801B70124E630E040E050E00E94DE
:10312000FDEECA01B9012AE030E040E050E00E9423
:10313000FDEE605D60934005C801B7012AE030E014
:1031400040E050E00E94FDEECA01B9012AE030E003
:1031500040E050E00E94FDEE605D60934105C801D3
:10316000B7012AE030E040E050E00E94FDEE605DF3
:1031700060934205109243058EE395E01F910F91F5
:10318000FF90EF900895AF92BF92CF92DF92EF92AF
:10319000FF920F931F93FC01A080B180C280D38067
:1031A000C601B50120E030E048EC52E40E94C3EDD6
:1031B0007B018C0120E030E040E050E00E94F1EC27
:1031C00018161CF4C801B70108C0C601B50120E0FB
:1031D00030E048EC52EC0E94C3ED0E9452EB162FF7
:1031E000072FF82EE92EC601B50120E030E040E0BF
:1031F00050E00E94E3EA882314F48DE22BC0612F93
:10320000702F8F2D9E2D20E137E240E050E00E948C
:10321000FDEECA01B9012AE030E040E050E00E9432
:10322000FDEE6623B1F0605D60933E05612F702F67
:103230008F2D9E2D28EE33E040E050E00E94FDEE01
:10324000CA01B9012AE030E040E050E00E94FDEE02
:1032500019C080E280933E05612F702F8F2D9E2D27
:1032600028EE33E040E050E00E94FDEECA01B901D3
:103270002AE030E040E050E00E94FDEE662311F4C9
:1032800060E201C0605D60933F05612F702F8F2D5C
:103290009E2D24E630E040E050E00E94FDEECA01A1
:1032A000B9012AE030E040E050E00E94FDEE605DB0
:1032B00060934005612F702F8F2D9E2D2AE030E006
:1032C00040E050E00E94FDEE6623E1F0605D609317
:1032D0004305612F702F8F2D9E2D2AE030E040E0B6
:1032E00050E00E94FDEECA01B9012AE030E040E062
:1032F00050E00E94FDEE605D609342058EE2809397
:10330000410521C0612F702F8F2D9E2D2AE030E0C6
:1033100040E050E00E94FDEECA01B9012AE030E031
:1033200040E050E00E94FDEE662329F0605D60936E
:1033300042058EE203C080E28093420580934105FE
:1033400080E280934305109244058EE395E01F913F
:103350000F91FF90EF90DF90CF90BF90AF900895C6
:10336000FC010190F081E02DF7FF07C08DE2809312
:103370003E05F095E195FF4F14C0E436F10574F079
:10338000CF0164E670E00E94C8EECB016AE070E015
:103390000E94C8EE805D80933E0506C080E2809367
:1033A0003E05EA30F10564F0CF016AE070E00E946A
:1033B000C8EECB016AE070E00E94C8EE805D01C0FB
:1033C00080E280933F05CF016AE070E00E94C8EE82
:1033D000805D80934005109241058EE395E008954D
:1033E000DF93CF930F920F92CDB7DEB7FC016081D0
:1033F0007181828193810E9452EB7A836983CE012D
:103400000196AEDF0F900F90CF91DF910895FC01F0
:10341000808191818436910534F164E670E00E94E8
:10342000C8EECB016AE070E00E94C8EE805D809338
:103430003E05808191816AE070E00E94C8EECB0178
:103440006AE070E00E94C8EE805D80933F05808155
:1034500091816AE070E00E94C8EE805D8093400533
:103460001092410524C08A309105C4F06AE070E0F2
:103470000E94C8EECB016AE070E00E94C8EE805D59
:1034800080933E05808191816AE070E00E94C8EEE1
:10349000805D80933F051092400509C06AE070E0AE
:1034A0000E94C8EE805D80933E0510923F058EE33A
:1034B00095E00895EF92FF920F931F93FC01E08037
:1034C000F18002811381C801B70120E030E040E0C3
:1034D00050E00E94F1EC18161CF4C801B70103C0BB
:1034E000C801B70190580E9452EB7B018C0180E12A
:1034F000E81687E2F80680E0080780E0180714F471
:1035000060E211C0C801B70120E137E240E050E0BD
:103510000E94FDEECA01B9012AE030E040E050E02F
:103520000E94FDEE605D60933E0588EEE81683E044
:10353000F80680E0080780E0180714F460E211C084
:10354000C801B70128EE33E040E050E00E94FDEEF4
:10355000CA01B9012AE030E040E050E00E94FDEEEF
:10356000605D60933F0584E6E816F10401051105EE
:1035700014F460E211C0C801B70124E630E040E075
:1035800050E00E94FDEECA01B9012AE030E040E0BF
:1035900050E00E94FDEE605D609340058AE0E81611
:1035A000F1040105110514F460E211C0C801B7016E
:1035B0002AE030E040E050E00E94FDEECA01B9018F
:1035C0002AE030E040E050E00E94FDEE605D609354
:1035D0004105C801B7012AE030E040E050E00E9418
:1035E000FDEE605D60934205109243058EE395E029
:1035F0001F910F91FF90EF900895EF92FF920F931C
:103600001F93FC01608171818281938120E030E011
:1036100040E251E40E94C3ED0E9452EB97FF02C0CA
:103620002DE201C02BE220933E057B018C0197FF28
:1036300008C010950095F094E094E11CF11C011D68
:10364000111DC801B70120E137E240E050E00E94BF
:10365000FDEECA01B9012AE030E040E050E00E94EE
:10366000FDEE605D60933F05C801B70128EE33E0D1
:1036700040E050E00E94FDEECA01B9012AE030E0CE
:1036800040E050E00E94FDEE605D60934005C8019F
:10369000B70124E630E040E050E00E94FDEECA01B0
:1036A000B9012AE030E040E050E00E94FDEE605DAC
:1036B00060934105C801B7012AE030E040E050E0E6
:1036C0000E94FDEECA01B9012AE030E040E050E07E
:1036D0000E94FDEE605D609342058EE2809343059B
:1036E000C801B7012AE030E040E050E00E94FDEE62
:1036F000605D60934405109245058EE395E01F914F
:103700000F91FF90EF900895EF92FF920F931F9308
:10371000FC01608171818281938120E030E048EC7E
:1037200052E40E94C3ED0E9452EB97FF02C02DE2CB
:1037300001C02BE220933E057B018C0197FF08C05E
:1037400010950095F094E094E11CF11C011D111DF1
:10375000C801B70120E137E240E050E00E94FDEEF1
:10376000CA01B9012AE030E040E050E00E94FDEEDD
:10377000605D60933F05C801B70128EE33E040E08B
:1037800050E00E94FDEECA01B9012AE030E040E0BD
:1037900050E00E94FDEE605D60934005C801B701F6
:1037A00024E630E040E050E00E94FDEECA01B9019D
:1037B0002AE030E040E050E00E94FDEE605D609362
:1037C00041058EE280934205C801B7012AE030E04E
:1037D00040E050E00E94FDEECA01B9012AE030E06D
:1037E00040E050E00E94FDEE605D60934305C8013B
:1037F000B7012AE030E040E050E00E94FDEE605D5D
:1038000060934405109245058EE395E01F910F915A
:10381000FF90EF9008950F931F93CF93DF93382F6E
:10382000EB01142F022F88EF94E060E0432F0E94F9
:10383000FEE188EF94E0612F0E943EE611E1FE0177
:103840006491662379F0112369F088EF94E00E9477
:103850003EE621961150F3CF88EF94E060E20E949B
:103860003EE611501123C1F788EF94E0602F0E94CB
:103870003EE688EF94E060E20E943EE6DF91CF9161
:103880001F910F9108950F93DF93CF9300D00F9264
:10389000CDB7DEB706B10295069506950370009583
:1038A0000170349B026020910F053091100540910A
:1038B00011055091120529833A834B835C830E9442
:1038C00041E529813A814B815C81261737074807FA
:1038D000590710F4329B046000930D0590910D057B
:1038E000917080910D0581FD92608091130598176C
:1038F00029F19130B1F0913028F0923041F09330BD
:10390000E9F40AC0813079F08230C1F412C0882312
:1039100051F0833099F40DC0823029F0813071F478
:1039200008C0833021F48091EA048F5F05C08823AA
:1039300029F48091EA0481508093EA04909313055E
:103940000F900F900F900F90CF91DF910F910895EE
:10395000CF93DF93EC0104C088EF94E00E94C8E1AC
:10396000FE01219664916623B9F7DF91CF91089506
:10397000EF92FF920F931F93DF93CF93CDB7DEB7F4
:103980002C970FB6F894DEBF0FBECDBF6091E71144
:103990007091E8118091E9119091EA1120E030E0F6
:1039A00040E05FE30E940AEA0E9452EB7C836B8353
:1039B0006091E1117091E211882777FD8095982F31
:1039C0000E9485EB20E030E040E05FE30E940AEADD
:1039D0000E9452EB7E836D8388EF94E060E040E0CC
:1039E0000E94FEE188EF94E062E00E943EE6CE0194
:1039F0000396B6DCBC0188EF94E00E9462E688EF93
:103A000094E06FE20E943EE6CE01059600DDBC0127
:103A100088EF94E00E9462E682E491E099DF8D8174
:103A20009E810A972CF488EF94E060E20E943EE6C3
:103A300088EF94E06AE040E00E94FEE16091ED11C1
:103A40007091EE118091EF119091F01120E030E033
:103A500040E05FE30E940AEA0E9452EB7C836B83A2
:103A60006091E3117091E411882777FD8095982F7C
:103A70000E9485EB20E030E040E05FE30E940AEA2C
:103A80000E9452EB7E836D8388EF94E060E00E9499
:103A90003EE6CE01039664DCBC0188EF94E00E9410
:103AA00062E688EF94E06FE20E943EE6CE01059662
:103AB000AEDCBC0188EF94E00E9462E68FE391E007
:103AC00047DF8D819E810A972CF488EF94E060E2B5
:103AD0000E943EE688EF94E060E041E00E94FEE153
:103AE00088EF94E068E50E943EE68FE69AE078DC95
:103AF000BC0188EF94E00E9462E68CE391E028DF4D
:103B000083E79AE06DDCBC0188EF94E00E9462E6F6
:103B100088EF94E06CE041E00E94FEE188EF94E0E1
:103B20006AE50E943EE66091770A7091780A80917A
:103B3000790A90917A0A2CEA35EC47E257E30E9421
:103B40000AEA69877A878B879C87CE0109961BDBF7
:103B5000BC0188EF94E00E9462E688EF94E060E0A8
:103B600042E00E94FEE188EF94E066E00E943EE6BB
:103B70008CE993E0F5DBBC0188EF94E00E9462E6FB
:103B800088EF94E065E20E943EE688EF94E067E00B
:103B900042E00E94FEE189E391E0DADE8091DC07F9
:103BA000882391F18091AB09882311F16091550A26
:103BB0007091560A8091570A9091580A61157105C3
:103BC00081059105A9F06D597F4F8F4F9F4F24E6D6
:103BD00030E040E050E00E94DBEE60915D0A7091C1
:103BE0005E0A80915F0A9091600A0E94DBEE01C03C
:103BF00020E02F831886CE010796B2DBBC0188EF48
:103C000094E00E9462E603C085E391E0A1DE88EFC4
:103C100094E065E20E943EE688EF94E06EE042E0C8
:103C20000E94FEE188EF94E067E00E943EE680910A
:103C3000A80A9091A90AA091AA0AB091AB0A00978C
:103C4000A105B105E1F10E9441E520E63AEE40E030
:103C500050E00E94DBEE79018A016091A80A709120
:103C6000A90A8091AA0A9091AB0A20E63AEE40E0B8
:103C700050E00E94DBEEE21AF30AC7016CE370E049
:103C80000E94B4EE6983CE01019619D9BC0188EF78
:103C900094E00E9462E688EF94E06AE30E943EE6C8
:103CA000C7016CE370E00E94B4EE8A83CE010296F5
:103CB00006D9BC0188EF94E00E9462E603C08FE25F
:103CC00091E046DE88EF94E060E043E00E94FEE190
:103CD00088EF94E064E773E00E9462E62C960FB6EA
:103CE000F894DEBF0FBECDBFCF91DF911F910F9132
:103CF000FF90EF9008951F9382E080938B030E94C2
:103D000041E56C507E4F8F4F9F4F60930F0570932E
:103D100010058093110590931205389A10E0409A8F
:103D200084E690E00E94A8E5409884E690E00E9436
:103D3000A8E51F5F1A3099F71F910895FC01809143
:103D4000890390918A038E179F0779F0F0938A0375
:103D5000E09389034093140550931505609316056D
:103D600070931705222309F0C6CF089540E050E074
:103D700060E070E021E0E2CF40E050E060E070E021
:103D800021E0DCCF8BE093E240E050E060E070E0C7
:103D900020E0D4CF1092E2111092E1111092E411C0
:103DA0001092E3111092A00A10929F0AEBCFAF92EB
:103DB000BF92CF92DF92EF92FF920F931F93809169
:103DC000140590911505A0911605B0911705815025
:103DD0009048A040B04040F0109214051092150594
:103DE0001092160510921705609114057091150533
:103DF000809116059091170525E030E040E050E0F5
:103E00000E94DBEE79018A0180910E0590E0A0E02E
:103E1000B0E0E816F9060A071B0710F420930E0518
:103E200000910E0580910D0590E0969587959695E9
:103E30008795FF24F394F82210E033E1A32EB12CF0
:103E4000C12CD12CEE24E394002381F580918B03C7
:103E50008823B9F08091140590911505A09116055D
:103E6000B09117050597A105B10528F4812F6EE4DF
:103E700076E043E004C0812F6EE476E040E223E088
:103E8000CADCFF2009F4D1C080911405909115057A
:103E9000A0911605B09117050597A105B10508F089
:103EA000C4C029DF88EF99E561DFF7C0013009F070
:103EB0003DC080918B038823F1F0609114057091CF
:103EC0001505809116059091170525E030E040E03A
:103ED00050E00E94DBEE213031054105510529F407
:103EE000812F63E476E04EE304C0812F63E476E043
:103EF00040E22EE790DCFF2009F497C060911405A2
:103F000070911505809116059091170525E030E018
:103F100040E050E00E94DBEE2130310541055105C3
:103F200009F083C0E8DE80E592E27DC0023009F04E
:103F30003DC080918B038823F1F06091140570914E
:103F40001505809116059091170525E030E040E0B9
:103F500050E00E94DBEE223031054105510529F485
:103F6000812F69E376E04EE304C0812F69E376E0B8
:103F700040E22EE750DCFF2009F457C060911405A1
:103F800070911505809116059091170525E030E098
:103F900040E050E00E94DBEE223031054105510542
:103FA00009F043C0A8DE83E492E23DC0033009F08B
:103FB0003CC080918B038823F1F0609114057091CF
:103FC0001505809116059091170525E030E040E039
:103FD00050E00E94DBEE233031054105510529F404
:103FE000812F6DE276E04EE304C0812F6DE276E032
:103FF00040E22EE710DCFF20C1F0609114057091C3
:104000001505809116059091170525E030E040E0F8
:1040100050E00E94DBEE233031054105510529F4C3
:104020006ADE86E392E2A8DE38C0809114059091A2
:104030001505A0911605B09117054497A105B10586
:1040400040F0A0921405B0921505C0921605D092CA
:1040500017056091140570911505809116059091D2
:10406000170525E030E040E050E00E94DBEE422FF3
:1040700080910E0590E0039630E08217930744F498
:10408000435040930E05E0928B03042F01501FEF25
:104090001F5F143010F40F5FD7CE1F910F91FF9068
:1040A000EF90DF90CF90BF90AF900895CF92DF92C6
:1040B000EF92FF920F931F93809114059091150535
:1040C000A0911605B091170581509048A040B040CE
:1040D00040F01092140510921505109216051092DA
:1040E0001705609114057091150580911605909142
:1040F000170525E030E040E050E00E94DBEE79015A
:104100008A0180910E0590E0A0E0B0E0E816F90683
:104110000A071B0710F420930E05F0900E058091FE
:104120000D0590E09695879596958795EE24E394F6
:10413000E82200E055E0D52ECC24C394FF2081F581
:1041400080918B038823B9F0809114059091150517
:10415000A0911605B09117050597A105B10528F4A2
:10416000802F68E776E043E004C0802F68E776E0C0
:1041700040E223E050DBEE2009F491C08091140569
:1041800090911505A0911605B09117050597A10509
:10419000B10508F084C0AFDD87ED9EE1E7DD5FC1CA
:1041A00081E0F81609F03DC080918B038823F1F07F
:1041B0006091140570911505809116059091170571
:1041C00025E030E040E050E00E94DBEE2130310598
:1041D0004105510529F4802F60E776E04EE304C0E5
:1041E000802F60E776E040E22EE715DBEE2009F451
:1041F00056C0609114057091150580911605909137
:10420000170525E030E040E050E00E94DBEE213071
:1042100031054105510509F042C06DDD86E092E5AA
:10422000CEC022E0F216D9F580918B038823F1F0FD
:1042300060911405709115058091160590911705F0
:1042400025E030E040E050E00E94DBEE2230310516
:104250004105510529F4802F68E676E04EE304C05D
:10426000802F68E676E040E22EE7D5DAEE20B9F05E
:1042700060911405709115058091160590911705B0
:1042800025E030E040E050E00E94DBEE22303105D6
:104290004105510521F42FDD8DEF91E590C060912E
:1042A0003A0570913B0580913C0590913D0520E0D9
:1042B00030E040E251E40E94E3EA88230CF081C040
:1042C00083E0F81609F03DC080918B038823F1F05C
:1042D0006091140570911505809116059091170550
:1042E00025E030E040E050E00E94DBEE2330310575
:1042F0004105510529F4802F60E676E04EE304C0C5
:10430000802F60E676E040E22EE785DAEE2009F4C1
:104310005AC0609114057091150580911605909111
:10432000170525E030E040E050E00E94DBEE23304E
:1043300031054105510509F046C0DDDC84EF91E50A
:104340003EC024E0F21609F03EC080918B03882322
:10435000F1F060911405709115058091160590910A
:10436000170525E030E040E050E00E94DBEE24300D
:1043700031054105510529F4802F67E576E04EE3CC
:1043800004C0802F67E576E040E22EE744DAEE20B5
:10439000D1F06091140570911505809116059091EA
:1043A000170525E030E040E050E00E94DBEE2430CD
:1043B00031054105510539F49EDC8FE990E5DCDCDF
:1043C0004EC013E001C015E0609114057091150511
:1043D000809116059091170525E030E040E050E00F
:1043E0000E94DBEE812F90E0A0E0B0E028173907B3
:1043F0004A075B0780F01D9DC00111240197AA2781
:1044000097FDA095BA2F8093140590931505A0935E
:104410001605B093170560911405709115058091EC
:1044200016059091170525E030E040E050E00E942D
:10443000DBEE422F80910E0590E0039630E082176C
:10444000930744F4435040930E05C0928B03F42E1F
:10445000FA940FEF0F5F043010F4F3946FCE1F91B6
:104460000F91FF90EF90DF90CF9008958DEC9CEC32
:10447000ACECBDE380933A0590933B05A0933C05DB
:10448000B0933D0513CE80E090E0A0E8BFE38093B9
:104490003A0590933B05A0933C05B0933D0506CEAD
:1044A00080E090E0A0E2B1E480933A0590933B0570
:1044B000A0933C05B0933D05F9CDDF93CF93CDB7E5
:1044C000DEB7C054D0400FB6F894DEBF0FBECDBFEC
:1044D000DE011196EDE3F4E088E001900D92815049
:1044E000E1F7DE011996E5E3F4E088E001900D9232
:1044F0008150E1F7DE015196EDE2F4E088E00190B1
:104500000D928150E1F7DE015996E5E2F4E088E092
:1045100001900D928150E1F7DE019196EDE1F4E01A
:1045200088E001900D928150E1F7DE019996E5E176
:10453000F4E088E001900D928150E1F7DE01D19620
:10454000EDE0F4E088E001900D928150E1F7DE01AA
:10455000D996E5E0F4E088E001900D928150E1F712
:1045600088EF94E060E0AE014F5F5F4F0E94CFE1C3
:1045700088EF94E061E0AE01475F5F4F0E94CFE1BA
:1045800088EF94E062E0AE014F5E5F4F0E94CFE1A2
:1045900088EF94E063E0AE01475E5F4F0E94CFE199
:1045A00088EF94E064E0AE014F5D5F4F0E94CFE181
:1045B00088EF94E065E0AE01475D5F4F0E94CFE178
:1045C00088EF94E066E0AE014F5C5F4F0E94CFE160
:1045D00088EF94E067E0AE01475C5F4F0E94CFE157
:1045E000C05CDF4F0FB6F894DEBF0FBECDBFCF91DA
:1045F000DF9108950F931F9308EF14E0C80164E161
:1046000044E020E00E9431E258DFC8010E942CE221
:104610001F910F91089580911D05882321F08150ED
:1046200080931D0503C081E080938B0380918B03F1
:10463000882321F09DD98AE080931D0580910D0586
:1046400090E09695879596958795982F9170809193
:104650001E05882391F080911F05882339F0992346
:10466000B9F410921F0510921E0512C0992381F013
:1046700042DB81E080931F050BC0992349F088EA53
:1046800092E540E050E060E070E021E057DBB2DF0F
:1046900020919C0330919D032436310554F4809180
:1046A000140590911505280F391F253631056CF436
:1046B0001AC025363105BCF080911405909115057E
:1046C000280F391F2436310574F410921405109206
:1046D0001505109216051092170584E690E0909348
:1046E0009D0380939C0320919C0330919D0324366D
:1046F000310589F480911405909115058B30910551
:104700001CF0865A9F4F0DC02FEF863F9207ACF4E6
:1047100082599F4F06C08091140590911505820F14
:10472000931F90939D0380939C0310921405109205
:104730001505109216051092170580919C03909113
:104740009D038A3091053CF48AE090E090939D03AC
:1047500080939C030895885E934034F087EE93E045
:1047600090939D0380939C0308950F931F93DF9371
:10477000CF93CDB7DEB76E970FB6F894DEBF0FBEFE
:10478000CDBF00D000D0EDB7FEB731969E012F5FB0
:104790003F4FADB7BEB712963C932E93119722EDC3
:1047A00031E033832283958384830E94B3138E0187
:1047B0000B5F1F4FEDB7FEB736960FB6F894FEBFEE
:1047C0000FBEEDBF08C0992787FD90950E9426EF88
:1047D000D8018D938D01F80180818823A1F7CE0146
:1047E00001960E94318C8EEC91E00E94B88BCADA5F
:1047F0006E960FB6F894DEBF0FBECDBFCF91DF919E
:104800001F910F9108958AED97E00E94C7C71092FB
:104810000E0508954F925F926F927F928F929F92B2
:10482000AF92BF92CF92DF92EF92FF920F931F93BE
:10483000CF93DF9380918B03882309F05DC2809131
:104840000D0582FD59C26CC2109214051092150517
:1048500010921605109217056091140570911505B8
:10486000809116059091170525E030E040E050E07A
:104870000E94DBEE79018A0180910E0590E0A0E0B4
:10488000B0E0E816F9060A071B0710F420930E059E
:10489000E0900E0580910D0590E096958795969590
:1048A0008795992493949822FF2488248394230144
:1048B000089441085108EE2079F580918B038823F4
:1048C000C1F08091140590911505A0911605B09145
:1048D00017050597A105B10528F48F2D6FEB71E041
:1048E00043E004C08F2D6FEB71E040E223E00E94B3
:1048F0000B1C992089F08091140590911505A091C9
:104900001605B09117050597A105B10528F4F3D94F
:1049100088EA92E52BDA04C28EE298E06EED77E049
:104920000E94D6D68091DE078F3211F401E029C0B3
:1049300021E0E21629F580918B038823F9F060913C
:10494000140570911505809116059091170525E0C5
:1049500030E040E050E00E94DBEE213031054105BF
:10496000510529F48F2D6BEB71E04EE304C08F2DC0
:104970006BEB71E040E220E20E940B1C992029F4CD
:1049800002E05201CC24DD2465C1609114057091D0
:104990001505809116059091170525E030E040E05F
:1049A00050E00E94DBEE213031054105510541F711
:1049B000A2D929DFB5C10E1509F045C18AED97E0EE
:1049C000B50140E050E00E94E9CF80910608909147
:1049D0008B03882309F4A6C0992309F478C0609159
:1049E000140570911505809116059091170525E025
:1049F00030E040E050E00E94DBEE802F90E0A0E04D
:104A0000B0E0281739074A075B0789F588EF94E07B
:104A100060E04F2D0E94FEE188EF94E06EE30E947B
:104A20003EE688EF94E065E00E943EE68091EB0769
:104A3000882319F4CEEDD7E004C01092FD07CBEE29
:104A4000D7E012E16881662379F0112369F088EFDD
:104A500094E00E943EE621961150F4CF88EF94E056
:104A600060E20E943EE611501123C1F730C088EF8A
:104A700094E060E04F2D0E94FEE188EF94E060E258
:104A80000E943EE688EF94E065E00E943EE6809159
:104A9000EB07882319F4CEEDD7E004C01092FD0790
:104AA000CBEED7E012E16881662379F0112369F03B
:104AB00088EF94E00E943EE621961150F4CF88EFF3
:104AC00094E060E20E943EE611501123C1F7992064
:104AD00009F4B9C06091140570911505809116050F
:104AE0009091170525E030E040E050E00E94DBEEB9
:104AF000802F90E0A0E0B0E0281739074A075B0755
:104B000009F0A1C0F8D88AED97E06EED77E00E9439
:104B10001AC81092140510921505109216051092DD
:104B20001705FEC0992309F46EC0609114057091B9
:104B30001505809116059091170525E030E040E0BD
:104B400050E00E94DBEE802F90E0A0E0B0E028175C
:104B500039074A075B0761F588EF94E060E04F2D65
:104B60000E94FEE188EF94E06EE30E943EE68091B1
:104B7000EB07882319F4CEEDD7E004C01092FE07AE
:104B8000CBEED7E013E16881662379F0112369F059
:104B900088EF94E00E943EE621961150F4CF88EF12
:104BA00094E060E20E943EE611501123C1F72BC051
:104BB00088EF94E060E04F2D0E94FEE188EF94E0E2
:104BC00060E20E943EE68091EB07882319F4CEED67
:104BD000D7E004C01092FE07CBEED7E013E1688166
:104BE000662379F0112369F088EF94E00E943EE695
:104BF00021961150F4CF88EF94E060E20E943EE6E7
:104C000011501123C1F79920F1F0609114057091B2
:104C10001505809116059091170525E030E040E0DC
:104C200050E00E94DBEE802F90E0A0E0B0E028177B
:104C300039074A075B0739F45ED88EED97E06BEED3
:104C400077E093DD6DC00F5F0894C11CD11C089400
:104C5000A108B108C614D70408F4ADCE60911405BC
:104C600070911505809116059091170525E030E0AB
:104C700040E050E00E94DBEE802F90E0A0E0B0E04A
:104C8000281739074A075B0788F085E0089FC001AD
:104C900011240197AA2797FDA095BA2F8093140598
:104CA00090931505A0931605B09317056091140510
:104CB00070911505809116059091170525E030E05B
:104CC00040E050E00E94DBEE422F80910E0590E024
:104CD000039630E0821793074CF4435040930E053F
:104CE00080928B03E42EEA94FF24FA94F39483E0F9
:104CF0008F15B0F0E394DFCD8AED97E00E9489CF65
:104D00003C018091140590911505A0911605B09174
:104D1000170581509048A040B04008F095CD9CCD3B
:104D2000DF91CF911F910F91FF90EF90DF90CF9087
:104D3000BF90AF909F908F907F906F905F904F90BB
:104D400008958AED97E00C94BBC78AED97E00C9428
:104D5000C2C7AF92BF92CF92DF92EF92FF920F93B2
:104D60001F938091140590911505A0911605B0919F
:104D7000170581509048A040B04040F010921405B3
:104D800010921505109216051092170560911405E2
:104D900070911505809116059091170525E030E07A
:104DA00040E050E00E94DBEE79018A0180910E051F
:104DB00090E0A0E0B0E0E816F9060A071B0710F43F
:104DC00020930E0500910E0580910D0590E09695BB
:104DD000879596958795FF24F394F82210E0F7E2E3
:104DE000AF2EB12CC12CD12CEE24E394002399F5E5
:104DF00080918B038823C1F0809114059091150553
:104E0000A0911605B09117050597A105B10528F4E5
:104E1000812F6EE372E043E004C0812F6EE372E005
:104E200040E223E00E940B1CFF2009F4E1C18091C5
:104E3000140590911505A0911605B09117050597D9
:104E4000A105B10508F0D4C10E947B1E88EA92E555
:104E50000E94B61E05C2013009F03FC080918B034D
:104E60008823F9F06091140570911505809116055D
:104E70009091170525E030E040E050E00E94DBEE25
:104E8000213031054105510529F4812F62E372E09B
:104E90004EE304C0812F62E372E040E22EE70E94FD
:104EA0000B1CFF2009F4A4C1609114057091150535
:104EB000809116059091170525E030E040E050E024
:104EC0000E94DBEE213031054105510509F090C10A
:104ED0000E947B1E8BE599E441C0023009F041C07D
:104EE00080918B038823F9F060911405709115056A
:104EF000809116059091170525E030E040E050E0E4
:104F00000E94DBEE223031054105510529F4812F45
:104F100067E272E04EE304C0812F67E272E040E294
:104F20002EE70E940B1CFF2009F462C1609114055A
:104F300070911505809116059091170525E030E0D8
:104F400040E050E00E94DBEE223031054105510582
:104F500009F04EC10E947B1E84E09DE20E94BC1EAF
:104F60007FC1033009F03FC080918B038823F9F0A3
:104F700060911405709115058091160590911705A3
:104F800025E030E040E050E00E94DBEE23303105C8
:104F90004105510529F4812F6EE172E04EE304C012
:104FA000812F6EE172E040E22EE70E940B1CFF2091
:104FB00009F41EC1609114057091150580911605C4
:104FC0009091170525E030E040E050E00E94DBEED4
:104FD000233031054105510509F00AC10E947B1EAD
:104FE00083E897E4BBCF043009F03FC080918B0386
:104FF0008823F9F0609114057091150580911605CC
:105000009091170525E030E040E050E00E94DBEE93
:10501000243031054105510529F4812F66E172E004
:105020004EE304C0812F66E172E040E22EE70E9469
:105030000B1CFF2009F4DCC060911405709115056C
:10504000809116059091170525E030E040E050E092
:105050000E94DBEE243031054105510509F0C8C03E
:105060000E947B1E81EC99E279CF053009F03FC0A8
:1050700080918B038823F9F06091140570911505D8
:10508000809116059091170525E030E040E050E052
:105090000E94DBEE253031054105510529F4812FB1
:1050A00066E072E04EE304C0812F66E072E040E209
:1050B00020E20E940B1CFF2009F49AC060911405A5
:1050C00070911505809116059091170525E030E047
:1050D00040E050E00E94DBEE2530310541055105EE
:1050E00009F086C00E947B1E0E94EAA0B9C006306B
:1050F00009F03FC080918B038823F9F0609114057B
:1051000070911505809116059091170525E030E006
:1051100040E050E00E94DBEE2630310541055105AC
:1051200029F4812F67EF71E04EE304C0812F67EF10
:1051300071E040E220E20E940B1CFF2009F458C0FD
:1051400060911405709115058091160590911705D1
:1051500025E030E040E050E00E94DBEE26303105F3
:105160004105510509F044C00E947B1E0E94A6AA79
:1051700077C00730E9F580918B038823F9F06091BF
:10518000140570911505809116059091170525E07D
:1051900030E040E050E00E94DBEE27303105410571
:1051A000510529F4812F65EE71E04EE304C0812F93
:1051B00065EE71E040E220E20E940B1CFF20C1F08E
:1051C0006091140570911505809116059091170551
:1051D00025E030E040E050E00E94DBEE2730310572
:1051E0004105510529F40E947B1E0E94E6A338C0A8
:1051F0008091140590911505A0911605B0911705A1
:105200008897A105B10540F0A0921405B09215054C
:10521000C0921605D092170560911405709115057E
:10522000809116059091170525E030E040E050E0B0
:105230000E94DBEE422F80910E0590E0039630E055
:105240008217930744F4435040930E05E0928B037A
:10525000042F01501FEF1F5F143010F40F5FC6CDF5
:105260001F910F91FF90EF90DF90CF90BF90AF9084
:105270000895DF92EF92FF920F931F93CF93DF93E6
:10528000182FEB01D42E7901C9010E94FD1201E112
:10529000081B88EF94E060E0412F0E94FEE188EF58
:1052A00094E06D2D0E943EE6FE016491662349F074
:1052B000002339F088EF94E00E943EE621960150E9
:1052C000F3CF88EF94E06AE30E943EE606C088EFE1
:1052D00094E060E20E943EE601500023C1F7C7015E
:1052E0000E94A81CDF91CF911F910F91FF90EF902A
:1052F000DF900895EF92FF920F931F93CF93DF9368
:10530000582FEB01142FF22EE32EE22FF32FDF01A3
:105310000D900020E9F7022F0A1B0E5E88EF94E043
:1053200060E0452F0E94FEE188EF94E0612F0E942B
:105330003EE6FE016491662349F0002339F088EFD0
:1053400094E00E943EE621960150F3CF88EF94E06E
:105350006AE30E943EE606C088EF94E060E20E94A5
:105360003EE601500023C1F788EF94E06F2D7E2DBB
:105370000E9462E6DF91CF911F910F91FF90EF9015
:105380000895AF92BF92CF92DF92EF92FF920F9368
:105390001F938091140590911505A0911605B09169
:1053A000170581509048A040B04040F0109214057D
:1053B00010921505109216051092170560911405AC
:1053C00070911505809116059091170525E030E044
:1053D00040E050E00E94DBEE79018A0180910E05E9
:1053E00090E0A0E0B0E0E816F9060A071B0710F409
:1053F00020930E0500910E0580910D0590E0969585
:10540000879596958795FF24F394F82210E0B2E2F1
:10541000AB2EB12CC12CD12CEE24E394002399F5B2
:1054200080918B038823C1F080911405909115051C
:10543000A0911605B09117050597A105B10528F4AF
:10544000812F61ED72E043E004C0812F61ED72E0D5
:1054500040E223E00E940B1CFF2009F494C28091DB
:10546000140590911505A0911605B09117050597A3
:10547000A105B10508F087C20E947B1E89EA96E269
:105480000E94B61EB8C2013009F051C080918B0352
:10549000882369F1609114057091150580911605B6
:1054A0009091170525E030E040E050E00E94DBEEEF
:1054B0008091A10A213031054105510561F488230D
:1054C00019F420EC32E002C024EC32E0812F67ECCA
:1054D00072E04EE30BC0882319F429EB32E002C0DE
:1054E0002DEB32E0812F67EC72E040E2C2DEFF205C
:1054F00009F449C260911405709115058091160553
:105500009091170525E030E040E050E00E94DBEE8E
:10551000213031054105510509F035C20E947B1E3D
:105520008091A10A91E089278093A10A64C2023088
:1055300009F049C080918B03882339F160911405EB
:1055400070911505809116059091170525E030E0C2
:1055500040E050E00E94DBEE22303105410551056C
:1055600051F486EB93E00E94841B9C01812F6EEA2C
:1055700072E04EE309C086EB93E00E94841B9C011D
:10558000812F6EEA72E040E2B5DEFF2009F4FBC134
:10559000609114057091150580911605909117057D
:1055A00025E030E040E050E00E94DBEE22303105A3
:1055B0004105510509F0E7C10E947B1E83EA92E094
:1055C00066EB73E032C1033009F08AC080918B032F
:1055D000882339F1609114057091150580911605A5
:1055E0009091170525E030E040E050E00E94DBEEAE
:1055F000233031054105510551F48EEB93E00E94B3
:10560000F0199C01812F68E972E04EE309C08EEB2E
:1056100093E00E94F0199C01812F68E972E040E25A
:1056200069DEFF2009F4AFC1609114057091150582
:10563000809116059091170525E030E040E050E09C
:105640000E94DBEE233031054105510509F09BC175
:105650000E947B1E8091890390918A03909321057B
:105660008093200580911405909115059093230552
:105670008093220582E080938B0380E796E49093E9
:105680008A03809389038DE892E0909325058093A7
:1056900024058EEB93E0909327058093260581E007
:1056A00090E0A0E0B0E08093280590932905A093B6
:1056B0002A05B0932B0586EE93E0A0E0B0E080933E
:1056C0002C0590932D05A0932E05B0932F05609186
:1056D000BE037091BF038091C0039091C10342C18A
:1056E000043009F057C080918B03882339F1609111
:1056F000140570911505809116059091170525E008
:1057000030E040E050E00E94DBEE243031054105FE
:10571000510551F483EA9AE00E94841B9C01812F79
:1057200061E872E04EE309C083EA9AE00E94841BBC
:105730009C01812F61E872E040E2DCDDFF2009F48A
:1057400022C1609114057091150580911605909104
:10575000170525E030E040E050E00E94DBEE243009
:1057600031054105510509F00EC10E947B1E85E7F8
:1057700092E063EA7AE020E030E040E050E00F2E73
:10578000F0E0EF2EF0ECFF2EF9E70F2FF4E41F2FDF
:10579000F02D59C0053009F059C080918B03882342
:1057A00039F160911405709115058091160590915D
:1057B000170525E030E040E050E00E94DBEE2530A8
:1057C00031054105510551F482EC93E00E94841BA0
:1057D0009C01812F6AE672E04EE309C082EC93E0FF
:1057E0000E94841B9C01812F6AE672E040E282DD08
:1057F000FF2009F4C8C060911405709115058091CF
:1058000016059091170525E030E040E050E00E9439
:10581000DBEE253031054105510509F0B4C00E9489
:105820007B1E8FE592E062EC73E020E030E040E028
:1058300050E00F2EF0E0EF2EF0E0FF2EF8EC0F2FEF
:10584000F2E41F2FF02D0E944616D5C0063009F055
:105850009AC080918B03882339F16091140570916F
:105860001505809116059091170525E030E040E080
:1058700050E00E94DBEE263031054105510551F420
:105880008AEC93E00E94F0199C01812F66E572E09A
:105890004EE309C08AEC93E00E94F0199C01812F2D
:1058A00066E572E040E226DDFF2009F46CC06091FD
:1058B000140570911505809116059091170525E046
:1058C00030E040E050E00E94DBEE2630310541053B
:1058D000510509F058C00E947B1E80918903909168
:1058E0008A0390932105809320058091140590915F
:1058F0001505909323058093220582E080938B0306
:1059000080E796E490938A03809389038DE492E084
:1059100090932505809324058AEC93E090932705C6
:105920008093260581E090E0A0E0B0E08093280518
:1059300090932905A0932A05B0932B0586EE93E05A
:10594000A0E0B0E080932C0590932D05A0932E0548
:10595000B0932F056091CA037091CB038091CC0363
:105960009091CD0320E030E040E85FE30E9409EA37
:105970000E9457EB609314057093150580931605EC
:105980009093170538C08091140590911505A0914A
:105990001605B09117058397A105B10540F0A092B7
:1059A0001405B0921505C0921605D09217056091A6
:1059B000140570911505809116059091170525E045
:1059C00030E040E050E00E94DBEE422F80910E0577
:1059D00090E0039630E08217930744F443504093DD
:1059E0000E05E0928B03042F01501FEF1F5F143050
:1059F00010F40F5F13CD1F910F91FF90EF90DF9088
:105A0000CF90BF90AF9008952F923F924F925F92A8
:105A10006F927F928F929F92AF92BF92CF92DF92BE
:105A2000EF92FF920F931F93DF93CF93CDB7DEB723
:105A3000A0970FB6F894DEBF0FBECDBF80911405BE
:105A400090911505A0911605B091170581509048C9
:105A5000A040B04040F0109214051092150510922D
:105A60001605109217056091140570911505809127
:105A700016059091170525E030E040E050E00E94C7
:105A8000DBEE79018A0180910E0590E0A0E0B0E0A4
:105A9000E816F9060A071B0710F420930E0500917B
:105AA0000E0580910D0590E09695879596958795C2
:105AB000FF24F394F82210E03DE1C32ED12CCC0E4C
:105AC000DD1E29E1A22EB12CAC0EBD1E95E1892E62
:105AD000912C8C0E9D1E81E1682E712C6C0E7D1E0A
